{
  "_format": "hh-sol-artifact-1",
  "contractName": "WibuNFT",
  "sourceName": "contracts/NFT.sol",
  "abi": [
    {
      "inputs": [],
      "stateMutability": "nonpayable",
      "type": "constructor"
    },
    {
      "anonymous": false,
      "inputs": [
        {
          "indexed": true,
          "internalType": "address",
          "name": "owner",
          "type": "address"
        },
        {
          "indexed": true,
          "internalType": "address",
          "name": "approved",
          "type": "address"
        },
        {
          "indexed": true,
          "internalType": "uint256",
          "name": "tokenId",
          "type": "uint256"
        }
      ],
      "name": "Approval",
      "type": "event"
    },
    {
      "anonymous": false,
      "inputs": [
        {
          "indexed": true,
          "internalType": "address",
          "name": "owner",
          "type": "address"
        },
        {
          "indexed": true,
          "internalType": "address",
          "name": "operator",
          "type": "address"
        },
        {
          "indexed": false,
          "internalType": "bool",
          "name": "approved",
          "type": "bool"
        }
      ],
      "name": "ApprovalForAll",
      "type": "event"
    },
    {
      "anonymous": false,
      "inputs": [
        {
          "indexed": false,
          "internalType": "uint256",
          "name": "_fromTokenId",
          "type": "uint256"
        },
        {
          "indexed": false,
          "internalType": "uint256",
          "name": "_toTokenId",
          "type": "uint256"
        }
      ],
      "name": "BatchMetadataUpdate",
      "type": "event"
    },
    {
      "anonymous": false,
      "inputs": [
        {
          "indexed": false,
          "internalType": "uint256",
          "name": "_tokenId",
          "type": "uint256"
        }
      ],
      "name": "MetadataUpdate",
      "type": "event"
    },
    {
      "anonymous": false,
      "inputs": [
        {
          "indexed": true,
          "internalType": "address",
          "name": "from",
          "type": "address"
        },
        {
          "indexed": true,
          "internalType": "address",
          "name": "to",
          "type": "address"
        },
        {
          "indexed": true,
          "internalType": "uint256",
          "name": "tokenId",
          "type": "uint256"
        }
      ],
      "name": "Transfer",
      "type": "event"
    },
    {
      "inputs": [
        {
          "internalType": "uint256",
          "name": "",
          "type": "uint256"
        }
      ],
      "name": "NFT_price",
      "outputs": [
        {
          "internalType": "uint256",
          "name": "",
          "type": "uint256"
        }
      ],
      "stateMutability": "view",
      "type": "function"
    },
    {
      "inputs": [],
      "name": "NFT_url",
      "outputs": [
        {
          "internalType": "string",
          "name": "",
          "type": "string"
        }
      ],
      "stateMutability": "view",
      "type": "function"
    },
    {
      "inputs": [
        {
          "internalType": "address",
          "name": "to",
          "type": "address"
        },
        {
          "internalType": "uint256",
          "name": "tokenId",
          "type": "uint256"
        }
      ],
      "name": "approve",
      "outputs": [],
      "stateMutability": "nonpayable",
      "type": "function"
    },
    {
      "inputs": [
        {
          "internalType": "uint256",
          "name": "_tokenId",
          "type": "uint256"
        }
      ],
      "name": "approveNFT",
      "outputs": [],
      "stateMutability": "nonpayable",
      "type": "function"
    },
    {
      "inputs": [
        {
          "internalType": "address",
          "name": "owner",
          "type": "address"
        }
      ],
      "name": "balanceOf",
      "outputs": [
        {
          "internalType": "uint256",
          "name": "",
          "type": "uint256"
        }
      ],
      "stateMutability": "view",
      "type": "function"
    },
    {
      "inputs": [
        {
          "internalType": "string",
          "name": "_NFT_url",
          "type": "string"
        }
      ],
      "name": "createNFT",
      "outputs": [
        {
          "internalType": "uint256",
          "name": "",
          "type": "uint256"
        }
      ],
      "stateMutability": "nonpayable",
      "type": "function"
    },
    {
      "inputs": [
        {
          "internalType": "uint256",
          "name": "tokenId",
          "type": "uint256"
        }
      ],
      "name": "getApproved",
      "outputs": [
        {
          "internalType": "address",
          "name": "",
          "type": "address"
        }
      ],
      "stateMutability": "view",
      "type": "function"
    },
    {
      "inputs": [
        {
          "internalType": "uint256",
          "name": "tokenId",
          "type": "uint256"
        }
      ],
      "name": "getNFTURI",
      "outputs": [
        {
          "internalType": "string",
          "name": "",
          "type": "string"
        }
      ],
      "stateMutability": "view",
      "type": "function"
    },
    {
      "inputs": [
        {
          "internalType": "address",
          "name": "owner",
          "type": "address"
        },
        {
          "internalType": "address",
          "name": "operator",
          "type": "address"
        }
      ],
      "name": "isApprovedForAll",
      "outputs": [
        {
          "internalType": "bool",
          "name": "",
          "type": "bool"
        }
      ],
      "stateMutability": "view",
      "type": "function"
    },
    {
      "inputs": [],
      "name": "name",
      "outputs": [
        {
          "internalType": "string",
          "name": "",
          "type": "string"
        }
      ],
      "stateMutability": "view",
      "type": "function"
    },
    {
      "inputs": [],
      "name": "owner",
      "outputs": [
        {
          "internalType": "address",
          "name": "",
          "type": "address"
        }
      ],
      "stateMutability": "view",
      "type": "function"
    },
    {
      "inputs": [
        {
          "internalType": "uint256",
          "name": "tokenId",
          "type": "uint256"
        }
      ],
      "name": "ownerOf",
      "outputs": [
        {
          "internalType": "address",
          "name": "",
          "type": "address"
        }
      ],
      "stateMutability": "view",
      "type": "function"
    },
    {
      "inputs": [
        {
          "internalType": "address",
          "name": "from",
          "type": "address"
        },
        {
          "internalType": "address",
          "name": "to",
          "type": "address"
        },
        {
          "internalType": "uint256",
          "name": "tokenId",
          "type": "uint256"
        }
      ],
      "name": "safeTransferFrom",
      "outputs": [],
      "stateMutability": "nonpayable",
      "type": "function"
    },
    {
      "inputs": [
        {
          "internalType": "address",
          "name": "from",
          "type": "address"
        },
        {
          "internalType": "address",
          "name": "to",
          "type": "address"
        },
        {
          "internalType": "uint256",
          "name": "tokenId",
          "type": "uint256"
        },
        {
          "internalType": "bytes",
          "name": "data",
          "type": "bytes"
        }
      ],
      "name": "safeTransferFrom",
      "outputs": [],
      "stateMutability": "nonpayable",
      "type": "function"
    },
    {
      "inputs": [
        {
          "internalType": "address",
          "name": "operator",
          "type": "address"
        },
        {
          "internalType": "bool",
          "name": "approved",
          "type": "bool"
        }
      ],
      "name": "setApprovalForAll",
      "outputs": [],
      "stateMutability": "nonpayable",
      "type": "function"
    },
    {
      "inputs": [
        {
          "internalType": "bytes4",
          "name": "interfaceId",
          "type": "bytes4"
        }
      ],
      "name": "supportsInterface",
      "outputs": [
        {
          "internalType": "bool",
          "name": "",
          "type": "bool"
        }
      ],
      "stateMutability": "view",
      "type": "function"
    },
    {
      "inputs": [],
      "name": "symbol",
      "outputs": [
        {
          "internalType": "string",
          "name": "",
          "type": "string"
        }
      ],
      "stateMutability": "view",
      "type": "function"
    },
    {
      "inputs": [
        {
          "internalType": "uint256",
          "name": "tokenId",
          "type": "uint256"
        }
      ],
      "name": "tokenURI",
      "outputs": [
        {
          "internalType": "string",
          "name": "",
          "type": "string"
        }
      ],
      "stateMutability": "view",
      "type": "function"
    },
    {
      "inputs": [
        {
          "internalType": "address",
          "name": "from",
          "type": "address"
        },
        {
          "internalType": "address",
          "name": "to",
          "type": "address"
        },
        {
          "internalType": "uint256",
          "name": "tokenId",
          "type": "uint256"
        }
      ],
      "name": "transferFrom",
      "outputs": [],
      "stateMutability": "nonpayable",
      "type": "function"
    },
    {
      "inputs": [
        {
          "internalType": "address",
          "name": "_to",
          "type": "address"
        },
        {
          "internalType": "uint256",
          "name": "_tokenId",
          "type": "uint256"
        }
      ],
      "name": "transferNFT",
      "outputs": [],
      "stateMutability": "nonpayable",
      "type": "function"
    }
  ],
  "bytecode": "0x60806040523480156200001157600080fd5b506040518060400160405280600881526020017f57696275204e46540000000000000000000000000000000000000000000000008152506040518060400160405280600481526020017f574942550000000000000000000000000000000000000000000000000000000081525081600090816200008f919062000365565b508060019081620000a1919062000365565b50505033600960006101000a81548173ffffffffffffffffffffffffffffffffffffffff021916908373ffffffffffffffffffffffffffffffffffffffff1602179055506200044c565b600081519050919050565b7f4e487b7100000000000000000000000000000000000000000000000000000000600052604160045260246000fd5b7f4e487b7100000000000000000000000000000000000000000000000000000000600052602260045260246000fd5b600060028204905060018216806200016d57607f821691505b60208210810362000183576200018262000125565b5b50919050565b60008190508160005260206000209050919050565b60006020601f8301049050919050565b600082821b905092915050565b600060088302620001ed7fffffffffffffffffffffffffffffffffffffffffffffffffffffffffffffffff82620001ae565b620001f98683620001ae565b95508019841693508086168417925050509392505050565b6000819050919050565b6000819050919050565b600062000246620002406200023a8462000211565b6200021b565b62000211565b9050919050565b6000819050919050565b620002628362000225565b6200027a62000271826200024d565b848454620001bb565b825550505050565b600090565b6200029162000282565b6200029e81848462000257565b505050565b5b81811015620002c657620002ba60008262000287565b600181019050620002a4565b5050565b601f8211156200031557620002df8162000189565b620002ea846200019e565b81016020851015620002fa578190505b6200031262000309856200019e565b830182620002a3565b50505b505050565b600082821c905092915050565b60006200033a600019846008026200031a565b1980831691505092915050565b600062000355838362000327565b9150826002028217905092915050565b6200037082620000eb565b67ffffffffffffffff8111156200038c576200038b620000f6565b5b62000398825462000154565b620003a5828285620002ca565b600060209050601f831160018114620003dd5760008415620003c8578287015190505b620003d4858262000347565b86555062000444565b601f198416620003ed8662000189565b60005b828110156200041757848901518255600182019150602085019450602081019050620003f0565b8683101562000437578489015162000433601f89168262000327565b8355505b6001600288020188555050505b505050505050565b612cfd806200045c6000396000f3fe608060405234801561001057600080fd5b506004361061012b5760003560e01c806394ab67fe116100ad578063b88d4fde11610071578063b88d4fde14610340578063be0a7a7f1461035c578063c87b56dd1461038c578063da2ed03e146103bc578063e985e9c5146103ec5761012b565b806394ab67fe146102b057806395d89b41146102cc578063a22cb465146102ea578063ad6ed71d14610306578063b63b3d57146103225761012b565b806323b872dd116100f457806323b872dd146101fa57806342842e0e146102165780636352211e1461023257806370a08231146102625780638da5cb5b146102925761012b565b8062621fda1461013057806301ffc9a71461016057806306fdde0314610190578063081812fc146101ae578063095ea7b3146101de575b600080fd5b61014a60048036038101906101459190611bdd565b61041c565b6040516101579190611c9a565b60405180910390f35b61017a60048036038101906101759190611d14565b61042e565b6040516101879190611d5c565b60405180910390f35b61019861048f565b6040516101a59190611c9a565b60405180910390f35b6101c860048036038101906101c39190611bdd565b610521565b6040516101d59190611db8565b60405180910390f35b6101f860048036038101906101f39190611dff565b610567565b005b610214600480360381019061020f9190611e3f565b61067e565b005b610230600480360381019061022b9190611e3f565b6106de565b005b61024c60048036038101906102479190611bdd565b6106fe565b6040516102599190611db8565b60405180910390f35b61027c60048036038101906102779190611e92565b610784565b6040516102899190611ece565b60405180910390f35b61029a61083b565b6040516102a79190611db8565b60405180910390f35b6102ca60048036038101906102c59190611dff565b610861565b005b6102d4610870565b6040516102e19190611c9a565b60405180910390f35b61030460048036038101906102ff9190611f15565b610902565b005b610320600480360381019061031b9190611bdd565b610918565b005b61032a610947565b6040516103379190611c9a565b60405180910390f35b61035a6004803603810190610355919061208a565b6109d5565b005b61037660048036038101906103719190611bdd565b610a37565b6040516103839190611ece565b60405180910390f35b6103a660048036038101906103a19190611bdd565b610a4f565b6040516103b39190611c9a565b60405180910390f35b6103d660048036038101906103d191906121ae565b610b61565b6040516103e39190611ece565b60405180910390f35b610406600480360381019061040191906121f7565b610b98565b6040516104139190611d5c565b60405180910390f35b606061042782610a4f565b9050919050565b6000634906490660e01b7bffffffffffffffffffffffffffffffffffffffffffffffffffffffff1916827bffffffffffffffffffffffffffffffffffffffffffffffffffffffff19161480610488575061048782610c2c565b5b9050919050565b60606000805461049e90612266565b80601f01602080910402602001604051908101604052809291908181526020018280546104ca90612266565b80156105175780601f106104ec57610100808354040283529160200191610517565b820191906000526020600020905b8154815290600101906020018083116104fa57829003601f168201915b5050505050905090565b600061052c82610d0e565b6004600083815260200190815260200160002060009054906101000a900473ffffffffffffffffffffffffffffffffffffffff169050919050565b6000610572826106fe565b90508073ffffffffffffffffffffffffffffffffffffffff168373ffffffffffffffffffffffffffffffffffffffff16036105e2576040517f08c379a00000000000000000000000000000000000000000000000000000000081526004016105d990612309565b60405180910390fd5b8073ffffffffffffffffffffffffffffffffffffffff16610601610d59565b73ffffffffffffffffffffffffffffffffffffffff161480610630575061062f8161062a610d59565b610b98565b5b61066f576040517f08c379a00000000000000000000000000000000000000000000000000000000081526004016106669061239b565b60405180910390fd5b6106798383610d61565b505050565b61068f610689610d59565b82610e1a565b6106ce576040517f08c379a00000000000000000000000000000000000000000000000000000000081526004016106c59061242d565b60405180910390fd5b6106d9838383610eaf565b505050565b6106f9838383604051806020016040528060008152506109d5565b505050565b60008061070a836111a8565b9050600073ffffffffffffffffffffffffffffffffffffffff168173ffffffffffffffffffffffffffffffffffffffff160361077b576040517f08c379a000000000000000000000000000000000000000000000000000000000815260040161077290612499565b60405180910390fd5b80915050919050565b60008073ffffffffffffffffffffffffffffffffffffffff168273ffffffffffffffffffffffffffffffffffffffff16036107f4576040517f08c379a00000000000000000000000000000000000000000000000000000000081526004016107eb9061252b565b60405180910390fd5b600360008373ffffffffffffffffffffffffffffffffffffffff1673ffffffffffffffffffffffffffffffffffffffff168152602001908152602001600020549050919050565b600960009054906101000a900473ffffffffffffffffffffffffffffffffffffffff1681565b61086c3383836106de565b5050565b60606001805461087f90612266565b80601f01602080910402602001604051908101604052809291908181526020018280546108ab90612266565b80156108f85780601f106108cd576101008083540402835291602001916108f8565b820191906000526020600020905b8154815290600101906020018083116108db57829003601f168201915b5050505050905090565b61091461090d610d59565b83836111e5565b5050565b610944600960009054906101000a900473ffffffffffffffffffffffffffffffffffffffff1682610567565b50565b600a805461095490612266565b80601f016020809104026020016040519081016040528092919081815260200182805461098090612266565b80156109cd5780601f106109a2576101008083540402835291602001916109cd565b820191906000526020600020905b8154815290600101906020018083116109b057829003601f168201915b505050505081565b6109e66109e0610d59565b83610e1a565b610a25576040517f08c379a0000000000000000000000000000000000000000000000000000000008152600401610a1c9061242d565b60405180910390fd5b610a3184848484611351565b50505050565b600b6020528060005260406000206000915090505481565b6060610a5a82610d0e565b6000600660008481526020019081526020016000208054610a7a90612266565b80601f0160208091040260200160405190810160405280929190818152602001828054610aa690612266565b8015610af35780601f10610ac857610100808354040283529160200191610af3565b820191906000526020600020905b815481529060010190602001808311610ad657829003601f168201915b505050505090506000610b046113ad565b90506000815103610b19578192505050610b5c565b600082511115610b4e578082604051602001610b36929190612587565b60405160208183030381529060405292505050610b5c565b610b57846113c4565b925050505b919050565b6000610b6d600761142c565b6000610b796007611442565b9050610b853382611450565b610b8f818461166d565b80915050919050565b6000600560008473ffffffffffffffffffffffffffffffffffffffff1673ffffffffffffffffffffffffffffffffffffffff16815260200190815260200160002060008373ffffffffffffffffffffffffffffffffffffffff1673ffffffffffffffffffffffffffffffffffffffff16815260200190815260200160002060009054906101000a900460ff16905092915050565b60007f80ac58cd000000000000000000000000000000000000000000000000000000007bffffffffffffffffffffffffffffffffffffffffffffffffffffffff1916827bffffffffffffffffffffffffffffffffffffffffffffffffffffffff19161480610cf757507f5b5e139f000000000000000000000000000000000000000000000000000000007bffffffffffffffffffffffffffffffffffffffffffffffffffffffff1916827bffffffffffffffffffffffffffffffffffffffffffffffffffffffff1916145b80610d075750610d0682611711565b5b9050919050565b610d178161177b565b610d56576040517f08c379a0000000000000000000000000000000000000000000000000000000008152600401610d4d90612499565b60405180910390fd5b50565b600033905090565b816004600083815260200190815260200160002060006101000a81548173ffffffffffffffffffffffffffffffffffffffff021916908373ffffffffffffffffffffffffffffffffffffffff160217905550808273ffffffffffffffffffffffffffffffffffffffff16610dd4836106fe565b73ffffffffffffffffffffffffffffffffffffffff167f8c5be1e5ebec7d5bd14f71427d1e84f3dd0314c0f7b2291e5b200ac8c7c3b92560405160405180910390a45050565b600080610e26836106fe565b90508073ffffffffffffffffffffffffffffffffffffffff168473ffffffffffffffffffffffffffffffffffffffff161480610e685750610e678185610b98565b5b80610ea657508373ffffffffffffffffffffffffffffffffffffffff16610e8e84610521565b73ffffffffffffffffffffffffffffffffffffffff16145b91505092915050565b8273ffffffffffffffffffffffffffffffffffffffff16610ecf826106fe565b73ffffffffffffffffffffffffffffffffffffffff1614610f25576040517f08c379a0000000000000000000000000000000000000000000000000000000008152600401610f1c9061261d565b60405180910390fd5b600073ffffffffffffffffffffffffffffffffffffffff168273ffffffffffffffffffffffffffffffffffffffff1603610f94576040517f08c379a0000000000000000000000000000000000000000000000000000000008152600401610f8b906126af565b60405180910390fd5b610fa183838360016117bc565b8273ffffffffffffffffffffffffffffffffffffffff16610fc1826106fe565b73ffffffffffffffffffffffffffffffffffffffff1614611017576040517f08c379a000000000000000000000000000000000000000000000000000000000815260040161100e9061261d565b60405180910390fd5b6004600082815260200190815260200160002060006101000a81549073ffffffffffffffffffffffffffffffffffffffff02191690556001600360008573ffffffffffffffffffffffffffffffffffffffff1673ffffffffffffffffffffffffffffffffffffffff168152602001908152602001600020600082825403925050819055506001600360008473ffffffffffffffffffffffffffffffffffffffff1673ffffffffffffffffffffffffffffffffffffffff16815260200190815260200160002060008282540192505081905550816002600083815260200190815260200160002060006101000a81548173ffffffffffffffffffffffffffffffffffffffff021916908373ffffffffffffffffffffffffffffffffffffffff160217905550808273ffffffffffffffffffffffffffffffffffffffff168473ffffffffffffffffffffffffffffffffffffffff167fddf252ad1be2c89b69c2b068fc378daa952ba7f163c4a11628f55a4df523b3ef60405160405180910390a46111a383838360016117c2565b505050565b60006002600083815260200190815260200160002060009054906101000a900473ffffffffffffffffffffffffffffffffffffffff169050919050565b8173ffffffffffffffffffffffffffffffffffffffff168373ffffffffffffffffffffffffffffffffffffffff1603611253576040517f08c379a000000000000000000000000000000000000000000000000000000000815260040161124a9061271b565b60405180910390fd5b80600560008573ffffffffffffffffffffffffffffffffffffffff1673ffffffffffffffffffffffffffffffffffffffff16815260200190815260200160002060008473ffffffffffffffffffffffffffffffffffffffff1673ffffffffffffffffffffffffffffffffffffffff16815260200190815260200160002060006101000a81548160ff0219169083151502179055508173ffffffffffffffffffffffffffffffffffffffff168373ffffffffffffffffffffffffffffffffffffffff167f17307eab39ab6107e8899845ad3d59bd9653f200f220920489ca2b5937696c31836040516113449190611d5c565b60405180910390a3505050565b61135c848484610eaf565b611368848484846117c8565b6113a7576040517f08c379a000000000000000000000000000000000000000000000000000000000815260040161139e906127ad565b60405180910390fd5b50505050565b606060405180602001604052806000815250905090565b60606113cf82610d0e565b60006113d96113ad565b905060008151116113f95760405180602001604052806000815250611424565b806114038461194f565b604051602001611414929190612587565b6040516020818303038152906040525b915050919050565b6001816000016000828254019250508190555050565b600081600001549050919050565b600073ffffffffffffffffffffffffffffffffffffffff168273ffffffffffffffffffffffffffffffffffffffff16036114bf576040517f08c379a00000000000000000000000000000000000000000000000000000000081526004016114b690612819565b60405180910390fd5b6114c88161177b565b15611508576040517f08c379a00000000000000000000000000000000000000000000000000000000081526004016114ff90612885565b60405180910390fd5b6115166000838360016117bc565b61151f8161177b565b1561155f576040517f08c379a000000000000000000000000000000000000000000000000000000000815260040161155690612885565b60405180910390fd5b6001600360008473ffffffffffffffffffffffffffffffffffffffff1673ffffffffffffffffffffffffffffffffffffffff16815260200190815260200160002060008282540192505081905550816002600083815260200190815260200160002060006101000a81548173ffffffffffffffffffffffffffffffffffffffff021916908373ffffffffffffffffffffffffffffffffffffffff160217905550808273ffffffffffffffffffffffffffffffffffffffff16600073ffffffffffffffffffffffffffffffffffffffff167fddf252ad1be2c89b69c2b068fc378daa952ba7f163c4a11628f55a4df523b3ef60405160405180910390a46116696000838360016117c2565b5050565b6116768261177b565b6116b5576040517f08c379a00000000000000000000000000000000000000000000000000000000081526004016116ac90612917565b60405180910390fd5b806006600084815260200190815260200160002090816116d59190612ae3565b507ff8e1a15aba9398e019f0b49df1a4fde98ee17ae345cb5f6b5e2c27f5033e8ce7826040516117059190611ece565b60405180910390a15050565b60007f01ffc9a7000000000000000000000000000000000000000000000000000000007bffffffffffffffffffffffffffffffffffffffffffffffffffffffff1916827bffffffffffffffffffffffffffffffffffffffffffffffffffffffff1916149050919050565b60008073ffffffffffffffffffffffffffffffffffffffff1661179d836111a8565b73ffffffffffffffffffffffffffffffffffffffff1614159050919050565b50505050565b50505050565b60006117e98473ffffffffffffffffffffffffffffffffffffffff16611a1d565b15611942578373ffffffffffffffffffffffffffffffffffffffff1663150b7a02611812610d59565b8786866040518563ffffffff1660e01b81526004016118349493929190612c0a565b6020604051808303816000875af192505050801561187057506040513d601f19601f8201168201806040525081019061186d9190612c6b565b60015b6118f2573d80600081146118a0576040519150601f19603f3d011682016040523d82523d6000602084013e6118a5565b606091505b5060008151036118ea576040517f08c379a00000000000000000000000000000000000000000000000000000000081526004016118e1906127ad565b60405180910390fd5b805181602001fd5b63150b7a0260e01b7bffffffffffffffffffffffffffffffffffffffffffffffffffffffff1916817bffffffffffffffffffffffffffffffffffffffffffffffffffffffff191614915050611947565b600190505b949350505050565b60606000600161195e84611a40565b01905060008167ffffffffffffffff81111561197d5761197c611f5f565b5b6040519080825280601f01601f1916602001820160405280156119af5781602001600182028036833780820191505090505b509050600082602001820190505b600115611a12578080600190039150507f3031323334353637383961626364656600000000000000000000000000000000600a86061a8153600a8581611a0657611a05612c98565b5b049450600085036119bd575b819350505050919050565b6000808273ffffffffffffffffffffffffffffffffffffffff163b119050919050565b600080600090507a184f03e93ff9f4daa797ed6e38ed64bf6a1f0100000000000000008310611a9e577a184f03e93ff9f4daa797ed6e38ed64bf6a1f0100000000000000008381611a9457611a93612c98565b5b0492506040810190505b6d04ee2d6d415b85acef81000000008310611adb576d04ee2d6d415b85acef81000000008381611ad157611ad0612c98565b5b0492506020810190505b662386f26fc100008310611b0a57662386f26fc100008381611b0057611aff612c98565b5b0492506010810190505b6305f5e1008310611b33576305f5e1008381611b2957611b28612c98565b5b0492506008810190505b6127108310611b58576127108381611b4e57611b4d612c98565b5b0492506004810190505b60648310611b7b5760648381611b7157611b70612c98565b5b0492506002810190505b600a8310611b8a576001810190505b80915050919050565b6000604051905090565b600080fd5b600080fd5b6000819050919050565b611bba81611ba7565b8114611bc557600080fd5b50565b600081359050611bd781611bb1565b92915050565b600060208284031215611bf357611bf2611b9d565b5b6000611c0184828501611bc8565b91505092915050565b600081519050919050565b600082825260208201905092915050565b60005b83811015611c44578082015181840152602081019050611c29565b60008484015250505050565b6000601f19601f8301169050919050565b6000611c6c82611c0a565b611c768185611c15565b9350611c86818560208601611c26565b611c8f81611c50565b840191505092915050565b60006020820190508181036000830152611cb48184611c61565b905092915050565b60007fffffffff0000000000000000000000000000000000000000000000000000000082169050919050565b611cf181611cbc565b8114611cfc57600080fd5b50565b600081359050611d0e81611ce8565b92915050565b600060208284031215611d2a57611d29611b9d565b5b6000611d3884828501611cff565b91505092915050565b60008115159050919050565b611d5681611d41565b82525050565b6000602082019050611d716000830184611d4d565b92915050565b600073ffffffffffffffffffffffffffffffffffffffff82169050919050565b6000611da282611d77565b9050919050565b611db281611d97565b82525050565b6000602082019050611dcd6000830184611da9565b92915050565b611ddc81611d97565b8114611de757600080fd5b50565b600081359050611df981611dd3565b92915050565b60008060408385031215611e1657611e15611b9d565b5b6000611e2485828601611dea565b9250506020611e3585828601611bc8565b9150509250929050565b600080600060608486031215611e5857611e57611b9d565b5b6000611e6686828701611dea565b9350506020611e7786828701611dea565b9250506040611e8886828701611bc8565b9150509250925092565b600060208284031215611ea857611ea7611b9d565b5b6000611eb684828501611dea565b91505092915050565b611ec881611ba7565b82525050565b6000602082019050611ee36000830184611ebf565b92915050565b611ef281611d41565b8114611efd57600080fd5b50565b600081359050611f0f81611ee9565b92915050565b60008060408385031215611f2c57611f2b611b9d565b5b6000611f3a85828601611dea565b9250506020611f4b85828601611f00565b9150509250929050565b600080fd5b600080fd5b7f4e487b7100000000000000000000000000000000000000000000000000000000600052604160045260246000fd5b611f9782611c50565b810181811067ffffffffffffffff82111715611fb657611fb5611f5f565b5b80604052505050565b6000611fc9611b93565b9050611fd58282611f8e565b919050565b600067ffffffffffffffff821115611ff557611ff4611f5f565b5b611ffe82611c50565b9050602081019050919050565b82818337600083830152505050565b600061202d61202884611fda565b611fbf565b90508281526020810184848401111561204957612048611f5a565b5b61205484828561200b565b509392505050565b600082601f83011261207157612070611f55565b5b813561208184826020860161201a565b91505092915050565b600080600080608085870312156120a4576120a3611b9d565b5b60006120b287828801611dea565b94505060206120c387828801611dea565b93505060406120d487828801611bc8565b925050606085013567ffffffffffffffff8111156120f5576120f4611ba2565b5b6121018782880161205c565b91505092959194509250565b600067ffffffffffffffff82111561212857612127611f5f565b5b61213182611c50565b9050602081019050919050565b600061215161214c8461210d565b611fbf565b90508281526020810184848401111561216d5761216c611f5a565b5b61217884828561200b565b509392505050565b600082601f83011261219557612194611f55565b5b81356121a584826020860161213e565b91505092915050565b6000602082840312156121c4576121c3611b9d565b5b600082013567ffffffffffffffff8111156121e2576121e1611ba2565b5b6121ee84828501612180565b91505092915050565b6000806040838503121561220e5761220d611b9d565b5b600061221c85828601611dea565b925050602061222d85828601611dea565b9150509250929050565b7f4e487b7100000000000000000000000000000000000000000000000000000000600052602260045260246000fd5b6000600282049050600182168061227e57607f821691505b60208210810361229157612290612237565b5b50919050565b7f4552433732313a20617070726f76616c20746f2063757272656e74206f776e6560008201527f7200000000000000000000000000000000000000000000000000000000000000602082015250565b60006122f3602183611c15565b91506122fe82612297565b604082019050919050565b60006020820190508181036000830152612322816122e6565b9050919050565b7f4552433732313a20617070726f76652063616c6c6572206973206e6f7420746f60008201527f6b656e206f776e6572206f7220617070726f76656420666f7220616c6c000000602082015250565b6000612385603d83611c15565b915061239082612329565b604082019050919050565b600060208201905081810360008301526123b481612378565b9050919050565b7f4552433732313a2063616c6c6572206973206e6f7420746f6b656e206f776e6560008201527f72206f7220617070726f76656400000000000000000000000000000000000000602082015250565b6000612417602d83611c15565b9150612422826123bb565b604082019050919050565b600060208201905081810360008301526124468161240a565b9050919050565b7f4552433732313a20696e76616c696420746f6b656e2049440000000000000000600082015250565b6000612483601883611c15565b915061248e8261244d565b602082019050919050565b600060208201905081810360008301526124b281612476565b9050919050565b7f4552433732313a2061646472657373207a65726f206973206e6f74206120766160008201527f6c6964206f776e65720000000000000000000000000000000000000000000000602082015250565b6000612515602983611c15565b9150612520826124b9565b604082019050919050565b6000602082019050818103600083015261254481612508565b9050919050565b600081905092915050565b600061256182611c0a565b61256b818561254b565b935061257b818560208601611c26565b80840191505092915050565b60006125938285612556565b915061259f8284612556565b91508190509392505050565b7f4552433732313a207472616e736665722066726f6d20696e636f72726563742060008201527f6f776e6572000000000000000000000000000000000000000000000000000000602082015250565b6000612607602583611c15565b9150612612826125ab565b604082019050919050565b60006020820190508181036000830152612636816125fa565b9050919050565b7f4552433732313a207472616e7366657220746f20746865207a65726f2061646460008201527f7265737300000000000000000000000000000000000000000000000000000000602082015250565b6000612699602483611c15565b91506126a48261263d565b604082019050919050565b600060208201905081810360008301526126c88161268c565b9050919050565b7f4552433732313a20617070726f766520746f2063616c6c657200000000000000600082015250565b6000612705601983611c15565b9150612710826126cf565b602082019050919050565b60006020820190508181036000830152612734816126f8565b9050919050565b7f4552433732313a207472616e7366657220746f206e6f6e20455243373231526560008201527f63656976657220696d706c656d656e7465720000000000000000000000000000602082015250565b6000612797603283611c15565b91506127a28261273b565b604082019050919050565b600060208201905081810360008301526127c68161278a565b9050919050565b7f4552433732313a206d696e7420746f20746865207a65726f2061646472657373600082015250565b6000612803602083611c15565b915061280e826127cd565b602082019050919050565b60006020820190508181036000830152612832816127f6565b9050919050565b7f4552433732313a20746f6b656e20616c7265616479206d696e74656400000000600082015250565b600061286f601c83611c15565b915061287a82612839565b602082019050919050565b6000602082019050818103600083015261289e81612862565b9050919050565b7f45524337323155524953746f726167653a2055524920736574206f66206e6f6e60008201527f6578697374656e7420746f6b656e000000000000000000000000000000000000602082015250565b6000612901602e83611c15565b915061290c826128a5565b604082019050919050565b60006020820190508181036000830152612930816128f4565b9050919050565b60008190508160005260206000209050919050565b60006020601f8301049050919050565b600082821b905092915050565b6000600883026129997fffffffffffffffffffffffffffffffffffffffffffffffffffffffffffffffff8261295c565b6129a3868361295c565b95508019841693508086168417925050509392505050565b6000819050919050565b60006129e06129db6129d684611ba7565b6129bb565b611ba7565b9050919050565b6000819050919050565b6129fa836129c5565b612a0e612a06826129e7565b848454612969565b825550505050565b600090565b612a23612a16565b612a2e8184846129f1565b505050565b5b81811015612a5257612a47600082612a1b565b600181019050612a34565b5050565b601f821115612a9757612a6881612937565b612a718461294c565b81016020851015612a80578190505b612a94612a8c8561294c565b830182612a33565b50505b505050565b600082821c905092915050565b6000612aba60001984600802612a9c565b1980831691505092915050565b6000612ad38383612aa9565b9150826002028217905092915050565b612aec82611c0a565b67ffffffffffffffff811115612b0557612b04611f5f565b5b612b0f8254612266565b612b1a828285612a56565b600060209050601f831160018114612b4d5760008415612b3b578287015190505b612b458582612ac7565b865550612bad565b601f198416612b5b86612937565b60005b82811015612b8357848901518255600182019150602085019450602081019050612b5e565b86831015612ba05784890151612b9c601f891682612aa9565b8355505b6001600288020188555050505b505050505050565b600081519050919050565b600082825260208201905092915050565b6000612bdc82612bb5565b612be68185612bc0565b9350612bf6818560208601611c26565b612bff81611c50565b840191505092915050565b6000608082019050612c1f6000830187611da9565b612c2c6020830186611da9565b612c396040830185611ebf565b8181036060830152612c4b8184612bd1565b905095945050505050565b600081519050612c6581611ce8565b92915050565b600060208284031215612c8157612c80611b9d565b5b6000612c8f84828501612c56565b91505092915050565b7f4e487b7100000000000000000000000000000000000000000000000000000000600052601260045260246000fdfea2646970667358221220c1bcbfa3d765deb68dd1eb128ef385f4aa3736ffcd9f7c444d9dfc3338cc142f64736f6c63430008120033",
  "linkReferences": {},
  "deployedLinkReferences": {}
}