{
  "_format": "hh-sol-artifact-1",
  "contractName": "WibuNFT",
  "sourceName": "contracts/NFT.sol",
  "abi": [
    {
      "inputs": [],
      "stateMutability": "nonpayable",
      "type": "constructor"
    },
    {
      "anonymous": false,
      "inputs": [
        {
          "indexed": true,
          "internalType": "address",
          "name": "owner",
          "type": "address"
        },
        {
          "indexed": true,
          "internalType": "address",
          "name": "approved",
          "type": "address"
        },
        {
          "indexed": true,
          "internalType": "uint256",
          "name": "tokenId",
          "type": "uint256"
        }
      ],
      "name": "Approval",
      "type": "event"
    },
    {
      "anonymous": false,
      "inputs": [
        {
          "indexed": true,
          "internalType": "address",
          "name": "owner",
          "type": "address"
        },
        {
          "indexed": true,
          "internalType": "address",
          "name": "operator",
          "type": "address"
        },
        {
          "indexed": false,
          "internalType": "bool",
          "name": "approved",
          "type": "bool"
        }
      ],
      "name": "ApprovalForAll",
      "type": "event"
    },
    {
      "anonymous": false,
      "inputs": [
        {
          "indexed": false,
          "internalType": "uint256",
          "name": "_fromTokenId",
          "type": "uint256"
        },
        {
          "indexed": false,
          "internalType": "uint256",
          "name": "_toTokenId",
          "type": "uint256"
        }
      ],
      "name": "BatchMetadataUpdate",
      "type": "event"
    },
    {
      "anonymous": false,
      "inputs": [
        {
          "indexed": false,
          "internalType": "uint256",
          "name": "_tokenId",
          "type": "uint256"
        }
      ],
      "name": "MetadataUpdate",
      "type": "event"
    },
    {
      "anonymous": false,
      "inputs": [
        {
          "indexed": true,
          "internalType": "address",
          "name": "from",
          "type": "address"
        },
        {
          "indexed": true,
          "internalType": "address",
          "name": "to",
          "type": "address"
        },
        {
          "indexed": true,
          "internalType": "uint256",
          "name": "tokenId",
          "type": "uint256"
        }
      ],
      "name": "Transfer",
      "type": "event"
    },
    {
      "inputs": [
        {
          "internalType": "uint256",
          "name": "",
          "type": "uint256"
        }
      ],
      "name": "NFT_price",
      "outputs": [
        {
          "internalType": "uint256",
          "name": "",
          "type": "uint256"
        }
      ],
      "stateMutability": "view",
      "type": "function"
    },
    {
      "inputs": [],
      "name": "NFT_url",
      "outputs": [
        {
          "internalType": "string",
          "name": "",
          "type": "string"
        }
      ],
      "stateMutability": "view",
      "type": "function"
    },
    {
      "inputs": [
        {
          "internalType": "address",
          "name": "to",
          "type": "address"
        },
        {
          "internalType": "uint256",
          "name": "tokenId",
          "type": "uint256"
        }
      ],
      "name": "approve",
      "outputs": [],
      "stateMutability": "nonpayable",
      "type": "function"
    },
    {
      "inputs": [
        {
          "internalType": "uint256",
          "name": "_tokenId",
          "type": "uint256"
        }
      ],
      "name": "approveNFT",
      "outputs": [],
      "stateMutability": "nonpayable",
      "type": "function"
    },
    {
      "inputs": [
        {
          "internalType": "address",
          "name": "owner",
          "type": "address"
        }
      ],
      "name": "balanceOf",
      "outputs": [
        {
          "internalType": "uint256",
          "name": "",
          "type": "uint256"
        }
      ],
      "stateMutability": "view",
      "type": "function"
    },
    {
      "inputs": [
        {
          "internalType": "string",
          "name": "_NFT_url",
          "type": "string"
        }
      ],
      "name": "createNFT",
      "outputs": [
        {
          "internalType": "uint256",
          "name": "",
          "type": "uint256"
        }
      ],
      "stateMutability": "nonpayable",
      "type": "function"
    },
    {
      "inputs": [
        {
          "internalType": "uint256",
          "name": "tokenId",
          "type": "uint256"
        }
      ],
      "name": "getApproved",
      "outputs": [
        {
          "internalType": "address",
          "name": "",
          "type": "address"
        }
      ],
      "stateMutability": "view",
      "type": "function"
    },
    {
      "inputs": [
        {
          "internalType": "address",
          "name": "owner",
          "type": "address"
        },
        {
          "internalType": "address",
          "name": "operator",
          "type": "address"
        }
      ],
      "name": "isApprovedForAll",
      "outputs": [
        {
          "internalType": "bool",
          "name": "",
          "type": "bool"
        }
      ],
      "stateMutability": "view",
      "type": "function"
    },
    {
      "inputs": [],
      "name": "name",
      "outputs": [
        {
          "internalType": "string",
          "name": "",
          "type": "string"
        }
      ],
      "stateMutability": "view",
      "type": "function"
    },
    {
      "inputs": [],
      "name": "owner",
      "outputs": [
        {
          "internalType": "address",
          "name": "",
          "type": "address"
        }
      ],
      "stateMutability": "view",
      "type": "function"
    },
    {
      "inputs": [
        {
          "internalType": "uint256",
          "name": "tokenId",
          "type": "uint256"
        }
      ],
      "name": "ownerOf",
      "outputs": [
        {
          "internalType": "address",
          "name": "",
          "type": "address"
        }
      ],
      "stateMutability": "view",
      "type": "function"
    },
    {
      "inputs": [
        {
          "internalType": "address",
          "name": "from",
          "type": "address"
        },
        {
          "internalType": "address",
          "name": "to",
          "type": "address"
        },
        {
          "internalType": "uint256",
          "name": "tokenId",
          "type": "uint256"
        }
      ],
      "name": "safeTransferFrom",
      "outputs": [],
      "stateMutability": "nonpayable",
      "type": "function"
    },
    {
      "inputs": [
        {
          "internalType": "address",
          "name": "from",
          "type": "address"
        },
        {
          "internalType": "address",
          "name": "to",
          "type": "address"
        },
        {
          "internalType": "uint256",
          "name": "tokenId",
          "type": "uint256"
        },
        {
          "internalType": "bytes",
          "name": "data",
          "type": "bytes"
        }
      ],
      "name": "safeTransferFrom",
      "outputs": [],
      "stateMutability": "nonpayable",
      "type": "function"
    },
    {
      "inputs": [
        {
          "internalType": "address",
          "name": "operator",
          "type": "address"
        },
        {
          "internalType": "bool",
          "name": "approved",
          "type": "bool"
        }
      ],
      "name": "setApprovalForAll",
      "outputs": [],
      "stateMutability": "nonpayable",
      "type": "function"
    },
    {
      "inputs": [
        {
          "internalType": "bytes4",
          "name": "interfaceId",
          "type": "bytes4"
        }
      ],
      "name": "supportsInterface",
      "outputs": [
        {
          "internalType": "bool",
          "name": "",
          "type": "bool"
        }
      ],
      "stateMutability": "view",
      "type": "function"
    },
    {
      "inputs": [],
      "name": "symbol",
      "outputs": [
        {
          "internalType": "string",
          "name": "",
          "type": "string"
        }
      ],
      "stateMutability": "view",
      "type": "function"
    },
    {
      "inputs": [
        {
          "internalType": "uint256",
          "name": "tokenId",
          "type": "uint256"
        }
      ],
      "name": "tokenURI",
      "outputs": [
        {
          "internalType": "string",
          "name": "",
          "type": "string"
        }
      ],
      "stateMutability": "view",
      "type": "function"
    },
    {
      "inputs": [
        {
          "internalType": "address",
          "name": "from",
          "type": "address"
        },
        {
          "internalType": "address",
          "name": "to",
          "type": "address"
        },
        {
          "internalType": "uint256",
          "name": "tokenId",
          "type": "uint256"
        }
      ],
      "name": "transferFrom",
      "outputs": [],
      "stateMutability": "nonpayable",
      "type": "function"
    },
    {
      "inputs": [
        {
          "internalType": "address",
          "name": "_to",
          "type": "address"
        },
        {
          "internalType": "uint256",
          "name": "_tokenId",
          "type": "uint256"
        }
      ],
      "name": "transferNFT",
      "outputs": [],
      "stateMutability": "nonpayable",
      "type": "function"
    }
  ],
  "bytecode": "0x60806040523480156200001157600080fd5b506040518060400160405280600881526020017f57696275204e46540000000000000000000000000000000000000000000000008152506040518060400160405280600481526020017f574942550000000000000000000000000000000000000000000000000000000081525081600090816200008f919062000365565b508060019081620000a1919062000365565b50505033600960006101000a81548173ffffffffffffffffffffffffffffffffffffffff021916908373ffffffffffffffffffffffffffffffffffffffff1602179055506200044c565b600081519050919050565b7f4e487b7100000000000000000000000000000000000000000000000000000000600052604160045260246000fd5b7f4e487b7100000000000000000000000000000000000000000000000000000000600052602260045260246000fd5b600060028204905060018216806200016d57607f821691505b60208210810362000183576200018262000125565b5b50919050565b60008190508160005260206000209050919050565b60006020601f8301049050919050565b600082821b905092915050565b600060088302620001ed7fffffffffffffffffffffffffffffffffffffffffffffffffffffffffffffffff82620001ae565b620001f98683620001ae565b95508019841693508086168417925050509392505050565b6000819050919050565b6000819050919050565b600062000246620002406200023a8462000211565b6200021b565b62000211565b9050919050565b6000819050919050565b620002628362000225565b6200027a62000271826200024d565b848454620001bb565b825550505050565b600090565b6200029162000282565b6200029e81848462000257565b505050565b5b81811015620002c657620002ba60008262000287565b600181019050620002a4565b5050565b601f8211156200031557620002df8162000189565b620002ea846200019e565b81016020851015620002fa578190505b6200031262000309856200019e565b830182620002a3565b50505b505050565b600082821c905092915050565b60006200033a600019846008026200031a565b1980831691505092915050565b600062000355838362000327565b9150826002028217905092915050565b6200037082620000eb565b67ffffffffffffffff8111156200038c576200038b620000f6565b5b62000398825462000154565b620003a5828285620002ca565b600060209050601f831160018114620003dd5760008415620003c8578287015190505b620003d4858262000347565b86555062000444565b601f198416620003ed8662000189565b60005b828110156200041757848901518255600182019150602085019450602081019050620003f0565b8683101562000437578489015162000433601f89168262000327565b8355505b6001600288020188555050505b505050505050565b612cb1806200045c6000396000f3fe608060405234801561001057600080fd5b50600436106101215760003560e01c806394ab67fe116100ad578063b88d4fde11610071578063b88d4fde14610306578063be0a7a7f14610322578063c87b56dd14610352578063da2ed03e14610382578063e985e9c5146103b257610121565b806394ab67fe1461027657806395d89b4114610292578063a22cb465146102b0578063ad6ed71d146102cc578063b63b3d57146102e857610121565b806323b872dd116100f457806323b872dd146101c057806342842e0e146101dc5780636352211e146101f857806370a08231146102285780638da5cb5b1461025857610121565b806301ffc9a71461012657806306fdde0314610156578063081812fc14610174578063095ea7b3146101a4575b600080fd5b610140600480360381019061013b9190611bb3565b6103e2565b60405161014d9190611bfb565b60405180910390f35b61015e610443565b60405161016b9190611ca6565b60405180910390f35b61018e60048036038101906101899190611cfe565b6104d5565b60405161019b9190611d6c565b60405180910390f35b6101be60048036038101906101b99190611db3565b61051b565b005b6101da60048036038101906101d59190611df3565b610632565b005b6101f660048036038101906101f19190611df3565b610692565b005b610212600480360381019061020d9190611cfe565b6106b2565b60405161021f9190611d6c565b60405180910390f35b610242600480360381019061023d9190611e46565b610738565b60405161024f9190611e82565b60405180910390f35b6102606107ef565b60405161026d9190611d6c565b60405180910390f35b610290600480360381019061028b9190611db3565b610815565b005b61029a610824565b6040516102a79190611ca6565b60405180910390f35b6102ca60048036038101906102c59190611ec9565b6108b6565b005b6102e660048036038101906102e19190611cfe565b6108cc565b005b6102f06108fb565b6040516102fd9190611ca6565b60405180910390f35b610320600480360381019061031b919061203e565b610989565b005b61033c60048036038101906103379190611cfe565b6109eb565b6040516103499190611e82565b60405180910390f35b61036c60048036038101906103679190611cfe565b610a03565b6040516103799190611ca6565b60405180910390f35b61039c60048036038101906103979190612162565b610b15565b6040516103a99190611e82565b60405180910390f35b6103cc60048036038101906103c791906121ab565b610b4c565b6040516103d99190611bfb565b60405180910390f35b6000634906490660e01b7bffffffffffffffffffffffffffffffffffffffffffffffffffffffff1916827bffffffffffffffffffffffffffffffffffffffffffffffffffffffff1916148061043c575061043b82610be0565b5b9050919050565b6060600080546104529061221a565b80601f016020809104026020016040519081016040528092919081815260200182805461047e9061221a565b80156104cb5780601f106104a0576101008083540402835291602001916104cb565b820191906000526020600020905b8154815290600101906020018083116104ae57829003601f168201915b5050505050905090565b60006104e082610cc2565b6004600083815260200190815260200160002060009054906101000a900473ffffffffffffffffffffffffffffffffffffffff169050919050565b6000610526826106b2565b90508073ffffffffffffffffffffffffffffffffffffffff168373ffffffffffffffffffffffffffffffffffffffff1603610596576040517f08c379a000000000000000000000000000000000000000000000000000000000815260040161058d906122bd565b60405180910390fd5b8073ffffffffffffffffffffffffffffffffffffffff166105b5610d0d565b73ffffffffffffffffffffffffffffffffffffffff1614806105e457506105e3816105de610d0d565b610b4c565b5b610623576040517f08c379a000000000000000000000000000000000000000000000000000000000815260040161061a9061234f565b60405180910390fd5b61062d8383610d15565b505050565b61064361063d610d0d565b82610dce565b610682576040517f08c379a0000000000000000000000000000000000000000000000000000000008152600401610679906123e1565b60405180910390fd5b61068d838383610e63565b505050565b6106ad83838360405180602001604052806000815250610989565b505050565b6000806106be8361115c565b9050600073ffffffffffffffffffffffffffffffffffffffff168173ffffffffffffffffffffffffffffffffffffffff160361072f576040517f08c379a00000000000000000000000000000000000000000000000000000000081526004016107269061244d565b60405180910390fd5b80915050919050565b60008073ffffffffffffffffffffffffffffffffffffffff168273ffffffffffffffffffffffffffffffffffffffff16036107a8576040517f08c379a000000000000000000000000000000000000000000000000000000000815260040161079f906124df565b60405180910390fd5b600360008373ffffffffffffffffffffffffffffffffffffffff1673ffffffffffffffffffffffffffffffffffffffff168152602001908152602001600020549050919050565b600960009054906101000a900473ffffffffffffffffffffffffffffffffffffffff1681565b610820338383610692565b5050565b6060600180546108339061221a565b80601f016020809104026020016040519081016040528092919081815260200182805461085f9061221a565b80156108ac5780601f10610881576101008083540402835291602001916108ac565b820191906000526020600020905b81548152906001019060200180831161088f57829003601f168201915b5050505050905090565b6108c86108c1610d0d565b8383611199565b5050565b6108f8600960009054906101000a900473ffffffffffffffffffffffffffffffffffffffff168261051b565b50565b600a80546109089061221a565b80601f01602080910402602001604051908101604052809291908181526020018280546109349061221a565b80156109815780601f1061095657610100808354040283529160200191610981565b820191906000526020600020905b81548152906001019060200180831161096457829003601f168201915b505050505081565b61099a610994610d0d565b83610dce565b6109d9576040517f08c379a00000000000000000000000000000000000000000000000000000000081526004016109d0906123e1565b60405180910390fd5b6109e584848484611305565b50505050565b600b6020528060005260406000206000915090505481565b6060610a0e82610cc2565b6000600660008481526020019081526020016000208054610a2e9061221a565b80601f0160208091040260200160405190810160405280929190818152602001828054610a5a9061221a565b8015610aa75780601f10610a7c57610100808354040283529160200191610aa7565b820191906000526020600020905b815481529060010190602001808311610a8a57829003601f168201915b505050505090506000610ab8611361565b90506000815103610acd578192505050610b10565b600082511115610b02578082604051602001610aea92919061253b565b60405160208183030381529060405292505050610b10565b610b0b84611378565b925050505b919050565b6000610b2160076113e0565b6000610b2d60076113f6565b9050610b393382611404565b610b438184611621565b80915050919050565b6000600560008473ffffffffffffffffffffffffffffffffffffffff1673ffffffffffffffffffffffffffffffffffffffff16815260200190815260200160002060008373ffffffffffffffffffffffffffffffffffffffff1673ffffffffffffffffffffffffffffffffffffffff16815260200190815260200160002060009054906101000a900460ff16905092915050565b60007f80ac58cd000000000000000000000000000000000000000000000000000000007bffffffffffffffffffffffffffffffffffffffffffffffffffffffff1916827bffffffffffffffffffffffffffffffffffffffffffffffffffffffff19161480610cab57507f5b5e139f000000000000000000000000000000000000000000000000000000007bffffffffffffffffffffffffffffffffffffffffffffffffffffffff1916827bffffffffffffffffffffffffffffffffffffffffffffffffffffffff1916145b80610cbb5750610cba826116c5565b5b9050919050565b610ccb8161172f565b610d0a576040517f08c379a0000000000000000000000000000000000000000000000000000000008152600401610d019061244d565b60405180910390fd5b50565b600033905090565b816004600083815260200190815260200160002060006101000a81548173ffffffffffffffffffffffffffffffffffffffff021916908373ffffffffffffffffffffffffffffffffffffffff160217905550808273ffffffffffffffffffffffffffffffffffffffff16610d88836106b2565b73ffffffffffffffffffffffffffffffffffffffff167f8c5be1e5ebec7d5bd14f71427d1e84f3dd0314c0f7b2291e5b200ac8c7c3b92560405160405180910390a45050565b600080610dda836106b2565b90508073ffffffffffffffffffffffffffffffffffffffff168473ffffffffffffffffffffffffffffffffffffffff161480610e1c5750610e1b8185610b4c565b5b80610e5a57508373ffffffffffffffffffffffffffffffffffffffff16610e42846104d5565b73ffffffffffffffffffffffffffffffffffffffff16145b91505092915050565b8273ffffffffffffffffffffffffffffffffffffffff16610e83826106b2565b73ffffffffffffffffffffffffffffffffffffffff1614610ed9576040517f08c379a0000000000000000000000000000000000000000000000000000000008152600401610ed0906125d1565b60405180910390fd5b600073ffffffffffffffffffffffffffffffffffffffff168273ffffffffffffffffffffffffffffffffffffffff1603610f48576040517f08c379a0000000000000000000000000000000000000000000000000000000008152600401610f3f90612663565b60405180910390fd5b610f558383836001611770565b8273ffffffffffffffffffffffffffffffffffffffff16610f75826106b2565b73ffffffffffffffffffffffffffffffffffffffff1614610fcb576040517f08c379a0000000000000000000000000000000000000000000000000000000008152600401610fc2906125d1565b60405180910390fd5b6004600082815260200190815260200160002060006101000a81549073ffffffffffffffffffffffffffffffffffffffff02191690556001600360008573ffffffffffffffffffffffffffffffffffffffff1673ffffffffffffffffffffffffffffffffffffffff168152602001908152602001600020600082825403925050819055506001600360008473ffffffffffffffffffffffffffffffffffffffff1673ffffffffffffffffffffffffffffffffffffffff16815260200190815260200160002060008282540192505081905550816002600083815260200190815260200160002060006101000a81548173ffffffffffffffffffffffffffffffffffffffff021916908373ffffffffffffffffffffffffffffffffffffffff160217905550808273ffffffffffffffffffffffffffffffffffffffff168473ffffffffffffffffffffffffffffffffffffffff167fddf252ad1be2c89b69c2b068fc378daa952ba7f163c4a11628f55a4df523b3ef60405160405180910390a46111578383836001611776565b505050565b60006002600083815260200190815260200160002060009054906101000a900473ffffffffffffffffffffffffffffffffffffffff169050919050565b8173ffffffffffffffffffffffffffffffffffffffff168373ffffffffffffffffffffffffffffffffffffffff1603611207576040517f08c379a00000000000000000000000000000000000000000000000000000000081526004016111fe906126cf565b60405180910390fd5b80600560008573ffffffffffffffffffffffffffffffffffffffff1673ffffffffffffffffffffffffffffffffffffffff16815260200190815260200160002060008473ffffffffffffffffffffffffffffffffffffffff1673ffffffffffffffffffffffffffffffffffffffff16815260200190815260200160002060006101000a81548160ff0219169083151502179055508173ffffffffffffffffffffffffffffffffffffffff168373ffffffffffffffffffffffffffffffffffffffff167f17307eab39ab6107e8899845ad3d59bd9653f200f220920489ca2b5937696c31836040516112f89190611bfb565b60405180910390a3505050565b611310848484610e63565b61131c8484848461177c565b61135b576040517f08c379a000000000000000000000000000000000000000000000000000000000815260040161135290612761565b60405180910390fd5b50505050565b606060405180602001604052806000815250905090565b606061138382610cc2565b600061138d611361565b905060008151116113ad57604051806020016040528060008152506113d8565b806113b784611903565b6040516020016113c892919061253b565b6040516020818303038152906040525b915050919050565b6001816000016000828254019250508190555050565b600081600001549050919050565b600073ffffffffffffffffffffffffffffffffffffffff168273ffffffffffffffffffffffffffffffffffffffff1603611473576040517f08c379a000000000000000000000000000000000000000000000000000000000815260040161146a906127cd565b60405180910390fd5b61147c8161172f565b156114bc576040517f08c379a00000000000000000000000000000000000000000000000000000000081526004016114b390612839565b60405180910390fd5b6114ca600083836001611770565b6114d38161172f565b15611513576040517f08c379a000000000000000000000000000000000000000000000000000000000815260040161150a90612839565b60405180910390fd5b6001600360008473ffffffffffffffffffffffffffffffffffffffff1673ffffffffffffffffffffffffffffffffffffffff16815260200190815260200160002060008282540192505081905550816002600083815260200190815260200160002060006101000a81548173ffffffffffffffffffffffffffffffffffffffff021916908373ffffffffffffffffffffffffffffffffffffffff160217905550808273ffffffffffffffffffffffffffffffffffffffff16600073ffffffffffffffffffffffffffffffffffffffff167fddf252ad1be2c89b69c2b068fc378daa952ba7f163c4a11628f55a4df523b3ef60405160405180910390a461161d600083836001611776565b5050565b61162a8261172f565b611669576040517f08c379a0000000000000000000000000000000000000000000000000000000008152600401611660906128cb565b60405180910390fd5b806006600084815260200190815260200160002090816116899190612a97565b507ff8e1a15aba9398e019f0b49df1a4fde98ee17ae345cb5f6b5e2c27f5033e8ce7826040516116b99190611e82565b60405180910390a15050565b60007f01ffc9a7000000000000000000000000000000000000000000000000000000007bffffffffffffffffffffffffffffffffffffffffffffffffffffffff1916827bffffffffffffffffffffffffffffffffffffffffffffffffffffffff1916149050919050565b60008073ffffffffffffffffffffffffffffffffffffffff166117518361115c565b73ffffffffffffffffffffffffffffffffffffffff1614159050919050565b50505050565b50505050565b600061179d8473ffffffffffffffffffffffffffffffffffffffff166119d1565b156118f6578373ffffffffffffffffffffffffffffffffffffffff1663150b7a026117c6610d0d565b8786866040518563ffffffff1660e01b81526004016117e89493929190612bbe565b6020604051808303816000875af192505050801561182457506040513d601f19601f820116820180604052508101906118219190612c1f565b60015b6118a6573d8060008114611854576040519150601f19603f3d011682016040523d82523d6000602084013e611859565b606091505b50600081510361189e576040517f08c379a000000000000000000000000000000000000000000000000000000000815260040161189590612761565b60405180910390fd5b805181602001fd5b63150b7a0260e01b7bffffffffffffffffffffffffffffffffffffffffffffffffffffffff1916817bffffffffffffffffffffffffffffffffffffffffffffffffffffffff1916149150506118fb565b600190505b949350505050565b606060006001611912846119f4565b01905060008167ffffffffffffffff81111561193157611930611f13565b5b6040519080825280601f01601f1916602001820160405280156119635781602001600182028036833780820191505090505b509050600082602001820190505b6001156119c6578080600190039150507f3031323334353637383961626364656600000000000000000000000000000000600a86061a8153600a85816119ba576119b9612c4c565b5b04945060008503611971575b819350505050919050565b6000808273ffffffffffffffffffffffffffffffffffffffff163b119050919050565b600080600090507a184f03e93ff9f4daa797ed6e38ed64bf6a1f0100000000000000008310611a52577a184f03e93ff9f4daa797ed6e38ed64bf6a1f0100000000000000008381611a4857611a47612c4c565b5b0492506040810190505b6d04ee2d6d415b85acef81000000008310611a8f576d04ee2d6d415b85acef81000000008381611a8557611a84612c4c565b5b0492506020810190505b662386f26fc100008310611abe57662386f26fc100008381611ab457611ab3612c4c565b5b0492506010810190505b6305f5e1008310611ae7576305f5e1008381611add57611adc612c4c565b5b0492506008810190505b6127108310611b0c576127108381611b0257611b01612c4c565b5b0492506004810190505b60648310611b2f5760648381611b2557611b24612c4c565b5b0492506002810190505b600a8310611b3e576001810190505b80915050919050565b6000604051905090565b600080fd5b600080fd5b60007fffffffff0000000000000000000000000000000000000000000000000000000082169050919050565b611b9081611b5b565b8114611b9b57600080fd5b50565b600081359050611bad81611b87565b92915050565b600060208284031215611bc957611bc8611b51565b5b6000611bd784828501611b9e565b91505092915050565b60008115159050919050565b611bf581611be0565b82525050565b6000602082019050611c106000830184611bec565b92915050565b600081519050919050565b600082825260208201905092915050565b60005b83811015611c50578082015181840152602081019050611c35565b60008484015250505050565b6000601f19601f8301169050919050565b6000611c7882611c16565b611c828185611c21565b9350611c92818560208601611c32565b611c9b81611c5c565b840191505092915050565b60006020820190508181036000830152611cc08184611c6d565b905092915050565b6000819050919050565b611cdb81611cc8565b8114611ce657600080fd5b50565b600081359050611cf881611cd2565b92915050565b600060208284031215611d1457611d13611b51565b5b6000611d2284828501611ce9565b91505092915050565b600073ffffffffffffffffffffffffffffffffffffffff82169050919050565b6000611d5682611d2b565b9050919050565b611d6681611d4b565b82525050565b6000602082019050611d816000830184611d5d565b92915050565b611d9081611d4b565b8114611d9b57600080fd5b50565b600081359050611dad81611d87565b92915050565b60008060408385031215611dca57611dc9611b51565b5b6000611dd885828601611d9e565b9250506020611de985828601611ce9565b9150509250929050565b600080600060608486031215611e0c57611e0b611b51565b5b6000611e1a86828701611d9e565b9350506020611e2b86828701611d9e565b9250506040611e3c86828701611ce9565b9150509250925092565b600060208284031215611e5c57611e5b611b51565b5b6000611e6a84828501611d9e565b91505092915050565b611e7c81611cc8565b82525050565b6000602082019050611e976000830184611e73565b92915050565b611ea681611be0565b8114611eb157600080fd5b50565b600081359050611ec381611e9d565b92915050565b60008060408385031215611ee057611edf611b51565b5b6000611eee85828601611d9e565b9250506020611eff85828601611eb4565b9150509250929050565b600080fd5b600080fd5b7f4e487b7100000000000000000000000000000000000000000000000000000000600052604160045260246000fd5b611f4b82611c5c565b810181811067ffffffffffffffff82111715611f6a57611f69611f13565b5b80604052505050565b6000611f7d611b47565b9050611f898282611f42565b919050565b600067ffffffffffffffff821115611fa957611fa8611f13565b5b611fb282611c5c565b9050602081019050919050565b82818337600083830152505050565b6000611fe1611fdc84611f8e565b611f73565b905082815260208101848484011115611ffd57611ffc611f0e565b5b612008848285611fbf565b509392505050565b600082601f83011261202557612024611f09565b5b8135612035848260208601611fce565b91505092915050565b6000806000806080858703121561205857612057611b51565b5b600061206687828801611d9e565b945050602061207787828801611d9e565b935050604061208887828801611ce9565b925050606085013567ffffffffffffffff8111156120a9576120a8611b56565b5b6120b587828801612010565b91505092959194509250565b600067ffffffffffffffff8211156120dc576120db611f13565b5b6120e582611c5c565b9050602081019050919050565b6000612105612100846120c1565b611f73565b90508281526020810184848401111561212157612120611f0e565b5b61212c848285611fbf565b509392505050565b600082601f83011261214957612148611f09565b5b81356121598482602086016120f2565b91505092915050565b60006020828403121561217857612177611b51565b5b600082013567ffffffffffffffff81111561219657612195611b56565b5b6121a284828501612134565b91505092915050565b600080604083850312156121c2576121c1611b51565b5b60006121d085828601611d9e565b92505060206121e185828601611d9e565b9150509250929050565b7f4e487b7100000000000000000000000000000000000000000000000000000000600052602260045260246000fd5b6000600282049050600182168061223257607f821691505b602082108103612245576122446121eb565b5b50919050565b7f4552433732313a20617070726f76616c20746f2063757272656e74206f776e6560008201527f7200000000000000000000000000000000000000000000000000000000000000602082015250565b60006122a7602183611c21565b91506122b28261224b565b604082019050919050565b600060208201905081810360008301526122d68161229a565b9050919050565b7f4552433732313a20617070726f76652063616c6c6572206973206e6f7420746f60008201527f6b656e206f776e6572206f7220617070726f76656420666f7220616c6c000000602082015250565b6000612339603d83611c21565b9150612344826122dd565b604082019050919050565b600060208201905081810360008301526123688161232c565b9050919050565b7f4552433732313a2063616c6c6572206973206e6f7420746f6b656e206f776e6560008201527f72206f7220617070726f76656400000000000000000000000000000000000000602082015250565b60006123cb602d83611c21565b91506123d68261236f565b604082019050919050565b600060208201905081810360008301526123fa816123be565b9050919050565b7f4552433732313a20696e76616c696420746f6b656e2049440000000000000000600082015250565b6000612437601883611c21565b915061244282612401565b602082019050919050565b600060208201905081810360008301526124668161242a565b9050919050565b7f4552433732313a2061646472657373207a65726f206973206e6f74206120766160008201527f6c6964206f776e65720000000000000000000000000000000000000000000000602082015250565b60006124c9602983611c21565b91506124d48261246d565b604082019050919050565b600060208201905081810360008301526124f8816124bc565b9050919050565b600081905092915050565b600061251582611c16565b61251f81856124ff565b935061252f818560208601611c32565b80840191505092915050565b6000612547828561250a565b9150612553828461250a565b91508190509392505050565b7f4552433732313a207472616e736665722066726f6d20696e636f72726563742060008201527f6f776e6572000000000000000000000000000000000000000000000000000000602082015250565b60006125bb602583611c21565b91506125c68261255f565b604082019050919050565b600060208201905081810360008301526125ea816125ae565b9050919050565b7f4552433732313a207472616e7366657220746f20746865207a65726f2061646460008201527f7265737300000000000000000000000000000000000000000000000000000000602082015250565b600061264d602483611c21565b9150612658826125f1565b604082019050919050565b6000602082019050818103600083015261267c81612640565b9050919050565b7f4552433732313a20617070726f766520746f2063616c6c657200000000000000600082015250565b60006126b9601983611c21565b91506126c482612683565b602082019050919050565b600060208201905081810360008301526126e8816126ac565b9050919050565b7f4552433732313a207472616e7366657220746f206e6f6e20455243373231526560008201527f63656976657220696d706c656d656e7465720000000000000000000000000000602082015250565b600061274b603283611c21565b9150612756826126ef565b604082019050919050565b6000602082019050818103600083015261277a8161273e565b9050919050565b7f4552433732313a206d696e7420746f20746865207a65726f2061646472657373600082015250565b60006127b7602083611c21565b91506127c282612781565b602082019050919050565b600060208201905081810360008301526127e6816127aa565b9050919050565b7f4552433732313a20746f6b656e20616c7265616479206d696e74656400000000600082015250565b6000612823601c83611c21565b915061282e826127ed565b602082019050919050565b6000602082019050818103600083015261285281612816565b9050919050565b7f45524337323155524953746f726167653a2055524920736574206f66206e6f6e60008201527f6578697374656e7420746f6b656e000000000000000000000000000000000000602082015250565b60006128b5602e83611c21565b91506128c082612859565b604082019050919050565b600060208201905081810360008301526128e4816128a8565b9050919050565b60008190508160005260206000209050919050565b60006020601f8301049050919050565b600082821b905092915050565b60006008830261294d7fffffffffffffffffffffffffffffffffffffffffffffffffffffffffffffffff82612910565b6129578683612910565b95508019841693508086168417925050509392505050565b6000819050919050565b600061299461298f61298a84611cc8565b61296f565b611cc8565b9050919050565b6000819050919050565b6129ae83612979565b6129c26129ba8261299b565b84845461291d565b825550505050565b600090565b6129d76129ca565b6129e28184846129a5565b505050565b5b81811015612a06576129fb6000826129cf565b6001810190506129e8565b5050565b601f821115612a4b57612a1c816128eb565b612a2584612900565b81016020851015612a34578190505b612a48612a4085612900565b8301826129e7565b50505b505050565b600082821c905092915050565b6000612a6e60001984600802612a50565b1980831691505092915050565b6000612a878383612a5d565b9150826002028217905092915050565b612aa082611c16565b67ffffffffffffffff811115612ab957612ab8611f13565b5b612ac3825461221a565b612ace828285612a0a565b600060209050601f831160018114612b015760008415612aef578287015190505b612af98582612a7b565b865550612b61565b601f198416612b0f866128eb565b60005b82811015612b3757848901518255600182019150602085019450602081019050612b12565b86831015612b545784890151612b50601f891682612a5d565b8355505b6001600288020188555050505b505050505050565b600081519050919050565b600082825260208201905092915050565b6000612b9082612b69565b612b9a8185612b74565b9350612baa818560208601611c32565b612bb381611c5c565b840191505092915050565b6000608082019050612bd36000830187611d5d565b612be06020830186611d5d565b612bed6040830185611e73565b8181036060830152612bff8184612b85565b905095945050505050565b600081519050612c1981611b87565b92915050565b600060208284031215612c3557612c34611b51565b5b6000612c4384828501612c0a565b91505092915050565b7f4e487b7100000000000000000000000000000000000000000000000000000000600052601260045260246000fdfea264697066735822122021413fa5001a50fdc33d8be59969ba186a28197109f898b8ec226f29bc35cb0964736f6c63430008120033",
  "linkReferences": {},
  "deployedLinkReferences": {}
}