{
  "_format": "hh-sol-artifact-1",
  "contractName": "NFTMarketplace",
  "sourceName": "contracts/NFT_contracts_ERC721.sol",
  "abi": [
    {
      "inputs": [
        {
          "internalType": "address",
          "name": "_yourTokenAddress",
          "type": "address"
        }
      ],
      "stateMutability": "nonpayable",
      "type": "constructor"
    },
    {
      "anonymous": false,
      "inputs": [
        {
          "indexed": true,
          "internalType": "address",
          "name": "owner",
          "type": "address"
        },
        {
          "indexed": true,
          "internalType": "address",
          "name": "approved",
          "type": "address"
        },
        {
          "indexed": true,
          "internalType": "uint256",
          "name": "tokenId",
          "type": "uint256"
        }
      ],
      "name": "Approval",
      "type": "event"
    },
    {
      "anonymous": false,
      "inputs": [
        {
          "indexed": true,
          "internalType": "address",
          "name": "owner",
          "type": "address"
        },
        {
          "indexed": true,
          "internalType": "address",
          "name": "operator",
          "type": "address"
        },
        {
          "indexed": false,
          "internalType": "bool",
          "name": "approved",
          "type": "bool"
        }
      ],
      "name": "ApprovalForAll",
      "type": "event"
    },
    {
      "anonymous": false,
      "inputs": [
        {
          "indexed": false,
          "internalType": "uint256",
          "name": "_fromTokenId",
          "type": "uint256"
        },
        {
          "indexed": false,
          "internalType": "uint256",
          "name": "_toTokenId",
          "type": "uint256"
        }
      ],
      "name": "BatchMetadataUpdate",
      "type": "event"
    },
    {
      "anonymous": false,
      "inputs": [
        {
          "indexed": false,
          "internalType": "uint256",
          "name": "_tokenId",
          "type": "uint256"
        }
      ],
      "name": "MetadataUpdate",
      "type": "event"
    },
    {
      "anonymous": false,
      "inputs": [
        {
          "indexed": true,
          "internalType": "uint256",
          "name": "tokenId",
          "type": "uint256"
        },
        {
          "indexed": false,
          "internalType": "address",
          "name": "owner",
          "type": "address"
        },
        {
          "indexed": false,
          "internalType": "address",
          "name": "seller",
          "type": "address"
        },
        {
          "indexed": false,
          "internalType": "uint256",
          "name": "price",
          "type": "uint256"
        },
        {
          "indexed": false,
          "internalType": "bool",
          "name": "currentlyListed",
          "type": "bool"
        }
      ],
      "name": "TokenListedSuccess",
      "type": "event"
    },
    {
      "anonymous": false,
      "inputs": [
        {
          "indexed": true,
          "internalType": "address",
          "name": "from",
          "type": "address"
        },
        {
          "indexed": true,
          "internalType": "address",
          "name": "to",
          "type": "address"
        },
        {
          "indexed": true,
          "internalType": "uint256",
          "name": "tokenId",
          "type": "uint256"
        }
      ],
      "name": "Transfer",
      "type": "event"
    },
    {
      "inputs": [
        {
          "internalType": "address",
          "name": "to",
          "type": "address"
        },
        {
          "internalType": "uint256",
          "name": "tokenId",
          "type": "uint256"
        }
      ],
      "name": "approve",
      "outputs": [],
      "stateMutability": "nonpayable",
      "type": "function"
    },
    {
      "inputs": [
        {
          "internalType": "address",
          "name": "owner",
          "type": "address"
        }
      ],
      "name": "balanceOf",
      "outputs": [
        {
          "internalType": "uint256",
          "name": "",
          "type": "uint256"
        }
      ],
      "stateMutability": "view",
      "type": "function"
    },
    {
      "inputs": [
        {
          "internalType": "string",
          "name": "tokenURI",
          "type": "string"
        },
        {
          "internalType": "uint256",
          "name": "price",
          "type": "uint256"
        }
      ],
      "name": "createToken",
      "outputs": [],
      "stateMutability": "payable",
      "type": "function"
    },
    {
      "inputs": [
        {
          "internalType": "uint256",
          "name": "tokenId",
          "type": "uint256"
        }
      ],
      "name": "executeSale",
      "outputs": [],
      "stateMutability": "payable",
      "type": "function"
    },
    {
      "inputs": [],
      "name": "getAllNFTs",
      "outputs": [
        {
          "components": [
            {
              "internalType": "uint256",
              "name": "tokenId",
              "type": "uint256"
            },
            {
              "internalType": "address payable",
              "name": "owner",
              "type": "address"
            },
            {
              "internalType": "address payable",
              "name": "seller",
              "type": "address"
            },
            {
              "internalType": "uint256",
              "name": "price",
              "type": "uint256"
            },
            {
              "internalType": "bool",
              "name": "currentlyListed",
              "type": "bool"
            }
          ],
          "internalType": "struct NFTMarketplace.ListedToken[]",
          "name": "",
          "type": "tuple[]"
        }
      ],
      "stateMutability": "view",
      "type": "function"
    },
    {
      "inputs": [
        {
          "internalType": "uint256",
          "name": "tokenId",
          "type": "uint256"
        }
      ],
      "name": "getApproved",
      "outputs": [
        {
          "internalType": "address",
          "name": "",
          "type": "address"
        }
      ],
      "stateMutability": "view",
      "type": "function"
    },
    {
      "inputs": [],
      "name": "getCurrentToken",
      "outputs": [
        {
          "internalType": "uint256",
          "name": "",
          "type": "uint256"
        }
      ],
      "stateMutability": "view",
      "type": "function"
    },
    {
      "inputs": [],
      "name": "getLatestIdToListedToken",
      "outputs": [
        {
          "components": [
            {
              "internalType": "uint256",
              "name": "tokenId",
              "type": "uint256"
            },
            {
              "internalType": "address payable",
              "name": "owner",
              "type": "address"
            },
            {
              "internalType": "address payable",
              "name": "seller",
              "type": "address"
            },
            {
              "internalType": "uint256",
              "name": "price",
              "type": "uint256"
            },
            {
              "internalType": "bool",
              "name": "currentlyListed",
              "type": "bool"
            }
          ],
          "internalType": "struct NFTMarketplace.ListedToken",
          "name": "",
          "type": "tuple"
        }
      ],
      "stateMutability": "view",
      "type": "function"
    },
    {
      "inputs": [],
      "name": "getListPrice",
      "outputs": [
        {
          "internalType": "uint256",
          "name": "",
          "type": "uint256"
        }
      ],
      "stateMutability": "view",
      "type": "function"
    },
    {
      "inputs": [
        {
          "internalType": "uint256",
          "name": "tokenId",
          "type": "uint256"
        }
      ],
      "name": "getListedTokenForId",
      "outputs": [
        {
          "components": [
            {
              "internalType": "uint256",
              "name": "tokenId",
              "type": "uint256"
            },
            {
              "internalType": "address payable",
              "name": "owner",
              "type": "address"
            },
            {
              "internalType": "address payable",
              "name": "seller",
              "type": "address"
            },
            {
              "internalType": "uint256",
              "name": "price",
              "type": "uint256"
            },
            {
              "internalType": "bool",
              "name": "currentlyListed",
              "type": "bool"
            }
          ],
          "internalType": "struct NFTMarketplace.ListedToken",
          "name": "",
          "type": "tuple"
        }
      ],
      "stateMutability": "view",
      "type": "function"
    },
    {
      "inputs": [],
      "name": "getMyNFTs",
      "outputs": [
        {
          "components": [
            {
              "internalType": "uint256",
              "name": "tokenId",
              "type": "uint256"
            },
            {
              "internalType": "address payable",
              "name": "owner",
              "type": "address"
            },
            {
              "internalType": "address payable",
              "name": "seller",
              "type": "address"
            },
            {
              "internalType": "uint256",
              "name": "price",
              "type": "uint256"
            },
            {
              "internalType": "bool",
              "name": "currentlyListed",
              "type": "bool"
            }
          ],
          "internalType": "struct NFTMarketplace.ListedToken[]",
          "name": "",
          "type": "tuple[]"
        }
      ],
      "stateMutability": "view",
      "type": "function"
    },
    {
      "inputs": [],
      "name": "get_owner",
      "outputs": [
        {
          "internalType": "address",
          "name": "",
          "type": "address"
        }
      ],
      "stateMutability": "view",
      "type": "function"
    },
    {
      "inputs": [
        {
          "internalType": "address",
          "name": "owner",
          "type": "address"
        },
        {
          "internalType": "address",
          "name": "operator",
          "type": "address"
        }
      ],
      "name": "isApprovedForAll",
      "outputs": [
        {
          "internalType": "bool",
          "name": "",
          "type": "bool"
        }
      ],
      "stateMutability": "view",
      "type": "function"
    },
    {
      "inputs": [],
      "name": "name",
      "outputs": [
        {
          "internalType": "string",
          "name": "",
          "type": "string"
        }
      ],
      "stateMutability": "view",
      "type": "function"
    },
    {
      "inputs": [
        {
          "internalType": "uint256",
          "name": "tokenId",
          "type": "uint256"
        }
      ],
      "name": "ownerOf",
      "outputs": [
        {
          "internalType": "address",
          "name": "",
          "type": "address"
        }
      ],
      "stateMutability": "view",
      "type": "function"
    },
    {
      "inputs": [
        {
          "internalType": "address",
          "name": "from",
          "type": "address"
        },
        {
          "internalType": "address",
          "name": "to",
          "type": "address"
        },
        {
          "internalType": "uint256",
          "name": "tokenId",
          "type": "uint256"
        }
      ],
      "name": "safeTransferFrom",
      "outputs": [],
      "stateMutability": "nonpayable",
      "type": "function"
    },
    {
      "inputs": [
        {
          "internalType": "address",
          "name": "from",
          "type": "address"
        },
        {
          "internalType": "address",
          "name": "to",
          "type": "address"
        },
        {
          "internalType": "uint256",
          "name": "tokenId",
          "type": "uint256"
        },
        {
          "internalType": "bytes",
          "name": "data",
          "type": "bytes"
        }
      ],
      "name": "safeTransferFrom",
      "outputs": [],
      "stateMutability": "nonpayable",
      "type": "function"
    },
    {
      "inputs": [
        {
          "internalType": "address",
          "name": "operator",
          "type": "address"
        },
        {
          "internalType": "bool",
          "name": "approved",
          "type": "bool"
        }
      ],
      "name": "setApprovalForAll",
      "outputs": [],
      "stateMutability": "nonpayable",
      "type": "function"
    },
    {
      "inputs": [
        {
          "internalType": "bytes4",
          "name": "interfaceId",
          "type": "bytes4"
        }
      ],
      "name": "supportsInterface",
      "outputs": [
        {
          "internalType": "bool",
          "name": "",
          "type": "bool"
        }
      ],
      "stateMutability": "view",
      "type": "function"
    },
    {
      "inputs": [],
      "name": "symbol",
      "outputs": [
        {
          "internalType": "string",
          "name": "",
          "type": "string"
        }
      ],
      "stateMutability": "view",
      "type": "function"
    },
    {
      "inputs": [
        {
          "internalType": "uint256",
          "name": "tokenId",
          "type": "uint256"
        }
      ],
      "name": "tokenURI",
      "outputs": [
        {
          "internalType": "string",
          "name": "",
          "type": "string"
        }
      ],
      "stateMutability": "view",
      "type": "function"
    },
    {
      "inputs": [
        {
          "internalType": "address",
          "name": "from",
          "type": "address"
        },
        {
          "internalType": "address",
          "name": "to",
          "type": "address"
        },
        {
          "internalType": "uint256",
          "name": "tokenId",
          "type": "uint256"
        }
      ],
      "name": "transferFrom",
      "outputs": [],
      "stateMutability": "nonpayable",
      "type": "function"
    },
    {
      "inputs": [
        {
          "internalType": "uint256",
          "name": "_listPrice",
          "type": "uint256"
        }
      ],
      "name": "updateListPrice",
      "outputs": [],
      "stateMutability": "payable",
      "type": "function"
    }
  ],
  "bytecode": "0x6080604052662386f26fc10000600a553480156200001c57600080fd5b506040516200477d3803806200477d8339818101604052810190620000429190620001c7565b6040518060400160405280600e81526020017f4e46544d61726b6574706c6163650000000000000000000000000000000000008152506040518060400160405280600481526020017f4e46544d000000000000000000000000000000000000000000000000000000008152508160009081620000bf919062000473565b508060019081620000d1919062000473565b50505033600960006101000a81548173ffffffffffffffffffffffffffffffffffffffff021916908373ffffffffffffffffffffffffffffffffffffffff16021790555080600b60006101000a81548173ffffffffffffffffffffffffffffffffffffffff021916908373ffffffffffffffffffffffffffffffffffffffff160217905550506200055a565b600080fd5b600073ffffffffffffffffffffffffffffffffffffffff82169050919050565b60006200018f8262000162565b9050919050565b620001a18162000182565b8114620001ad57600080fd5b50565b600081519050620001c18162000196565b92915050565b600060208284031215620001e057620001df6200015d565b5b6000620001f084828501620001b0565b91505092915050565b600081519050919050565b7f4e487b7100000000000000000000000000000000000000000000000000000000600052604160045260246000fd5b7f4e487b7100000000000000000000000000000000000000000000000000000000600052602260045260246000fd5b600060028204905060018216806200027b57607f821691505b60208210810362000291576200029062000233565b5b50919050565b60008190508160005260206000209050919050565b60006020601f8301049050919050565b600082821b905092915050565b600060088302620002fb7fffffffffffffffffffffffffffffffffffffffffffffffffffffffffffffffff82620002bc565b620003078683620002bc565b95508019841693508086168417925050509392505050565b6000819050919050565b6000819050919050565b6000620003546200034e62000348846200031f565b62000329565b6200031f565b9050919050565b6000819050919050565b620003708362000333565b620003886200037f826200035b565b848454620002c9565b825550505050565b600090565b6200039f62000390565b620003ac81848462000365565b505050565b5b81811015620003d457620003c860008262000395565b600181019050620003b2565b5050565b601f8211156200042357620003ed8162000297565b620003f884620002ac565b8101602085101562000408578190505b620004206200041785620002ac565b830182620003b1565b50505b505050565b600082821c905092915050565b6000620004486000198460080262000428565b1980831691505092915050565b600062000463838362000435565b9150826002028217905092915050565b6200047e82620001f9565b67ffffffffffffffff8111156200049a576200049962000204565b5b620004a6825462000262565b620004b3828285620003d8565b600060209050601f831160018114620004eb5760008415620004d6578287015190505b620004e2858262000455565b86555062000552565b601f198416620004fb8662000297565b60005b828110156200052557848901518255600182019150602085019450602081019050620004fe565b8683101562000545578489015162000541601f89168262000435565b8355505b6001600288020188555050505b505050505050565b614213806200056a6000396000f3fe6080604052600436106101405760003560e01c806372b3b620116100b6578063c322579c1161006f578063c322579c14610452578063c87b56dd1461046e578063d1a88ae5146104ab578063e0391b09146104d6578063e985e9c514610501578063ef2d17461461053e57610140565b806372b3b620146103605780638e2645901461037c57806395d89b41146103b95780639b1225c4146103e4578063a22cb46514610400578063b88d4fde1461042957610140565b806323b872dd1161010857806323b872dd1461023e57806342842e0e14610267578063629cb2e4146102905780636352211e146102bb57806368f1945f146102f857806370a082311461032357610140565b806301ffc9a71461014557806306fdde0314610182578063081812fc146101ad578063095ea7b3146101ea5780630ac298dc14610213575b600080fd5b34801561015157600080fd5b5061016c60048036038101906101679190612b4d565b610569565b6040516101799190612b95565b60405180910390f35b34801561018e57600080fd5b506101976105ca565b6040516101a49190612c40565b60405180910390f35b3480156101b957600080fd5b506101d460048036038101906101cf9190612c98565b61065c565b6040516101e19190612d06565b60405180910390f35b3480156101f657600080fd5b50610211600480360381019061020c9190612d4d565b6106a2565b005b34801561021f57600080fd5b506102286107b9565b6040516102359190612d06565b60405180910390f35b34801561024a57600080fd5b5061026560048036038101906102609190612d8d565b6107e3565b005b34801561027357600080fd5b5061028e60048036038101906102899190612d8d565b610843565b005b34801561029c57600080fd5b506102a5610863565b6040516102b29190612f36565b60405180910390f35b3480156102c757600080fd5b506102e260048036038101906102dd9190612c98565b610c44565b6040516102ef9190612d06565b60405180910390f35b34801561030457600080fd5b5061030d610cca565b60405161031a9190612f67565b60405180910390f35b34801561032f57600080fd5b5061034a60048036038101906103459190612f82565b610cd4565b6040516103579190612f67565b60405180910390f35b61037a600480360381019061037591906130e4565b610d8b565b005b34801561038857600080fd5b506103a3600480360381019061039e9190612c98565b610e04565b6040516103b091906131a8565b60405180910390f35b3480156103c557600080fd5b506103ce610f0c565b6040516103db9190612c40565b60405180910390f35b6103fe60048036038101906103f99190612c98565b610f9e565b005b34801561040c57600080fd5b50610427600480360381019061042291906131ef565b61122f565b005b34801561043557600080fd5b50610450600480360381019061044b91906132d0565b611245565b005b61046c60048036038101906104679190612c98565b6112a7565b005b34801561047a57600080fd5b5061049560048036038101906104909190612c98565b611341565b6040516104a29190612c40565b60405180910390f35b3480156104b757600080fd5b506104c0611453565b6040516104cd91906131a8565b60405180910390f35b3480156104e257600080fd5b506104eb611568565b6040516104f89190612f36565b60405180910390f35b34801561050d57600080fd5b5061052860048036038101906105239190613353565b61173a565b6040516105359190612b95565b60405180910390f35b34801561054a57600080fd5b506105536117ce565b6040516105609190612f67565b60405180910390f35b6000634906490660e01b7bffffffffffffffffffffffffffffffffffffffffffffffffffffffff1916827bffffffffffffffffffffffffffffffffffffffffffffffffffffffff191614806105c357506105c2826117df565b5b9050919050565b6060600080546105d9906133c2565b80601f0160208091040260200160405190810160405280929190818152602001828054610605906133c2565b80156106525780601f1061062757610100808354040283529160200191610652565b820191906000526020600020905b81548152906001019060200180831161063557829003601f168201915b5050505050905090565b6000610667826118c1565b6004600083815260200190815260200160002060009054906101000a900473ffffffffffffffffffffffffffffffffffffffff169050919050565b60006106ad82610c44565b90508073ffffffffffffffffffffffffffffffffffffffff168373ffffffffffffffffffffffffffffffffffffffff160361071d576040517f08c379a000000000000000000000000000000000000000000000000000000000815260040161071490613465565b60405180910390fd5b8073ffffffffffffffffffffffffffffffffffffffff1661073c61190c565b73ffffffffffffffffffffffffffffffffffffffff16148061076b575061076a8161076561190c565b61173a565b5b6107aa576040517f08c379a00000000000000000000000000000000000000000000000000000000081526004016107a1906134f7565b60405180910390fd5b6107b48383611914565b505050565b6000600960009054906101000a900473ffffffffffffffffffffffffffffffffffffffff16905090565b6107f46107ee61190c565b826119cd565b610833576040517f08c379a000000000000000000000000000000000000000000000000000000000815260040161082a90613589565b60405180910390fd5b61083e838383611a62565b505050565b61085e83838360405180602001604052806000815250611245565b505050565b606060006108716007611d5b565b9050600080600080600090505b84811015610997573373ffffffffffffffffffffffffffffffffffffffff16600c60006001846108ae91906135d8565b815260200190815260200160002060010160009054906101000a900473ffffffffffffffffffffffffffffffffffffffff1673ffffffffffffffffffffffffffffffffffffffff16148061096f57503373ffffffffffffffffffffffffffffffffffffffff16600c600060018461092591906135d8565b815260200190815260200160002060020160009054906101000a900473ffffffffffffffffffffffffffffffffffffffff1673ffffffffffffffffffffffffffffffffffffffff16145b156109845760018461098191906135d8565b93505b808061098f9061360c565b91505061087e565b5060008367ffffffffffffffff8111156109b4576109b3612fb9565b5b6040519080825280602002602001820160405280156109ed57816020015b6109da612a84565b8152602001906001900390816109d25790505b50905060005b85811015610c38573373ffffffffffffffffffffffffffffffffffffffff16600c6000600184610a2391906135d8565b815260200190815260200160002060010160009054906101000a900473ffffffffffffffffffffffffffffffffffffffff1673ffffffffffffffffffffffffffffffffffffffff161480610ae457503373ffffffffffffffffffffffffffffffffffffffff16600c6000600184610a9a91906135d8565b815260200190815260200160002060020160009054906101000a900473ffffffffffffffffffffffffffffffffffffffff1673ffffffffffffffffffffffffffffffffffffffff16145b15610c2557600181610af691906135d8565b92506000600c60008581526020019081526020016000209050806040518060a0016040529081600082015481526020016001820160009054906101000a900473ffffffffffffffffffffffffffffffffffffffff1673ffffffffffffffffffffffffffffffffffffffff1673ffffffffffffffffffffffffffffffffffffffff1681526020016002820160009054906101000a900473ffffffffffffffffffffffffffffffffffffffff1673ffffffffffffffffffffffffffffffffffffffff1673ffffffffffffffffffffffffffffffffffffffff168152602001600382015481526020016004820160009054906101000a900460ff161515151581525050838681518110610c0957610c08613654565b5b6020026020010181905250600185610c2191906135d8565b9450505b8080610c309061360c565b9150506109f3565b50809550505050505090565b600080610c5083611d69565b9050600073ffffffffffffffffffffffffffffffffffffffff168173ffffffffffffffffffffffffffffffffffffffff1603610cc1576040517f08c379a0000000000000000000000000000000000000000000000000000000008152600401610cb8906136cf565b60405180910390fd5b80915050919050565b6000600a54905090565b60008073ffffffffffffffffffffffffffffffffffffffff168273ffffffffffffffffffffffffffffffffffffffff1603610d44576040517f08c379a0000000000000000000000000000000000000000000000000000000008152600401610d3b90613761565b60405180910390fd5b600360008373ffffffffffffffffffffffffffffffffffffffff1673ffffffffffffffffffffffffffffffffffffffff168152602001908152602001600020549050919050565b610dc96040518060400160405280600b81526020017f637265617465546f6b656e000000000000000000000000000000000000000000815250611da6565b6000610dd56007611d5b565b9050610de16007611e3f565b610deb3382611e55565b610df58184611e73565b610dff8183611f17565b505050565b610e0c612a84565b600c60008381526020019081526020016000206040518060a0016040529081600082015481526020016001820160009054906101000a900473ffffffffffffffffffffffffffffffffffffffff1673ffffffffffffffffffffffffffffffffffffffff1673ffffffffffffffffffffffffffffffffffffffff1681526020016002820160009054906101000a900473ffffffffffffffffffffffffffffffffffffffff1673ffffffffffffffffffffffffffffffffffffffff1673ffffffffffffffffffffffffffffffffffffffff168152602001600382015481526020016004820160009054906101000a900460ff1615151515815250509050919050565b606060018054610f1b906133c2565b80601f0160208091040260200160405190810160405280929190818152602001828054610f47906133c2565b8015610f945780601f10610f6957610100808354040283529160200191610f94565b820191906000526020600020905b815481529060010190602001808311610f7757829003601f168201915b5050505050905090565b6000600c60008381526020019081526020016000206003015490506000600c600084815260200190815260200160002060020160009054906101000a900473ffffffffffffffffffffffffffffffffffffffff169050600b60009054906101000a900473ffffffffffffffffffffffffffffffffffffffff1673ffffffffffffffffffffffffffffffffffffffff166323b872dd3330856040518463ffffffff1660e01b815260040161105393929190613781565b6020604051808303816000875af1158015611072573d6000803e3d6000fd5b505050506040513d601f19601f8201168201806040525081019061109691906137cd565b6110d5576040517f08c379a00000000000000000000000000000000000000000000000000000000081526004016110cc90613846565b60405180910390fd5b6001600c600085815260200190815260200160002060040160006101000a81548160ff02191690831515021790555033600c600085815260200190815260200160002060020160006101000a81548173ffffffffffffffffffffffffffffffffffffffff021916908373ffffffffffffffffffffffffffffffffffffffff1602179055506111636008611e3f565b61116e303385611a62565b61117833846106a2565b600960009054906101000a900473ffffffffffffffffffffffffffffffffffffffff1673ffffffffffffffffffffffffffffffffffffffff166108fc600a549081150290604051600060405180830381858888f193505050501580156111e2573d6000803e3d6000fd5b508073ffffffffffffffffffffffffffffffffffffffff166108fc839081150290604051600060405180830381858888f19350505050158015611229573d6000803e3d6000fd5b50505050565b61124161123a61190c565b838361211a565b5050565b61125661125061190c565b836119cd565b611295576040517f08c379a000000000000000000000000000000000000000000000000000000000815260040161128c90613589565b60405180910390fd5b6112a184848484612286565b50505050565b3373ffffffffffffffffffffffffffffffffffffffff16600960009054906101000a900473ffffffffffffffffffffffffffffffffffffffff1673ffffffffffffffffffffffffffffffffffffffff1614611337576040517f08c379a000000000000000000000000000000000000000000000000000000000815260040161132e906138d8565b60405180910390fd5b80600a8190555050565b606061134c826118c1565b600060066000848152602001908152602001600020805461136c906133c2565b80601f0160208091040260200160405190810160405280929190818152602001828054611398906133c2565b80156113e55780601f106113ba576101008083540402835291602001916113e5565b820191906000526020600020905b8154815290600101906020018083116113c857829003601f168201915b5050505050905060006113f66122e2565b9050600081510361140b57819250505061144e565b600082511115611440578082604051602001611428929190613934565b6040516020818303038152906040529250505061144e565b611449846122f9565b925050505b919050565b61145b612a84565b60006114676007611d5b565b9050600c60008281526020019081526020016000206040518060a0016040529081600082015481526020016001820160009054906101000a900473ffffffffffffffffffffffffffffffffffffffff1673ffffffffffffffffffffffffffffffffffffffff1673ffffffffffffffffffffffffffffffffffffffff1681526020016002820160009054906101000a900473ffffffffffffffffffffffffffffffffffffffff1673ffffffffffffffffffffffffffffffffffffffff1673ffffffffffffffffffffffffffffffffffffffff168152602001600382015481526020016004820160009054906101000a900460ff16151515158152505091505090565b606060006115766007611d5b565b905060008167ffffffffffffffff81111561159457611593612fb9565b5b6040519080825280602002602001820160405280156115cd57816020015b6115ba612a84565b8152602001906001900390816115b25790505b50905060008080600090505b8481101561172f576001816115ee91906135d8565b91506000600c60008481526020019081526020016000209050806040518060a0016040529081600082015481526020016001820160009054906101000a900473ffffffffffffffffffffffffffffffffffffffff1673ffffffffffffffffffffffffffffffffffffffff1673ffffffffffffffffffffffffffffffffffffffff1681526020016002820160009054906101000a900473ffffffffffffffffffffffffffffffffffffffff1673ffffffffffffffffffffffffffffffffffffffff1673ffffffffffffffffffffffffffffffffffffffff168152602001600382015481526020016004820160009054906101000a900460ff16151515158152505085858151811061170157611700613654565b5b602002602001018190525060018461171991906135d8565b93505080806117279061360c565b9150506115d9565b508294505050505090565b6000600560008473ffffffffffffffffffffffffffffffffffffffff1673ffffffffffffffffffffffffffffffffffffffff16815260200190815260200160002060008373ffffffffffffffffffffffffffffffffffffffff1673ffffffffffffffffffffffffffffffffffffffff16815260200190815260200160002060009054906101000a900460ff16905092915050565b60006117da6007611d5b565b905090565b60007f80ac58cd000000000000000000000000000000000000000000000000000000007bffffffffffffffffffffffffffffffffffffffffffffffffffffffff1916827bffffffffffffffffffffffffffffffffffffffffffffffffffffffff191614806118aa57507f5b5e139f000000000000000000000000000000000000000000000000000000007bffffffffffffffffffffffffffffffffffffffffffffffffffffffff1916827bffffffffffffffffffffffffffffffffffffffffffffffffffffffff1916145b806118ba57506118b982612361565b5b9050919050565b6118ca816123cb565b611909576040517f08c379a0000000000000000000000000000000000000000000000000000000008152600401611900906136cf565b60405180910390fd5b50565b600033905090565b816004600083815260200190815260200160002060006101000a81548173ffffffffffffffffffffffffffffffffffffffff021916908373ffffffffffffffffffffffffffffffffffffffff160217905550808273ffffffffffffffffffffffffffffffffffffffff1661198783610c44565b73ffffffffffffffffffffffffffffffffffffffff167f8c5be1e5ebec7d5bd14f71427d1e84f3dd0314c0f7b2291e5b200ac8c7c3b92560405160405180910390a45050565b6000806119d983610c44565b90508073ffffffffffffffffffffffffffffffffffffffff168473ffffffffffffffffffffffffffffffffffffffff161480611a1b5750611a1a818561173a565b5b80611a5957508373ffffffffffffffffffffffffffffffffffffffff16611a418461065c565b73ffffffffffffffffffffffffffffffffffffffff16145b91505092915050565b8273ffffffffffffffffffffffffffffffffffffffff16611a8282610c44565b73ffffffffffffffffffffffffffffffffffffffff1614611ad8576040517f08c379a0000000000000000000000000000000000000000000000000000000008152600401611acf906139ca565b60405180910390fd5b600073ffffffffffffffffffffffffffffffffffffffff168273ffffffffffffffffffffffffffffffffffffffff1603611b47576040517f08c379a0000000000000000000000000000000000000000000000000000000008152600401611b3e90613a5c565b60405180910390fd5b611b54838383600161240c565b8273ffffffffffffffffffffffffffffffffffffffff16611b7482610c44565b73ffffffffffffffffffffffffffffffffffffffff1614611bca576040517f08c379a0000000000000000000000000000000000000000000000000000000008152600401611bc1906139ca565b60405180910390fd5b6004600082815260200190815260200160002060006101000a81549073ffffffffffffffffffffffffffffffffffffffff02191690556001600360008573ffffffffffffffffffffffffffffffffffffffff1673ffffffffffffffffffffffffffffffffffffffff168152602001908152602001600020600082825403925050819055506001600360008473ffffffffffffffffffffffffffffffffffffffff1673ffffffffffffffffffffffffffffffffffffffff16815260200190815260200160002060008282540192505081905550816002600083815260200190815260200160002060006101000a81548173ffffffffffffffffffffffffffffffffffffffff021916908373ffffffffffffffffffffffffffffffffffffffff160217905550808273ffffffffffffffffffffffffffffffffffffffff168473ffffffffffffffffffffffffffffffffffffffff167fddf252ad1be2c89b69c2b068fc378daa952ba7f163c4a11628f55a4df523b3ef60405160405180910390a4611d568383836001612412565b505050565b600081600001549050919050565b60006002600083815260200190815260200160002060009054906101000a900473ffffffffffffffffffffffffffffffffffffffff169050919050565b611e3c81604051602401611dba9190612c40565b6040516020818303038152906040527f41304fac000000000000000000000000000000000000000000000000000000007bffffffffffffffffffffffffffffffffffffffffffffffffffffffff19166020820180517bffffffffffffffffffffffffffffffffffffffffffffffffffffffff8381831617835250505050612418565b50565b6001816000016000828254019250508190555050565b611e6f828260405180602001604052806000815250612441565b5050565b611e7c826123cb565b611ebb576040517f08c379a0000000000000000000000000000000000000000000000000000000008152600401611eb290613aee565b60405180910390fd5b80600660008481526020019081526020016000209081611edb9190613cba565b507ff8e1a15aba9398e019f0b49df1a4fde98ee17ae345cb5f6b5e2c27f5033e8ce782604051611f0b9190612f67565b60405180910390a15050565b600a543414611f5b576040517f08c379a0000000000000000000000000000000000000000000000000000000008152600401611f5290613dfe565b60405180910390fd5b60008111611f9e576040517f08c379a0000000000000000000000000000000000000000000000000000000008152600401611f9590613e90565b60405180910390fd5b6040518060a001604052808381526020013073ffffffffffffffffffffffffffffffffffffffff1681526020013373ffffffffffffffffffffffffffffffffffffffff16815260200182815260200160011515815250600c60008481526020019081526020016000206000820151816000015560208201518160010160006101000a81548173ffffffffffffffffffffffffffffffffffffffff021916908373ffffffffffffffffffffffffffffffffffffffff16021790555060408201518160020160006101000a81548173ffffffffffffffffffffffffffffffffffffffff021916908373ffffffffffffffffffffffffffffffffffffffff1602179055506060820151816003015560808201518160040160006101000a81548160ff0219169083151502179055509050506120d7333084611a62565b817f9339409317fd01fabff48b703019016f49159bacc801ae872d2ca637d226e4c0303384600160405161210e9493929190613eb0565b60405180910390a25050565b8173ffffffffffffffffffffffffffffffffffffffff168373ffffffffffffffffffffffffffffffffffffffff1603612188576040517f08c379a000000000000000000000000000000000000000000000000000000000815260040161217f90613f41565b60405180910390fd5b80600560008573ffffffffffffffffffffffffffffffffffffffff1673ffffffffffffffffffffffffffffffffffffffff16815260200190815260200160002060008473ffffffffffffffffffffffffffffffffffffffff1673ffffffffffffffffffffffffffffffffffffffff16815260200190815260200160002060006101000a81548160ff0219169083151502179055508173ffffffffffffffffffffffffffffffffffffffff168373ffffffffffffffffffffffffffffffffffffffff167f17307eab39ab6107e8899845ad3d59bd9653f200f220920489ca2b5937696c31836040516122799190612b95565b60405180910390a3505050565b612291848484611a62565b61229d8484848461249c565b6122dc576040517f08c379a00000000000000000000000000000000000000000000000000000000081526004016122d390613fd3565b60405180910390fd5b50505050565b606060405180602001604052806000815250905090565b6060612304826118c1565b600061230e6122e2565b9050600081511161232e5760405180602001604052806000815250612359565b8061233884612623565b604051602001612349929190613934565b6040516020818303038152906040525b915050919050565b60007f01ffc9a7000000000000000000000000000000000000000000000000000000007bffffffffffffffffffffffffffffffffffffffffffffffffffffffff1916827bffffffffffffffffffffffffffffffffffffffffffffffffffffffff1916149050919050565b60008073ffffffffffffffffffffffffffffffffffffffff166123ed83611d69565b73ffffffffffffffffffffffffffffffffffffffff1614159050919050565b50505050565b50505050565b60008151905060006a636f6e736f6c652e6c6f679050602083016000808483855afa5050505050565b61244b83836126f1565b612458600084848461249c565b612497576040517f08c379a000000000000000000000000000000000000000000000000000000000815260040161248e90613fd3565b60405180910390fd5b505050565b60006124bd8473ffffffffffffffffffffffffffffffffffffffff1661290e565b15612616578373ffffffffffffffffffffffffffffffffffffffff1663150b7a026124e661190c565b8786866040518563ffffffff1660e01b81526004016125089493929190614048565b6020604051808303816000875af192505050801561254457506040513d601f19601f8201168201806040525081019061254191906140a9565b60015b6125c6573d8060008114612574576040519150601f19603f3d011682016040523d82523d6000602084013e612579565b606091505b5060008151036125be576040517f08c379a00000000000000000000000000000000000000000000000000000000081526004016125b590613fd3565b60405180910390fd5b805181602001fd5b63150b7a0260e01b7bffffffffffffffffffffffffffffffffffffffffffffffffffffffff1916817bffffffffffffffffffffffffffffffffffffffffffffffffffffffff19161491505061261b565b600190505b949350505050565b60606000600161263284612931565b01905060008167ffffffffffffffff81111561265157612650612fb9565b5b6040519080825280601f01601f1916602001820160405280156126835781602001600182028036833780820191505090505b509050600082602001820190505b6001156126e6578080600190039150507f3031323334353637383961626364656600000000000000000000000000000000600a86061a8153600a85816126da576126d96140d6565b5b04945060008503612691575b819350505050919050565b600073ffffffffffffffffffffffffffffffffffffffff168273ffffffffffffffffffffffffffffffffffffffff1603612760576040517f08c379a000000000000000000000000000000000000000000000000000000000815260040161275790614151565b60405180910390fd5b612769816123cb565b156127a9576040517f08c379a00000000000000000000000000000000000000000000000000000000081526004016127a0906141bd565b60405180910390fd5b6127b760008383600161240c565b6127c0816123cb565b15612800576040517f08c379a00000000000000000000000000000000000000000000000000000000081526004016127f7906141bd565b60405180910390fd5b6001600360008473ffffffffffffffffffffffffffffffffffffffff1673ffffffffffffffffffffffffffffffffffffffff16815260200190815260200160002060008282540192505081905550816002600083815260200190815260200160002060006101000a81548173ffffffffffffffffffffffffffffffffffffffff021916908373ffffffffffffffffffffffffffffffffffffffff160217905550808273ffffffffffffffffffffffffffffffffffffffff16600073ffffffffffffffffffffffffffffffffffffffff167fddf252ad1be2c89b69c2b068fc378daa952ba7f163c4a11628f55a4df523b3ef60405160405180910390a461290a600083836001612412565b5050565b6000808273ffffffffffffffffffffffffffffffffffffffff163b119050919050565b600080600090507a184f03e93ff9f4daa797ed6e38ed64bf6a1f010000000000000000831061298f577a184f03e93ff9f4daa797ed6e38ed64bf6a1f0100000000000000008381612985576129846140d6565b5b0492506040810190505b6d04ee2d6d415b85acef810000000083106129cc576d04ee2d6d415b85acef810000000083816129c2576129c16140d6565b5b0492506020810190505b662386f26fc1000083106129fb57662386f26fc1000083816129f1576129f06140d6565b5b0492506010810190505b6305f5e1008310612a24576305f5e1008381612a1a57612a196140d6565b5b0492506008810190505b6127108310612a49576127108381612a3f57612a3e6140d6565b5b0492506004810190505b60648310612a6c5760648381612a6257612a616140d6565b5b0492506002810190505b600a8310612a7b576001810190505b80915050919050565b6040518060a0016040528060008152602001600073ffffffffffffffffffffffffffffffffffffffff168152602001600073ffffffffffffffffffffffffffffffffffffffff168152602001600081526020016000151581525090565b6000604051905090565b600080fd5b600080fd5b60007fffffffff0000000000000000000000000000000000000000000000000000000082169050919050565b612b2a81612af5565b8114612b3557600080fd5b50565b600081359050612b4781612b21565b92915050565b600060208284031215612b6357612b62612aeb565b5b6000612b7184828501612b38565b91505092915050565b60008115159050919050565b612b8f81612b7a565b82525050565b6000602082019050612baa6000830184612b86565b92915050565b600081519050919050565b600082825260208201905092915050565b60005b83811015612bea578082015181840152602081019050612bcf565b60008484015250505050565b6000601f19601f8301169050919050565b6000612c1282612bb0565b612c1c8185612bbb565b9350612c2c818560208601612bcc565b612c3581612bf6565b840191505092915050565b60006020820190508181036000830152612c5a8184612c07565b905092915050565b6000819050919050565b612c7581612c62565b8114612c8057600080fd5b50565b600081359050612c9281612c6c565b92915050565b600060208284031215612cae57612cad612aeb565b5b6000612cbc84828501612c83565b91505092915050565b600073ffffffffffffffffffffffffffffffffffffffff82169050919050565b6000612cf082612cc5565b9050919050565b612d0081612ce5565b82525050565b6000602082019050612d1b6000830184612cf7565b92915050565b612d2a81612ce5565b8114612d3557600080fd5b50565b600081359050612d4781612d21565b92915050565b60008060408385031215612d6457612d63612aeb565b5b6000612d7285828601612d38565b9250506020612d8385828601612c83565b9150509250929050565b600080600060608486031215612da657612da5612aeb565b5b6000612db486828701612d38565b9350506020612dc586828701612d38565b9250506040612dd686828701612c83565b9150509250925092565b600081519050919050565b600082825260208201905092915050565b6000819050602082019050919050565b612e1581612c62565b82525050565b6000612e2682612cc5565b9050919050565b612e3681612e1b565b82525050565b612e4581612b7a565b82525050565b60a082016000820151612e616000850182612e0c565b506020820151612e746020850182612e2d565b506040820151612e876040850182612e2d565b506060820151612e9a6060850182612e0c565b506080820151612ead6080850182612e3c565b50505050565b6000612ebf8383612e4b565b60a08301905092915050565b6000602082019050919050565b6000612ee382612de0565b612eed8185612deb565b9350612ef883612dfc565b8060005b83811015612f29578151612f108882612eb3565b9750612f1b83612ecb565b925050600181019050612efc565b5085935050505092915050565b60006020820190508181036000830152612f508184612ed8565b905092915050565b612f6181612c62565b82525050565b6000602082019050612f7c6000830184612f58565b92915050565b600060208284031215612f9857612f97612aeb565b5b6000612fa684828501612d38565b91505092915050565b600080fd5b600080fd5b7f4e487b7100000000000000000000000000000000000000000000000000000000600052604160045260246000fd5b612ff182612bf6565b810181811067ffffffffffffffff821117156130105761300f612fb9565b5b80604052505050565b6000613023612ae1565b905061302f8282612fe8565b919050565b600067ffffffffffffffff82111561304f5761304e612fb9565b5b61305882612bf6565b9050602081019050919050565b82818337600083830152505050565b600061308761308284613034565b613019565b9050828152602081018484840111156130a3576130a2612fb4565b5b6130ae848285613065565b509392505050565b600082601f8301126130cb576130ca612faf565b5b81356130db848260208601613074565b91505092915050565b600080604083850312156130fb576130fa612aeb565b5b600083013567ffffffffffffffff81111561311957613118612af0565b5b613125858286016130b6565b925050602061313685828601612c83565b9150509250929050565b60a0820160008201516131566000850182612e0c565b5060208201516131696020850182612e2d565b50604082015161317c6040850182612e2d565b50606082015161318f6060850182612e0c565b5060808201516131a26080850182612e3c565b50505050565b600060a0820190506131bd6000830184613140565b92915050565b6131cc81612b7a565b81146131d757600080fd5b50565b6000813590506131e9816131c3565b92915050565b6000806040838503121561320657613205612aeb565b5b600061321485828601612d38565b9250506020613225858286016131da565b9150509250929050565b600067ffffffffffffffff82111561324a57613249612fb9565b5b61325382612bf6565b9050602081019050919050565b600061327361326e8461322f565b613019565b90508281526020810184848401111561328f5761328e612fb4565b5b61329a848285613065565b509392505050565b600082601f8301126132b7576132b6612faf565b5b81356132c7848260208601613260565b91505092915050565b600080600080608085870312156132ea576132e9612aeb565b5b60006132f887828801612d38565b945050602061330987828801612d38565b935050604061331a87828801612c83565b925050606085013567ffffffffffffffff81111561333b5761333a612af0565b5b613347878288016132a2565b91505092959194509250565b6000806040838503121561336a57613369612aeb565b5b600061337885828601612d38565b925050602061338985828601612d38565b9150509250929050565b7f4e487b7100000000000000000000000000000000000000000000000000000000600052602260045260246000fd5b600060028204905060018216806133da57607f821691505b6020821081036133ed576133ec613393565b5b50919050565b7f4552433732313a20617070726f76616c20746f2063757272656e74206f776e6560008201527f7200000000000000000000000000000000000000000000000000000000000000602082015250565b600061344f602183612bbb565b915061345a826133f3565b604082019050919050565b6000602082019050818103600083015261347e81613442565b9050919050565b7f4552433732313a20617070726f76652063616c6c6572206973206e6f7420746f60008201527f6b656e206f776e6572206f7220617070726f76656420666f7220616c6c000000602082015250565b60006134e1603d83612bbb565b91506134ec82613485565b604082019050919050565b60006020820190508181036000830152613510816134d4565b9050919050565b7f4552433732313a2063616c6c6572206973206e6f7420746f6b656e206f776e6560008201527f72206f7220617070726f76656400000000000000000000000000000000000000602082015250565b6000613573602d83612bbb565b915061357e82613517565b604082019050919050565b600060208201905081810360008301526135a281613566565b9050919050565b7f4e487b7100000000000000000000000000000000000000000000000000000000600052601160045260246000fd5b60006135e382612c62565b91506135ee83612c62565b9250828201905080821115613606576136056135a9565b5b92915050565b600061361782612c62565b91507fffffffffffffffffffffffffffffffffffffffffffffffffffffffffffffffff8203613649576136486135a9565b5b600182019050919050565b7f4e487b7100000000000000000000000000000000000000000000000000000000600052603260045260246000fd5b7f4552433732313a20696e76616c696420746f6b656e2049440000000000000000600082015250565b60006136b9601883612bbb565b91506136c482613683565b602082019050919050565b600060208201905081810360008301526136e8816136ac565b9050919050565b7f4552433732313a2061646472657373207a65726f206973206e6f74206120766160008201527f6c6964206f776e65720000000000000000000000000000000000000000000000602082015250565b600061374b602983612bbb565b9150613756826136ef565b604082019050919050565b6000602082019050818103600083015261377a8161373e565b9050919050565b60006060820190506137966000830186612cf7565b6137a36020830185612cf7565b6137b06040830184612f58565b949350505050565b6000815190506137c7816131c3565b92915050565b6000602082840312156137e3576137e2612aeb565b5b60006137f1848285016137b8565b91505092915050565b7f546f6b656e207472616e73666572206661696c65640000000000000000000000600082015250565b6000613830601583612bbb565b915061383b826137fa565b602082019050919050565b6000602082019050818103600083015261385f81613823565b9050919050565b7f4f6e6c79206f776e65722063616e20757064617465206c697374696e6720707260008201527f6963650000000000000000000000000000000000000000000000000000000000602082015250565b60006138c2602383612bbb565b91506138cd82613866565b604082019050919050565b600060208201905081810360008301526138f1816138b5565b9050919050565b600081905092915050565b600061390e82612bb0565b61391881856138f8565b9350613928818560208601612bcc565b80840191505092915050565b60006139408285613903565b915061394c8284613903565b91508190509392505050565b7f4552433732313a207472616e736665722066726f6d20696e636f72726563742060008201527f6f776e6572000000000000000000000000000000000000000000000000000000602082015250565b60006139b4602583612bbb565b91506139bf82613958565b604082019050919050565b600060208201905081810360008301526139e3816139a7565b9050919050565b7f4552433732313a207472616e7366657220746f20746865207a65726f2061646460008201527f7265737300000000000000000000000000000000000000000000000000000000602082015250565b6000613a46602483612bbb565b9150613a51826139ea565b604082019050919050565b60006020820190508181036000830152613a7581613a39565b9050919050565b7f45524337323155524953746f726167653a2055524920736574206f66206e6f6e60008201527f6578697374656e7420746f6b656e000000000000000000000000000000000000602082015250565b6000613ad8602e83612bbb565b9150613ae382613a7c565b604082019050919050565b60006020820190508181036000830152613b0781613acb565b9050919050565b60008190508160005260206000209050919050565b60006020601f8301049050919050565b600082821b905092915050565b600060088302613b707fffffffffffffffffffffffffffffffffffffffffffffffffffffffffffffffff82613b33565b613b7a8683613b33565b95508019841693508086168417925050509392505050565b6000819050919050565b6000613bb7613bb2613bad84612c62565b613b92565b612c62565b9050919050565b6000819050919050565b613bd183613b9c565b613be5613bdd82613bbe565b848454613b40565b825550505050565b600090565b613bfa613bed565b613c05818484613bc8565b505050565b5b81811015613c2957613c1e600082613bf2565b600181019050613c0b565b5050565b601f821115613c6e57613c3f81613b0e565b613c4884613b23565b81016020851015613c57578190505b613c6b613c6385613b23565b830182613c0a565b50505b505050565b600082821c905092915050565b6000613c9160001984600802613c73565b1980831691505092915050565b6000613caa8383613c80565b9150826002028217905092915050565b613cc382612bb0565b67ffffffffffffffff811115613cdc57613cdb612fb9565b5b613ce682546133c2565b613cf1828285613c2d565b600060209050601f831160018114613d245760008415613d12578287015190505b613d1c8582613c9e565b865550613d84565b601f198416613d3286613b0e565b60005b82811015613d5a57848901518255600182019150602085019450602081019050613d35565b86831015613d775784890151613d73601f891682613c80565b8355505b6001600288020188555050505b505050505050565b7f506c656173652073656e642074686520636f7272656374206c697374696e672060008201527f6665650000000000000000000000000000000000000000000000000000000000602082015250565b6000613de8602383612bbb565b9150613df382613d8c565b604082019050919050565b60006020820190508181036000830152613e1781613ddb565b9050919050565b7f4d616b652073757265207468652070726963652069736e2774206e656761746960008201527f7665000000000000000000000000000000000000000000000000000000000000602082015250565b6000613e7a602283612bbb565b9150613e8582613e1e565b604082019050919050565b60006020820190508181036000830152613ea981613e6d565b9050919050565b6000608082019050613ec56000830187612cf7565b613ed26020830186612cf7565b613edf6040830185612f58565b613eec6060830184612b86565b95945050505050565b7f4552433732313a20617070726f766520746f2063616c6c657200000000000000600082015250565b6000613f2b601983612bbb565b9150613f3682613ef5565b602082019050919050565b60006020820190508181036000830152613f5a81613f1e565b9050919050565b7f4552433732313a207472616e7366657220746f206e6f6e20455243373231526560008201527f63656976657220696d706c656d656e7465720000000000000000000000000000602082015250565b6000613fbd603283612bbb565b9150613fc882613f61565b604082019050919050565b60006020820190508181036000830152613fec81613fb0565b9050919050565b600081519050919050565b600082825260208201905092915050565b600061401a82613ff3565b6140248185613ffe565b9350614034818560208601612bcc565b61403d81612bf6565b840191505092915050565b600060808201905061405d6000830187612cf7565b61406a6020830186612cf7565b6140776040830185612f58565b8181036060830152614089818461400f565b905095945050505050565b6000815190506140a381612b21565b92915050565b6000602082840312156140bf576140be612aeb565b5b60006140cd84828501614094565b91505092915050565b7f4e487b7100000000000000000000000000000000000000000000000000000000600052601260045260246000fd5b7f4552433732313a206d696e7420746f20746865207a65726f2061646472657373600082015250565b600061413b602083612bbb565b915061414682614105565b602082019050919050565b6000602082019050818103600083015261416a8161412e565b9050919050565b7f4552433732313a20746f6b656e20616c7265616479206d696e74656400000000600082015250565b60006141a7601c83612bbb565b91506141b282614171565b602082019050919050565b600060208201905081810360008301526141d68161419a565b905091905056fea264697066735822122007d22c13bc05209212a547fa0d84f8feb2fa79cde7bc73436e94417df45e7ae264736f6c63430008120033",
  "linkReferences": {},
  "deployedLinkReferences": {}
}