{
  "_format": "hh-sol-artifact-1",
  "contractName": "Wibu_NFTMarketplace",
  "sourceName": "contracts/NFT_contracts_ERC721.sol",
  "abi": [
    {
      "inputs": [
        {
          "internalType": "address",
          "name": "_yourTokenAddress",
          "type": "address"
        }
      ],
      "stateMutability": "nonpayable",
      "type": "constructor"
    },
    {
      "anonymous": false,
      "inputs": [
        {
          "indexed": true,
          "internalType": "address",
          "name": "owner",
          "type": "address"
        },
        {
          "indexed": true,
          "internalType": "address",
          "name": "approved",
          "type": "address"
        },
        {
          "indexed": true,
          "internalType": "uint256",
          "name": "tokenId",
          "type": "uint256"
        }
      ],
      "name": "Approval",
      "type": "event"
    },
    {
      "anonymous": false,
      "inputs": [
        {
          "indexed": true,
          "internalType": "address",
          "name": "owner",
          "type": "address"
        },
        {
          "indexed": true,
          "internalType": "address",
          "name": "operator",
          "type": "address"
        },
        {
          "indexed": false,
          "internalType": "bool",
          "name": "approved",
          "type": "bool"
        }
      ],
      "name": "ApprovalForAll",
      "type": "event"
    },
    {
      "anonymous": false,
      "inputs": [
        {
          "indexed": false,
          "internalType": "uint256",
          "name": "_fromTokenId",
          "type": "uint256"
        },
        {
          "indexed": false,
          "internalType": "uint256",
          "name": "_toTokenId",
          "type": "uint256"
        }
      ],
      "name": "BatchMetadataUpdate",
      "type": "event"
    },
    {
      "anonymous": false,
      "inputs": [
        {
          "indexed": false,
          "internalType": "uint256",
          "name": "_tokenId",
          "type": "uint256"
        }
      ],
      "name": "MetadataUpdate",
      "type": "event"
    },
    {
      "anonymous": false,
      "inputs": [
        {
          "indexed": true,
          "internalType": "uint256",
          "name": "tokenId",
          "type": "uint256"
        },
        {
          "indexed": false,
          "internalType": "address",
          "name": "owner",
          "type": "address"
        },
        {
          "indexed": false,
          "internalType": "address",
          "name": "seller",
          "type": "address"
        },
        {
          "indexed": false,
          "internalType": "uint256",
          "name": "price",
          "type": "uint256"
        },
        {
          "indexed": false,
          "internalType": "bool",
          "name": "currentlyListed",
          "type": "bool"
        }
      ],
      "name": "TokenListedSuccess",
      "type": "event"
    },
    {
      "anonymous": false,
      "inputs": [
        {
          "indexed": true,
          "internalType": "address",
          "name": "from",
          "type": "address"
        },
        {
          "indexed": true,
          "internalType": "address",
          "name": "to",
          "type": "address"
        },
        {
          "indexed": true,
          "internalType": "uint256",
          "name": "tokenId",
          "type": "uint256"
        }
      ],
      "name": "Transfer",
      "type": "event"
    },
    {
      "inputs": [
        {
          "internalType": "address",
          "name": "to",
          "type": "address"
        },
        {
          "internalType": "uint256",
          "name": "tokenId",
          "type": "uint256"
        }
      ],
      "name": "approve",
      "outputs": [],
      "stateMutability": "nonpayable",
      "type": "function"
    },
    {
      "inputs": [
        {
          "internalType": "address",
          "name": "owner",
          "type": "address"
        }
      ],
      "name": "balanceOf",
      "outputs": [
        {
          "internalType": "uint256",
          "name": "",
          "type": "uint256"
        }
      ],
      "stateMutability": "view",
      "type": "function"
    },
    {
      "inputs": [
        {
          "internalType": "address",
          "name": "_owner",
          "type": "address"
        },
        {
          "internalType": "string",
          "name": "tokenURI",
          "type": "string"
        },
        {
          "internalType": "uint256",
          "name": "price",
          "type": "uint256"
        }
      ],
      "name": "createToken",
      "outputs": [],
      "stateMutability": "payable",
      "type": "function"
    },
    {
      "inputs": [
        {
          "internalType": "uint256",
          "name": "tokenId",
          "type": "uint256"
        }
      ],
      "name": "executeSale",
      "outputs": [],
      "stateMutability": "payable",
      "type": "function"
    },
    {
      "inputs": [],
      "name": "getAllNFTs",
      "outputs": [
        {
          "components": [
            {
              "internalType": "uint256",
              "name": "tokenId",
              "type": "uint256"
            },
            {
              "internalType": "address payable",
              "name": "owner",
              "type": "address"
            },
            {
              "internalType": "address payable",
              "name": "seller",
              "type": "address"
            },
            {
              "internalType": "uint256",
              "name": "price",
              "type": "uint256"
            },
            {
              "internalType": "bool",
              "name": "currentlyListed",
              "type": "bool"
            }
          ],
          "internalType": "struct Wibu_NFTMarketplace.ListedToken[]",
          "name": "",
          "type": "tuple[]"
        }
      ],
      "stateMutability": "view",
      "type": "function"
    },
    {
      "inputs": [
        {
          "internalType": "uint256",
          "name": "tokenId",
          "type": "uint256"
        }
      ],
      "name": "getApproved",
      "outputs": [
        {
          "internalType": "address",
          "name": "",
          "type": "address"
        }
      ],
      "stateMutability": "view",
      "type": "function"
    },
    {
      "inputs": [],
      "name": "getCurrentToken",
      "outputs": [
        {
          "internalType": "uint256",
          "name": "",
          "type": "uint256"
        }
      ],
      "stateMutability": "view",
      "type": "function"
    },
    {
      "inputs": [],
      "name": "getLatestIdToListedToken",
      "outputs": [
        {
          "components": [
            {
              "internalType": "uint256",
              "name": "tokenId",
              "type": "uint256"
            },
            {
              "internalType": "address payable",
              "name": "owner",
              "type": "address"
            },
            {
              "internalType": "address payable",
              "name": "seller",
              "type": "address"
            },
            {
              "internalType": "uint256",
              "name": "price",
              "type": "uint256"
            },
            {
              "internalType": "bool",
              "name": "currentlyListed",
              "type": "bool"
            }
          ],
          "internalType": "struct Wibu_NFTMarketplace.ListedToken",
          "name": "",
          "type": "tuple"
        }
      ],
      "stateMutability": "view",
      "type": "function"
    },
    {
      "inputs": [],
      "name": "getListPrice",
      "outputs": [
        {
          "internalType": "uint256",
          "name": "",
          "type": "uint256"
        }
      ],
      "stateMutability": "view",
      "type": "function"
    },
    {
      "inputs": [
        {
          "internalType": "uint256",
          "name": "tokenId",
          "type": "uint256"
        }
      ],
      "name": "getListedTokenForId",
      "outputs": [
        {
          "components": [
            {
              "internalType": "uint256",
              "name": "tokenId",
              "type": "uint256"
            },
            {
              "internalType": "address payable",
              "name": "owner",
              "type": "address"
            },
            {
              "internalType": "address payable",
              "name": "seller",
              "type": "address"
            },
            {
              "internalType": "uint256",
              "name": "price",
              "type": "uint256"
            },
            {
              "internalType": "bool",
              "name": "currentlyListed",
              "type": "bool"
            }
          ],
          "internalType": "struct Wibu_NFTMarketplace.ListedToken",
          "name": "",
          "type": "tuple"
        }
      ],
      "stateMutability": "view",
      "type": "function"
    },
    {
      "inputs": [],
      "name": "getMyNFTs",
      "outputs": [
        {
          "components": [
            {
              "internalType": "uint256",
              "name": "tokenId",
              "type": "uint256"
            },
            {
              "internalType": "address payable",
              "name": "owner",
              "type": "address"
            },
            {
              "internalType": "address payable",
              "name": "seller",
              "type": "address"
            },
            {
              "internalType": "uint256",
              "name": "price",
              "type": "uint256"
            },
            {
              "internalType": "bool",
              "name": "currentlyListed",
              "type": "bool"
            }
          ],
          "internalType": "struct Wibu_NFTMarketplace.ListedToken[]",
          "name": "",
          "type": "tuple[]"
        }
      ],
      "stateMutability": "view",
      "type": "function"
    },
    {
      "inputs": [],
      "name": "get_owner",
      "outputs": [
        {
          "internalType": "address",
          "name": "",
          "type": "address"
        }
      ],
      "stateMutability": "view",
      "type": "function"
    },
    {
      "inputs": [
        {
          "internalType": "address",
          "name": "owner",
          "type": "address"
        },
        {
          "internalType": "address",
          "name": "operator",
          "type": "address"
        }
      ],
      "name": "isApprovedForAll",
      "outputs": [
        {
          "internalType": "bool",
          "name": "",
          "type": "bool"
        }
      ],
      "stateMutability": "view",
      "type": "function"
    },
    {
      "inputs": [],
      "name": "name",
      "outputs": [
        {
          "internalType": "string",
          "name": "",
          "type": "string"
        }
      ],
      "stateMutability": "view",
      "type": "function"
    },
    {
      "inputs": [
        {
          "internalType": "uint256",
          "name": "tokenId",
          "type": "uint256"
        }
      ],
      "name": "ownerOf",
      "outputs": [
        {
          "internalType": "address",
          "name": "",
          "type": "address"
        }
      ],
      "stateMutability": "view",
      "type": "function"
    },
    {
      "inputs": [
        {
          "internalType": "address",
          "name": "from",
          "type": "address"
        },
        {
          "internalType": "address",
          "name": "to",
          "type": "address"
        },
        {
          "internalType": "uint256",
          "name": "tokenId",
          "type": "uint256"
        }
      ],
      "name": "safeTransferFrom",
      "outputs": [],
      "stateMutability": "nonpayable",
      "type": "function"
    },
    {
      "inputs": [
        {
          "internalType": "address",
          "name": "from",
          "type": "address"
        },
        {
          "internalType": "address",
          "name": "to",
          "type": "address"
        },
        {
          "internalType": "uint256",
          "name": "tokenId",
          "type": "uint256"
        },
        {
          "internalType": "bytes",
          "name": "data",
          "type": "bytes"
        }
      ],
      "name": "safeTransferFrom",
      "outputs": [],
      "stateMutability": "nonpayable",
      "type": "function"
    },
    {
      "inputs": [
        {
          "internalType": "address",
          "name": "operator",
          "type": "address"
        },
        {
          "internalType": "bool",
          "name": "approved",
          "type": "bool"
        }
      ],
      "name": "setApprovalForAll",
      "outputs": [],
      "stateMutability": "nonpayable",
      "type": "function"
    },
    {
      "inputs": [
        {
          "internalType": "bytes4",
          "name": "interfaceId",
          "type": "bytes4"
        }
      ],
      "name": "supportsInterface",
      "outputs": [
        {
          "internalType": "bool",
          "name": "",
          "type": "bool"
        }
      ],
      "stateMutability": "view",
      "type": "function"
    },
    {
      "inputs": [],
      "name": "symbol",
      "outputs": [
        {
          "internalType": "string",
          "name": "",
          "type": "string"
        }
      ],
      "stateMutability": "view",
      "type": "function"
    },
    {
      "inputs": [
        {
          "internalType": "uint256",
          "name": "tokenId",
          "type": "uint256"
        }
      ],
      "name": "tokenURI",
      "outputs": [
        {
          "internalType": "string",
          "name": "",
          "type": "string"
        }
      ],
      "stateMutability": "view",
      "type": "function"
    },
    {
      "inputs": [
        {
          "internalType": "address",
          "name": "_from",
          "type": "address"
        },
        {
          "internalType": "address",
          "name": "_to",
          "type": "address"
        },
        {
          "internalType": "uint256",
          "name": "token_id",
          "type": "uint256"
        }
      ],
      "name": "transction_nft",
      "outputs": [],
      "stateMutability": "nonpayable",
      "type": "function"
    },
    {
      "inputs": [
        {
          "internalType": "address",
          "name": "from",
          "type": "address"
        },
        {
          "internalType": "address",
          "name": "to",
          "type": "address"
        },
        {
          "internalType": "uint256",
          "name": "tokenId",
          "type": "uint256"
        }
      ],
      "name": "transferFrom",
      "outputs": [],
      "stateMutability": "nonpayable",
      "type": "function"
    },
    {
      "inputs": [
        {
          "internalType": "uint256",
          "name": "_listPrice",
          "type": "uint256"
        }
      ],
      "name": "updateListPrice",
      "outputs": [],
      "stateMutability": "payable",
      "type": "function"
    }
  ],
  "bytecode": "0x6080604052662386f26fc10000600a553480156200001c57600080fd5b50604051620047fd380380620047fd8339818101604052810190620000429190620001c7565b6040518060400160405280600e81526020017f4e46544d61726b6574706c6163650000000000000000000000000000000000008152506040518060400160405280600481526020017f4e46544d000000000000000000000000000000000000000000000000000000008152508160009081620000bf919062000473565b508060019081620000d1919062000473565b50505033600960006101000a81548173ffffffffffffffffffffffffffffffffffffffff021916908373ffffffffffffffffffffffffffffffffffffffff16021790555080600b60006101000a81548173ffffffffffffffffffffffffffffffffffffffff021916908373ffffffffffffffffffffffffffffffffffffffff160217905550506200055a565b600080fd5b600073ffffffffffffffffffffffffffffffffffffffff82169050919050565b60006200018f8262000162565b9050919050565b620001a18162000182565b8114620001ad57600080fd5b50565b600081519050620001c18162000196565b92915050565b600060208284031215620001e057620001df6200015d565b5b6000620001f084828501620001b0565b91505092915050565b600081519050919050565b7f4e487b7100000000000000000000000000000000000000000000000000000000600052604160045260246000fd5b7f4e487b7100000000000000000000000000000000000000000000000000000000600052602260045260246000fd5b600060028204905060018216806200027b57607f821691505b60208210810362000291576200029062000233565b5b50919050565b60008190508160005260206000209050919050565b60006020601f8301049050919050565b600082821b905092915050565b600060088302620002fb7fffffffffffffffffffffffffffffffffffffffffffffffffffffffffffffffff82620002bc565b620003078683620002bc565b95508019841693508086168417925050509392505050565b6000819050919050565b6000819050919050565b6000620003546200034e62000348846200031f565b62000329565b6200031f565b9050919050565b6000819050919050565b620003708362000333565b620003886200037f826200035b565b848454620002c9565b825550505050565b600090565b6200039f62000390565b620003ac81848462000365565b505050565b5b81811015620003d457620003c860008262000395565b600181019050620003b2565b5050565b601f8211156200042357620003ed8162000297565b620003f884620002ac565b8101602085101562000408578190505b620004206200041785620002ac565b830182620003b1565b50505b505050565b600082821c905092915050565b6000620004486000198460080262000428565b1980831691505092915050565b600062000463838362000435565b9150826002028217905092915050565b6200047e82620001f9565b67ffffffffffffffff8111156200049a576200049962000204565b5b620004a6825462000262565b620004b3828285620003d8565b600060209050601f831160018114620004eb5760008415620004d6578287015190505b620004e2858262000455565b86555062000552565b601f198416620004fb8662000297565b60005b828110156200052557848901518255600182019150602085019450602081019050620004fe565b8683101562000545578489015162000541601f89168262000435565b8355505b6001600288020188555050505b505050505050565b614293806200056a6000396000f3fe60806040526004361061014b5760003560e01c80638e264590116100b6578063c322579c1161006f578063c322579c14610486578063c87b56dd146104a2578063d1a88ae5146104df578063e0391b091461050a578063e985e9c514610535578063ef2d1746146105725761014b565b80638e2645901461039457806395d89b41146103d15780639b1225c4146103fc578063a1ffea8414610418578063a22cb46514610434578063b88d4fde1461045d5761014b565b806342842e0e1161010857806342842e0e14610272578063629cb2e41461029b5780636352211e146102c657806368f1945f1461030357806370a082311461032e57806385d02f9c1461036b5761014b565b806301ffc9a71461015057806306fdde031461018d578063081812fc146101b8578063095ea7b3146101f55780630ac298dc1461021e57806323b872dd14610249575b600080fd5b34801561015c57600080fd5b5061017760048036038101906101729190612bc8565b61059d565b6040516101849190612c10565b60405180910390f35b34801561019957600080fd5b506101a26105fe565b6040516101af9190612cbb565b60405180910390f35b3480156101c457600080fd5b506101df60048036038101906101da9190612d13565b610690565b6040516101ec9190612d81565b60405180910390f35b34801561020157600080fd5b5061021c60048036038101906102179190612dc8565b6106d6565b005b34801561022a57600080fd5b506102336107ed565b6040516102409190612d81565b60405180910390f35b34801561025557600080fd5b50610270600480360381019061026b9190612e08565b610817565b005b34801561027e57600080fd5b5061029960048036038101906102949190612e08565b610877565b005b3480156102a757600080fd5b506102b0610897565b6040516102bd9190612fb1565b60405180910390f35b3480156102d257600080fd5b506102ed60048036038101906102e89190612d13565b610c78565b6040516102fa9190612d81565b60405180910390f35b34801561030f57600080fd5b50610318610cfe565b6040516103259190612fe2565b60405180910390f35b34801561033a57600080fd5b5061035560048036038101906103509190612ffd565b610d08565b6040516103629190612fe2565b60405180910390f35b34801561037757600080fd5b50610392600480360381019061038d9190612e08565b610dbf565b005b3480156103a057600080fd5b506103bb60048036038101906103b69190612d13565b610dcf565b6040516103c89190613092565b60405180910390f35b3480156103dd57600080fd5b506103e6610ed7565b6040516103f39190612cbb565b60405180910390f35b61041660048036038101906104119190612d13565b610f69565b005b610432600480360381019061042d91906131e2565b6111f8565b005b34801561044057600080fd5b5061045b6004803603810190610456919061327d565b6112aa565b005b34801561046957600080fd5b50610484600480360381019061047f919061335e565b6112c0565b005b6104a0600480360381019061049b9190612d13565b611322565b005b3480156104ae57600080fd5b506104c960048036038101906104c49190612d13565b6113bc565b6040516104d69190612cbb565b60405180910390f35b3480156104eb57600080fd5b506104f46114ce565b6040516105019190613092565b60405180910390f35b34801561051657600080fd5b5061051f6115e3565b60405161052c9190612fb1565b60405180910390f35b34801561054157600080fd5b5061055c600480360381019061055791906133e1565b6117b5565b6040516105699190612c10565b60405180910390f35b34801561057e57600080fd5b50610587611849565b6040516105949190612fe2565b60405180910390f35b6000634906490660e01b7bffffffffffffffffffffffffffffffffffffffffffffffffffffffff1916827bffffffffffffffffffffffffffffffffffffffffffffffffffffffff191614806105f757506105f68261185a565b5b9050919050565b60606000805461060d90613450565b80601f016020809104026020016040519081016040528092919081815260200182805461063990613450565b80156106865780601f1061065b57610100808354040283529160200191610686565b820191906000526020600020905b81548152906001019060200180831161066957829003601f168201915b5050505050905090565b600061069b8261193c565b6004600083815260200190815260200160002060009054906101000a900473ffffffffffffffffffffffffffffffffffffffff169050919050565b60006106e182610c78565b90508073ffffffffffffffffffffffffffffffffffffffff168373ffffffffffffffffffffffffffffffffffffffff1603610751576040517f08c379a0000000000000000000000000000000000000000000000000000000008152600401610748906134f3565b60405180910390fd5b8073ffffffffffffffffffffffffffffffffffffffff16610770611987565b73ffffffffffffffffffffffffffffffffffffffff16148061079f575061079e81610799611987565b6117b5565b5b6107de576040517f08c379a00000000000000000000000000000000000000000000000000000000081526004016107d590613585565b60405180910390fd5b6107e8838361198f565b505050565b6000600960009054906101000a900473ffffffffffffffffffffffffffffffffffffffff16905090565b610828610822611987565b82611a48565b610867576040517f08c379a000000000000000000000000000000000000000000000000000000000815260040161085e90613617565b60405180910390fd5b610872838383611add565b505050565b610892838383604051806020016040528060008152506112c0565b505050565b606060006108a56007611dd6565b9050600080600080600090505b848110156109cb573373ffffffffffffffffffffffffffffffffffffffff16600c60006001846108e29190613666565b815260200190815260200160002060010160009054906101000a900473ffffffffffffffffffffffffffffffffffffffff1673ffffffffffffffffffffffffffffffffffffffff1614806109a357503373ffffffffffffffffffffffffffffffffffffffff16600c60006001846109599190613666565b815260200190815260200160002060020160009054906101000a900473ffffffffffffffffffffffffffffffffffffffff1673ffffffffffffffffffffffffffffffffffffffff16145b156109b8576001846109b59190613666565b93505b80806109c39061369a565b9150506108b2565b5060008367ffffffffffffffff8111156109e8576109e76130b7565b5b604051908082528060200260200182016040528015610a2157816020015b610a0e612aff565b815260200190600190039081610a065790505b50905060005b85811015610c6c573373ffffffffffffffffffffffffffffffffffffffff16600c6000600184610a579190613666565b815260200190815260200160002060010160009054906101000a900473ffffffffffffffffffffffffffffffffffffffff1673ffffffffffffffffffffffffffffffffffffffff161480610b1857503373ffffffffffffffffffffffffffffffffffffffff16600c6000600184610ace9190613666565b815260200190815260200160002060020160009054906101000a900473ffffffffffffffffffffffffffffffffffffffff1673ffffffffffffffffffffffffffffffffffffffff16145b15610c5957600181610b2a9190613666565b92506000600c60008581526020019081526020016000209050806040518060a0016040529081600082015481526020016001820160009054906101000a900473ffffffffffffffffffffffffffffffffffffffff1673ffffffffffffffffffffffffffffffffffffffff1673ffffffffffffffffffffffffffffffffffffffff1681526020016002820160009054906101000a900473ffffffffffffffffffffffffffffffffffffffff1673ffffffffffffffffffffffffffffffffffffffff1673ffffffffffffffffffffffffffffffffffffffff168152602001600382015481526020016004820160009054906101000a900460ff161515151581525050838681518110610c3d57610c3c6136e2565b5b6020026020010181905250600185610c559190613666565b9450505b8080610c649061369a565b915050610a27565b50809550505050505090565b600080610c8483611de4565b9050600073ffffffffffffffffffffffffffffffffffffffff168173ffffffffffffffffffffffffffffffffffffffff1603610cf5576040517f08c379a0000000000000000000000000000000000000000000000000000000008152600401610cec9061375d565b60405180910390fd5b80915050919050565b6000600a54905090565b60008073ffffffffffffffffffffffffffffffffffffffff168273ffffffffffffffffffffffffffffffffffffffff1603610d78576040517f08c379a0000000000000000000000000000000000000000000000000000000008152600401610d6f906137ef565b60405180910390fd5b600360008373ffffffffffffffffffffffffffffffffffffffff1673ffffffffffffffffffffffffffffffffffffffff168152602001908152602001600020549050919050565b610dca838383611add565b505050565b610dd7612aff565b600c60008381526020019081526020016000206040518060a0016040529081600082015481526020016001820160009054906101000a900473ffffffffffffffffffffffffffffffffffffffff1673ffffffffffffffffffffffffffffffffffffffff1673ffffffffffffffffffffffffffffffffffffffff1681526020016002820160009054906101000a900473ffffffffffffffffffffffffffffffffffffffff1673ffffffffffffffffffffffffffffffffffffffff1673ffffffffffffffffffffffffffffffffffffffff168152602001600382015481526020016004820160009054906101000a900460ff1615151515815250509050919050565b606060018054610ee690613450565b80601f0160208091040260200160405190810160405280929190818152602001828054610f1290613450565b8015610f5f5780601f10610f3457610100808354040283529160200191610f5f565b820191906000526020600020905b815481529060010190602001808311610f4257829003601f168201915b5050505050905090565b6000600c60008381526020019081526020016000206003015490506000600c600084815260200190815260200160002060020160009054906101000a900473ffffffffffffffffffffffffffffffffffffffff169050600b60009054906101000a900473ffffffffffffffffffffffffffffffffffffffff1673ffffffffffffffffffffffffffffffffffffffff1663a9059cbb82846040518363ffffffff1660e01b815260040161101c92919061380f565b6020604051808303816000875af115801561103b573d6000803e3d6000fd5b505050506040513d601f19601f8201168201806040525081019061105f919061384d565b61109e576040517f08c379a0000000000000000000000000000000000000000000000000000000008152600401611095906138c6565b60405180910390fd5b6001600c600085815260200190815260200160002060040160006101000a81548160ff02191690831515021790555033600c600085815260200190815260200160002060020160006101000a81548173ffffffffffffffffffffffffffffffffffffffff021916908373ffffffffffffffffffffffffffffffffffffffff16021790555061112c6008611e21565b611137303385611add565b61114133846106d6565b600960009054906101000a900473ffffffffffffffffffffffffffffffffffffffff1673ffffffffffffffffffffffffffffffffffffffff166108fc600a549081150290604051600060405180830381858888f193505050501580156111ab573d6000803e3d6000fd5b508073ffffffffffffffffffffffffffffffffffffffff166108fc839081150290604051600060405180830381858888f193505050501580156111f2573d6000803e3d6000fd5b50505050565b3373ffffffffffffffffffffffffffffffffffffffff168373ffffffffffffffffffffffffffffffffffffffff161461123057600080fd5b61126e6040518060400160405280600b81526020017f637265617465546f6b656e000000000000000000000000000000000000000000815250611e37565b600061127a6007611dd6565b90506112866007611e21565b6112903382611ed0565b61129a8184611eee565b6112a48183611f92565b50505050565b6112bc6112b5611987565b8383612195565b5050565b6112d16112cb611987565b83611a48565b611310576040517f08c379a000000000000000000000000000000000000000000000000000000000815260040161130790613617565b60405180910390fd5b61131c84848484612301565b50505050565b3373ffffffffffffffffffffffffffffffffffffffff16600960009054906101000a900473ffffffffffffffffffffffffffffffffffffffff1673ffffffffffffffffffffffffffffffffffffffff16146113b2576040517f08c379a00000000000000000000000000000000000000000000000000000000081526004016113a990613958565b60405180910390fd5b80600a8190555050565b60606113c78261193c565b60006006600084815260200190815260200160002080546113e790613450565b80601f016020809104026020016040519081016040528092919081815260200182805461141390613450565b80156114605780601f1061143557610100808354040283529160200191611460565b820191906000526020600020905b81548152906001019060200180831161144357829003601f168201915b50505050509050600061147161235d565b905060008151036114865781925050506114c9565b6000825111156114bb5780826040516020016114a39291906139b4565b604051602081830303815290604052925050506114c9565b6114c484612374565b925050505b919050565b6114d6612aff565b60006114e26007611dd6565b9050600c60008281526020019081526020016000206040518060a0016040529081600082015481526020016001820160009054906101000a900473ffffffffffffffffffffffffffffffffffffffff1673ffffffffffffffffffffffffffffffffffffffff1673ffffffffffffffffffffffffffffffffffffffff1681526020016002820160009054906101000a900473ffffffffffffffffffffffffffffffffffffffff1673ffffffffffffffffffffffffffffffffffffffff1673ffffffffffffffffffffffffffffffffffffffff168152602001600382015481526020016004820160009054906101000a900460ff16151515158152505091505090565b606060006115f16007611dd6565b905060008167ffffffffffffffff81111561160f5761160e6130b7565b5b60405190808252806020026020018201604052801561164857816020015b611635612aff565b81526020019060019003908161162d5790505b50905060008080600090505b848110156117aa576001816116699190613666565b91506000600c60008481526020019081526020016000209050806040518060a0016040529081600082015481526020016001820160009054906101000a900473ffffffffffffffffffffffffffffffffffffffff1673ffffffffffffffffffffffffffffffffffffffff1673ffffffffffffffffffffffffffffffffffffffff1681526020016002820160009054906101000a900473ffffffffffffffffffffffffffffffffffffffff1673ffffffffffffffffffffffffffffffffffffffff1673ffffffffffffffffffffffffffffffffffffffff168152602001600382015481526020016004820160009054906101000a900460ff16151515158152505085858151811061177c5761177b6136e2565b5b60200260200101819052506001846117949190613666565b93505080806117a29061369a565b915050611654565b508294505050505090565b6000600560008473ffffffffffffffffffffffffffffffffffffffff1673ffffffffffffffffffffffffffffffffffffffff16815260200190815260200160002060008373ffffffffffffffffffffffffffffffffffffffff1673ffffffffffffffffffffffffffffffffffffffff16815260200190815260200160002060009054906101000a900460ff16905092915050565b60006118556007611dd6565b905090565b60007f80ac58cd000000000000000000000000000000000000000000000000000000007bffffffffffffffffffffffffffffffffffffffffffffffffffffffff1916827bffffffffffffffffffffffffffffffffffffffffffffffffffffffff1916148061192557507f5b5e139f000000000000000000000000000000000000000000000000000000007bffffffffffffffffffffffffffffffffffffffffffffffffffffffff1916827bffffffffffffffffffffffffffffffffffffffffffffffffffffffff1916145b806119355750611934826123dc565b5b9050919050565b61194581612446565b611984576040517f08c379a000000000000000000000000000000000000000000000000000000000815260040161197b9061375d565b60405180910390fd5b50565b600033905090565b816004600083815260200190815260200160002060006101000a81548173ffffffffffffffffffffffffffffffffffffffff021916908373ffffffffffffffffffffffffffffffffffffffff160217905550808273ffffffffffffffffffffffffffffffffffffffff16611a0283610c78565b73ffffffffffffffffffffffffffffffffffffffff167f8c5be1e5ebec7d5bd14f71427d1e84f3dd0314c0f7b2291e5b200ac8c7c3b92560405160405180910390a45050565b600080611a5483610c78565b90508073ffffffffffffffffffffffffffffffffffffffff168473ffffffffffffffffffffffffffffffffffffffff161480611a965750611a9581856117b5565b5b80611ad457508373ffffffffffffffffffffffffffffffffffffffff16611abc84610690565b73ffffffffffffffffffffffffffffffffffffffff16145b91505092915050565b8273ffffffffffffffffffffffffffffffffffffffff16611afd82610c78565b73ffffffffffffffffffffffffffffffffffffffff1614611b53576040517f08c379a0000000000000000000000000000000000000000000000000000000008152600401611b4a90613a4a565b60405180910390fd5b600073ffffffffffffffffffffffffffffffffffffffff168273ffffffffffffffffffffffffffffffffffffffff1603611bc2576040517f08c379a0000000000000000000000000000000000000000000000000000000008152600401611bb990613adc565b60405180910390fd5b611bcf8383836001612487565b8273ffffffffffffffffffffffffffffffffffffffff16611bef82610c78565b73ffffffffffffffffffffffffffffffffffffffff1614611c45576040517f08c379a0000000000000000000000000000000000000000000000000000000008152600401611c3c90613a4a565b60405180910390fd5b6004600082815260200190815260200160002060006101000a81549073ffffffffffffffffffffffffffffffffffffffff02191690556001600360008573ffffffffffffffffffffffffffffffffffffffff1673ffffffffffffffffffffffffffffffffffffffff168152602001908152602001600020600082825403925050819055506001600360008473ffffffffffffffffffffffffffffffffffffffff1673ffffffffffffffffffffffffffffffffffffffff16815260200190815260200160002060008282540192505081905550816002600083815260200190815260200160002060006101000a81548173ffffffffffffffffffffffffffffffffffffffff021916908373ffffffffffffffffffffffffffffffffffffffff160217905550808273ffffffffffffffffffffffffffffffffffffffff168473ffffffffffffffffffffffffffffffffffffffff167fddf252ad1be2c89b69c2b068fc378daa952ba7f163c4a11628f55a4df523b3ef60405160405180910390a4611dd1838383600161248d565b505050565b600081600001549050919050565b60006002600083815260200190815260200160002060009054906101000a900473ffffffffffffffffffffffffffffffffffffffff169050919050565b6001816000016000828254019250508190555050565b611ecd81604051602401611e4b9190612cbb565b6040516020818303038152906040527f41304fac000000000000000000000000000000000000000000000000000000007bffffffffffffffffffffffffffffffffffffffffffffffffffffffff19166020820180517bffffffffffffffffffffffffffffffffffffffffffffffffffffffff8381831617835250505050612493565b50565b611eea8282604051806020016040528060008152506124bc565b5050565b611ef782612446565b611f36576040517f08c379a0000000000000000000000000000000000000000000000000000000008152600401611f2d90613b6e565b60405180910390fd5b80600660008481526020019081526020016000209081611f569190613d3a565b507ff8e1a15aba9398e019f0b49df1a4fde98ee17ae345cb5f6b5e2c27f5033e8ce782604051611f869190612fe2565b60405180910390a15050565b600a543414611fd6576040517f08c379a0000000000000000000000000000000000000000000000000000000008152600401611fcd90613e7e565b60405180910390fd5b60008111612019576040517f08c379a000000000000000000000000000000000000000000000000000000000815260040161201090613f10565b60405180910390fd5b6040518060a001604052808381526020013073ffffffffffffffffffffffffffffffffffffffff1681526020013373ffffffffffffffffffffffffffffffffffffffff16815260200182815260200160011515815250600c60008481526020019081526020016000206000820151816000015560208201518160010160006101000a81548173ffffffffffffffffffffffffffffffffffffffff021916908373ffffffffffffffffffffffffffffffffffffffff16021790555060408201518160020160006101000a81548173ffffffffffffffffffffffffffffffffffffffff021916908373ffffffffffffffffffffffffffffffffffffffff1602179055506060820151816003015560808201518160040160006101000a81548160ff021916908315150217905550905050612152333084611add565b817f9339409317fd01fabff48b703019016f49159bacc801ae872d2ca637d226e4c030338460016040516121899493929190613f30565b60405180910390a25050565b8173ffffffffffffffffffffffffffffffffffffffff168373ffffffffffffffffffffffffffffffffffffffff1603612203576040517f08c379a00000000000000000000000000000000000000000000000000000000081526004016121fa90613fc1565b60405180910390fd5b80600560008573ffffffffffffffffffffffffffffffffffffffff1673ffffffffffffffffffffffffffffffffffffffff16815260200190815260200160002060008473ffffffffffffffffffffffffffffffffffffffff1673ffffffffffffffffffffffffffffffffffffffff16815260200190815260200160002060006101000a81548160ff0219169083151502179055508173ffffffffffffffffffffffffffffffffffffffff168373ffffffffffffffffffffffffffffffffffffffff167f17307eab39ab6107e8899845ad3d59bd9653f200f220920489ca2b5937696c31836040516122f49190612c10565b60405180910390a3505050565b61230c848484611add565b61231884848484612517565b612357576040517f08c379a000000000000000000000000000000000000000000000000000000000815260040161234e90614053565b60405180910390fd5b50505050565b606060405180602001604052806000815250905090565b606061237f8261193c565b600061238961235d565b905060008151116123a957604051806020016040528060008152506123d4565b806123b38461269e565b6040516020016123c49291906139b4565b6040516020818303038152906040525b915050919050565b60007f01ffc9a7000000000000000000000000000000000000000000000000000000007bffffffffffffffffffffffffffffffffffffffffffffffffffffffff1916827bffffffffffffffffffffffffffffffffffffffffffffffffffffffff1916149050919050565b60008073ffffffffffffffffffffffffffffffffffffffff1661246883611de4565b73ffffffffffffffffffffffffffffffffffffffff1614159050919050565b50505050565b50505050565b60008151905060006a636f6e736f6c652e6c6f679050602083016000808483855afa5050505050565b6124c6838361276c565b6124d36000848484612517565b612512576040517f08c379a000000000000000000000000000000000000000000000000000000000815260040161250990614053565b60405180910390fd5b505050565b60006125388473ffffffffffffffffffffffffffffffffffffffff16612989565b15612691578373ffffffffffffffffffffffffffffffffffffffff1663150b7a02612561611987565b8786866040518563ffffffff1660e01b815260040161258394939291906140c8565b6020604051808303816000875af19250505080156125bf57506040513d601f19601f820116820180604052508101906125bc9190614129565b60015b612641573d80600081146125ef576040519150601f19603f3d011682016040523d82523d6000602084013e6125f4565b606091505b506000815103612639576040517f08c379a000000000000000000000000000000000000000000000000000000000815260040161263090614053565b60405180910390fd5b805181602001fd5b63150b7a0260e01b7bffffffffffffffffffffffffffffffffffffffffffffffffffffffff1916817bffffffffffffffffffffffffffffffffffffffffffffffffffffffff191614915050612696565b600190505b949350505050565b6060600060016126ad846129ac565b01905060008167ffffffffffffffff8111156126cc576126cb6130b7565b5b6040519080825280601f01601f1916602001820160405280156126fe5781602001600182028036833780820191505090505b509050600082602001820190505b600115612761578080600190039150507f3031323334353637383961626364656600000000000000000000000000000000600a86061a8153600a858161275557612754614156565b5b0494506000850361270c575b819350505050919050565b600073ffffffffffffffffffffffffffffffffffffffff168273ffffffffffffffffffffffffffffffffffffffff16036127db576040517f08c379a00000000000000000000000000000000000000000000000000000000081526004016127d2906141d1565b60405180910390fd5b6127e481612446565b15612824576040517f08c379a000000000000000000000000000000000000000000000000000000000815260040161281b9061423d565b60405180910390fd5b612832600083836001612487565b61283b81612446565b1561287b576040517f08c379a00000000000000000000000000000000000000000000000000000000081526004016128729061423d565b60405180910390fd5b6001600360008473ffffffffffffffffffffffffffffffffffffffff1673ffffffffffffffffffffffffffffffffffffffff16815260200190815260200160002060008282540192505081905550816002600083815260200190815260200160002060006101000a81548173ffffffffffffffffffffffffffffffffffffffff021916908373ffffffffffffffffffffffffffffffffffffffff160217905550808273ffffffffffffffffffffffffffffffffffffffff16600073ffffffffffffffffffffffffffffffffffffffff167fddf252ad1be2c89b69c2b068fc378daa952ba7f163c4a11628f55a4df523b3ef60405160405180910390a461298560008383600161248d565b5050565b6000808273ffffffffffffffffffffffffffffffffffffffff163b119050919050565b600080600090507a184f03e93ff9f4daa797ed6e38ed64bf6a1f0100000000000000008310612a0a577a184f03e93ff9f4daa797ed6e38ed64bf6a1f0100000000000000008381612a00576129ff614156565b5b0492506040810190505b6d04ee2d6d415b85acef81000000008310612a47576d04ee2d6d415b85acef81000000008381612a3d57612a3c614156565b5b0492506020810190505b662386f26fc100008310612a7657662386f26fc100008381612a6c57612a6b614156565b5b0492506010810190505b6305f5e1008310612a9f576305f5e1008381612a9557612a94614156565b5b0492506008810190505b6127108310612ac4576127108381612aba57612ab9614156565b5b0492506004810190505b60648310612ae75760648381612add57612adc614156565b5b0492506002810190505b600a8310612af6576001810190505b80915050919050565b6040518060a0016040528060008152602001600073ffffffffffffffffffffffffffffffffffffffff168152602001600073ffffffffffffffffffffffffffffffffffffffff168152602001600081526020016000151581525090565b6000604051905090565b600080fd5b600080fd5b60007fffffffff0000000000000000000000000000000000000000000000000000000082169050919050565b612ba581612b70565b8114612bb057600080fd5b50565b600081359050612bc281612b9c565b92915050565b600060208284031215612bde57612bdd612b66565b5b6000612bec84828501612bb3565b91505092915050565b60008115159050919050565b612c0a81612bf5565b82525050565b6000602082019050612c256000830184612c01565b92915050565b600081519050919050565b600082825260208201905092915050565b60005b83811015612c65578082015181840152602081019050612c4a565b60008484015250505050565b6000601f19601f8301169050919050565b6000612c8d82612c2b565b612c978185612c36565b9350612ca7818560208601612c47565b612cb081612c71565b840191505092915050565b60006020820190508181036000830152612cd58184612c82565b905092915050565b6000819050919050565b612cf081612cdd565b8114612cfb57600080fd5b50565b600081359050612d0d81612ce7565b92915050565b600060208284031215612d2957612d28612b66565b5b6000612d3784828501612cfe565b91505092915050565b600073ffffffffffffffffffffffffffffffffffffffff82169050919050565b6000612d6b82612d40565b9050919050565b612d7b81612d60565b82525050565b6000602082019050612d966000830184612d72565b92915050565b612da581612d60565b8114612db057600080fd5b50565b600081359050612dc281612d9c565b92915050565b60008060408385031215612ddf57612dde612b66565b5b6000612ded85828601612db3565b9250506020612dfe85828601612cfe565b9150509250929050565b600080600060608486031215612e2157612e20612b66565b5b6000612e2f86828701612db3565b9350506020612e4086828701612db3565b9250506040612e5186828701612cfe565b9150509250925092565b600081519050919050565b600082825260208201905092915050565b6000819050602082019050919050565b612e9081612cdd565b82525050565b6000612ea182612d40565b9050919050565b612eb181612e96565b82525050565b612ec081612bf5565b82525050565b60a082016000820151612edc6000850182612e87565b506020820151612eef6020850182612ea8565b506040820151612f026040850182612ea8565b506060820151612f156060850182612e87565b506080820151612f286080850182612eb7565b50505050565b6000612f3a8383612ec6565b60a08301905092915050565b6000602082019050919050565b6000612f5e82612e5b565b612f688185612e66565b9350612f7383612e77565b8060005b83811015612fa4578151612f8b8882612f2e565b9750612f9683612f46565b925050600181019050612f77565b5085935050505092915050565b60006020820190508181036000830152612fcb8184612f53565b905092915050565b612fdc81612cdd565b82525050565b6000602082019050612ff76000830184612fd3565b92915050565b60006020828403121561301357613012612b66565b5b600061302184828501612db3565b91505092915050565b60a0820160008201516130406000850182612e87565b5060208201516130536020850182612ea8565b5060408201516130666040850182612ea8565b5060608201516130796060850182612e87565b50608082015161308c6080850182612eb7565b50505050565b600060a0820190506130a7600083018461302a565b92915050565b600080fd5b600080fd5b7f4e487b7100000000000000000000000000000000000000000000000000000000600052604160045260246000fd5b6130ef82612c71565b810181811067ffffffffffffffff8211171561310e5761310d6130b7565b5b80604052505050565b6000613121612b5c565b905061312d82826130e6565b919050565b600067ffffffffffffffff82111561314d5761314c6130b7565b5b61315682612c71565b9050602081019050919050565b82818337600083830152505050565b600061318561318084613132565b613117565b9050828152602081018484840111156131a1576131a06130b2565b5b6131ac848285613163565b509392505050565b600082601f8301126131c9576131c86130ad565b5b81356131d9848260208601613172565b91505092915050565b6000806000606084860312156131fb576131fa612b66565b5b600061320986828701612db3565b935050602084013567ffffffffffffffff81111561322a57613229612b6b565b5b613236868287016131b4565b925050604061324786828701612cfe565b9150509250925092565b61325a81612bf5565b811461326557600080fd5b50565b60008135905061327781613251565b92915050565b6000806040838503121561329457613293612b66565b5b60006132a285828601612db3565b92505060206132b385828601613268565b9150509250929050565b600067ffffffffffffffff8211156132d8576132d76130b7565b5b6132e182612c71565b9050602081019050919050565b60006133016132fc846132bd565b613117565b90508281526020810184848401111561331d5761331c6130b2565b5b613328848285613163565b509392505050565b600082601f830112613345576133446130ad565b5b81356133558482602086016132ee565b91505092915050565b6000806000806080858703121561337857613377612b66565b5b600061338687828801612db3565b945050602061339787828801612db3565b93505060406133a887828801612cfe565b925050606085013567ffffffffffffffff8111156133c9576133c8612b6b565b5b6133d587828801613330565b91505092959194509250565b600080604083850312156133f8576133f7612b66565b5b600061340685828601612db3565b925050602061341785828601612db3565b9150509250929050565b7f4e487b7100000000000000000000000000000000000000000000000000000000600052602260045260246000fd5b6000600282049050600182168061346857607f821691505b60208210810361347b5761347a613421565b5b50919050565b7f4552433732313a20617070726f76616c20746f2063757272656e74206f776e6560008201527f7200000000000000000000000000000000000000000000000000000000000000602082015250565b60006134dd602183612c36565b91506134e882613481565b604082019050919050565b6000602082019050818103600083015261350c816134d0565b9050919050565b7f4552433732313a20617070726f76652063616c6c6572206973206e6f7420746f60008201527f6b656e206f776e6572206f7220617070726f76656420666f7220616c6c000000602082015250565b600061356f603d83612c36565b915061357a82613513565b604082019050919050565b6000602082019050818103600083015261359e81613562565b9050919050565b7f4552433732313a2063616c6c6572206973206e6f7420746f6b656e206f776e6560008201527f72206f7220617070726f76656400000000000000000000000000000000000000602082015250565b6000613601602d83612c36565b915061360c826135a5565b604082019050919050565b60006020820190508181036000830152613630816135f4565b9050919050565b7f4e487b7100000000000000000000000000000000000000000000000000000000600052601160045260246000fd5b600061367182612cdd565b915061367c83612cdd565b925082820190508082111561369457613693613637565b5b92915050565b60006136a582612cdd565b91507fffffffffffffffffffffffffffffffffffffffffffffffffffffffffffffffff82036136d7576136d6613637565b5b600182019050919050565b7f4e487b7100000000000000000000000000000000000000000000000000000000600052603260045260246000fd5b7f4552433732313a20696e76616c696420746f6b656e2049440000000000000000600082015250565b6000613747601883612c36565b915061375282613711565b602082019050919050565b600060208201905081810360008301526137768161373a565b9050919050565b7f4552433732313a2061646472657373207a65726f206973206e6f74206120766160008201527f6c6964206f776e65720000000000000000000000000000000000000000000000602082015250565b60006137d9602983612c36565b91506137e48261377d565b604082019050919050565b60006020820190508181036000830152613808816137cc565b9050919050565b60006040820190506138246000830185612d72565b6138316020830184612fd3565b9392505050565b60008151905061384781613251565b92915050565b60006020828403121561386357613862612b66565b5b600061387184828501613838565b91505092915050565b7f546f6b656e207472616e73666572206661696c65640000000000000000000000600082015250565b60006138b0601583612c36565b91506138bb8261387a565b602082019050919050565b600060208201905081810360008301526138df816138a3565b9050919050565b7f4f6e6c79206f776e65722063616e20757064617465206c697374696e6720707260008201527f6963650000000000000000000000000000000000000000000000000000000000602082015250565b6000613942602383612c36565b915061394d826138e6565b604082019050919050565b6000602082019050818103600083015261397181613935565b9050919050565b600081905092915050565b600061398e82612c2b565b6139988185613978565b93506139a8818560208601612c47565b80840191505092915050565b60006139c08285613983565b91506139cc8284613983565b91508190509392505050565b7f4552433732313a207472616e736665722066726f6d20696e636f72726563742060008201527f6f776e6572000000000000000000000000000000000000000000000000000000602082015250565b6000613a34602583612c36565b9150613a3f826139d8565b604082019050919050565b60006020820190508181036000830152613a6381613a27565b9050919050565b7f4552433732313a207472616e7366657220746f20746865207a65726f2061646460008201527f7265737300000000000000000000000000000000000000000000000000000000602082015250565b6000613ac6602483612c36565b9150613ad182613a6a565b604082019050919050565b60006020820190508181036000830152613af581613ab9565b9050919050565b7f45524337323155524953746f726167653a2055524920736574206f66206e6f6e60008201527f6578697374656e7420746f6b656e000000000000000000000000000000000000602082015250565b6000613b58602e83612c36565b9150613b6382613afc565b604082019050919050565b60006020820190508181036000830152613b8781613b4b565b9050919050565b60008190508160005260206000209050919050565b60006020601f8301049050919050565b600082821b905092915050565b600060088302613bf07fffffffffffffffffffffffffffffffffffffffffffffffffffffffffffffffff82613bb3565b613bfa8683613bb3565b95508019841693508086168417925050509392505050565b6000819050919050565b6000613c37613c32613c2d84612cdd565b613c12565b612cdd565b9050919050565b6000819050919050565b613c5183613c1c565b613c65613c5d82613c3e565b848454613bc0565b825550505050565b600090565b613c7a613c6d565b613c85818484613c48565b505050565b5b81811015613ca957613c9e600082613c72565b600181019050613c8b565b5050565b601f821115613cee57613cbf81613b8e565b613cc884613ba3565b81016020851015613cd7578190505b613ceb613ce385613ba3565b830182613c8a565b50505b505050565b600082821c905092915050565b6000613d1160001984600802613cf3565b1980831691505092915050565b6000613d2a8383613d00565b9150826002028217905092915050565b613d4382612c2b565b67ffffffffffffffff811115613d5c57613d5b6130b7565b5b613d668254613450565b613d71828285613cad565b600060209050601f831160018114613da45760008415613d92578287015190505b613d9c8582613d1e565b865550613e04565b601f198416613db286613b8e565b60005b82811015613dda57848901518255600182019150602085019450602081019050613db5565b86831015613df75784890151613df3601f891682613d00565b8355505b6001600288020188555050505b505050505050565b7f506c656173652073656e642074686520636f7272656374206c697374696e672060008201527f6665650000000000000000000000000000000000000000000000000000000000602082015250565b6000613e68602383612c36565b9150613e7382613e0c565b604082019050919050565b60006020820190508181036000830152613e9781613e5b565b9050919050565b7f4d616b652073757265207468652070726963652069736e2774206e656761746960008201527f7665000000000000000000000000000000000000000000000000000000000000602082015250565b6000613efa602283612c36565b9150613f0582613e9e565b604082019050919050565b60006020820190508181036000830152613f2981613eed565b9050919050565b6000608082019050613f456000830187612d72565b613f526020830186612d72565b613f5f6040830185612fd3565b613f6c6060830184612c01565b95945050505050565b7f4552433732313a20617070726f766520746f2063616c6c657200000000000000600082015250565b6000613fab601983612c36565b9150613fb682613f75565b602082019050919050565b60006020820190508181036000830152613fda81613f9e565b9050919050565b7f4552433732313a207472616e7366657220746f206e6f6e20455243373231526560008201527f63656976657220696d706c656d656e7465720000000000000000000000000000602082015250565b600061403d603283612c36565b915061404882613fe1565b604082019050919050565b6000602082019050818103600083015261406c81614030565b9050919050565b600081519050919050565b600082825260208201905092915050565b600061409a82614073565b6140a4818561407e565b93506140b4818560208601612c47565b6140bd81612c71565b840191505092915050565b60006080820190506140dd6000830187612d72565b6140ea6020830186612d72565b6140f76040830185612fd3565b8181036060830152614109818461408f565b905095945050505050565b60008151905061412381612b9c565b92915050565b60006020828403121561413f5761413e612b66565b5b600061414d84828501614114565b91505092915050565b7f4e487b7100000000000000000000000000000000000000000000000000000000600052601260045260246000fd5b7f4552433732313a206d696e7420746f20746865207a65726f2061646472657373600082015250565b60006141bb602083612c36565b91506141c682614185565b602082019050919050565b600060208201905081810360008301526141ea816141ae565b9050919050565b7f4552433732313a20746f6b656e20616c7265616479206d696e74656400000000600082015250565b6000614227601c83612c36565b9150614232826141f1565b602082019050919050565b600060208201905081810360008301526142568161421a565b905091905056fea2646970667358221220514b3293932f0ef483a9cd46aa2b540ff2af0f687c38d80d396901a235e1b2e264736f6c63430008120033",
  "linkReferences": {},
  "deployedLinkReferences": {}
}