{
  "_format": "hh-sol-artifact-1",
  "contractName": "Wibu_NFTMarketplace",
  "sourceName": "contracts/NFT_contracts_ERC721.sol",
  "abi": [
    {
      "inputs": [
        {
          "internalType": "address",
          "name": "_yourTokenAddress",
          "type": "address"
        }
      ],
      "stateMutability": "nonpayable",
      "type": "constructor"
    },
    {
      "anonymous": false,
      "inputs": [
        {
          "indexed": true,
          "internalType": "address",
          "name": "owner",
          "type": "address"
        },
        {
          "indexed": true,
          "internalType": "address",
          "name": "approved",
          "type": "address"
        },
        {
          "indexed": true,
          "internalType": "uint256",
          "name": "tokenId",
          "type": "uint256"
        }
      ],
      "name": "Approval",
      "type": "event"
    },
    {
      "anonymous": false,
      "inputs": [
        {
          "indexed": true,
          "internalType": "address",
          "name": "owner",
          "type": "address"
        },
        {
          "indexed": true,
          "internalType": "address",
          "name": "operator",
          "type": "address"
        },
        {
          "indexed": false,
          "internalType": "bool",
          "name": "approved",
          "type": "bool"
        }
      ],
      "name": "ApprovalForAll",
      "type": "event"
    },
    {
      "anonymous": false,
      "inputs": [
        {
          "indexed": false,
          "internalType": "uint256",
          "name": "_fromTokenId",
          "type": "uint256"
        },
        {
          "indexed": false,
          "internalType": "uint256",
          "name": "_toTokenId",
          "type": "uint256"
        }
      ],
      "name": "BatchMetadataUpdate",
      "type": "event"
    },
    {
      "anonymous": false,
      "inputs": [
        {
          "indexed": false,
          "internalType": "uint256",
          "name": "_tokenId",
          "type": "uint256"
        }
      ],
      "name": "MetadataUpdate",
      "type": "event"
    },
    {
      "anonymous": false,
      "inputs": [
        {
          "indexed": true,
          "internalType": "uint256",
          "name": "tokenId",
          "type": "uint256"
        },
        {
          "indexed": false,
          "internalType": "address",
          "name": "owner",
          "type": "address"
        },
        {
          "indexed": false,
          "internalType": "address",
          "name": "seller",
          "type": "address"
        },
        {
          "indexed": false,
          "internalType": "uint256",
          "name": "price",
          "type": "uint256"
        },
        {
          "indexed": false,
          "internalType": "bool",
          "name": "currentlyListed",
          "type": "bool"
        }
      ],
      "name": "TokenListedSuccess",
      "type": "event"
    },
    {
      "anonymous": false,
      "inputs": [
        {
          "indexed": true,
          "internalType": "address",
          "name": "from",
          "type": "address"
        },
        {
          "indexed": true,
          "internalType": "address",
          "name": "to",
          "type": "address"
        },
        {
          "indexed": true,
          "internalType": "uint256",
          "name": "tokenId",
          "type": "uint256"
        }
      ],
      "name": "Transfer",
      "type": "event"
    },
    {
      "inputs": [
        {
          "internalType": "address",
          "name": "to",
          "type": "address"
        },
        {
          "internalType": "uint256",
          "name": "tokenId",
          "type": "uint256"
        }
      ],
      "name": "approve",
      "outputs": [],
      "stateMutability": "nonpayable",
      "type": "function"
    },
    {
      "inputs": [
        {
          "internalType": "address",
          "name": "owner",
          "type": "address"
        }
      ],
      "name": "balanceOf",
      "outputs": [
        {
          "internalType": "uint256",
          "name": "",
          "type": "uint256"
        }
      ],
      "stateMutability": "view",
      "type": "function"
    },
    {
      "inputs": [
        {
          "internalType": "address",
          "name": "_owner",
          "type": "address"
        },
        {
          "internalType": "string",
          "name": "tokenURI",
          "type": "string"
        },
        {
          "internalType": "uint256",
          "name": "price",
          "type": "uint256"
        }
      ],
      "name": "createToken",
      "outputs": [],
      "stateMutability": "payable",
      "type": "function"
    },
    {
      "inputs": [
        {
          "internalType": "uint256",
          "name": "tokenId",
          "type": "uint256"
        }
      ],
      "name": "executeSale",
      "outputs": [],
      "stateMutability": "payable",
      "type": "function"
    },
    {
      "inputs": [],
      "name": "getAllNFTs",
      "outputs": [
        {
          "components": [
            {
              "internalType": "uint256",
              "name": "tokenId",
              "type": "uint256"
            },
            {
              "internalType": "address payable",
              "name": "owner",
              "type": "address"
            },
            {
              "internalType": "address payable",
              "name": "seller",
              "type": "address"
            },
            {
              "internalType": "uint256",
              "name": "price",
              "type": "uint256"
            },
            {
              "internalType": "bool",
              "name": "currentlyListed",
              "type": "bool"
            }
          ],
          "internalType": "struct Wibu_NFTMarketplace.ListedToken[]",
          "name": "",
          "type": "tuple[]"
        }
      ],
      "stateMutability": "view",
      "type": "function"
    },
    {
      "inputs": [
        {
          "internalType": "uint256",
          "name": "tokenId",
          "type": "uint256"
        }
      ],
      "name": "getApproved",
      "outputs": [
        {
          "internalType": "address",
          "name": "",
          "type": "address"
        }
      ],
      "stateMutability": "view",
      "type": "function"
    },
    {
      "inputs": [],
      "name": "getCurrentToken",
      "outputs": [
        {
          "internalType": "uint256",
          "name": "",
          "type": "uint256"
        }
      ],
      "stateMutability": "view",
      "type": "function"
    },
    {
      "inputs": [],
      "name": "getLatestIdToListedToken",
      "outputs": [
        {
          "components": [
            {
              "internalType": "uint256",
              "name": "tokenId",
              "type": "uint256"
            },
            {
              "internalType": "address payable",
              "name": "owner",
              "type": "address"
            },
            {
              "internalType": "address payable",
              "name": "seller",
              "type": "address"
            },
            {
              "internalType": "uint256",
              "name": "price",
              "type": "uint256"
            },
            {
              "internalType": "bool",
              "name": "currentlyListed",
              "type": "bool"
            }
          ],
          "internalType": "struct Wibu_NFTMarketplace.ListedToken",
          "name": "",
          "type": "tuple"
        }
      ],
      "stateMutability": "view",
      "type": "function"
    },
    {
      "inputs": [],
      "name": "getListPrice",
      "outputs": [
        {
          "internalType": "uint256",
          "name": "",
          "type": "uint256"
        }
      ],
      "stateMutability": "view",
      "type": "function"
    },
    {
      "inputs": [
        {
          "internalType": "uint256",
          "name": "tokenId",
          "type": "uint256"
        }
      ],
      "name": "getListedTokenForId",
      "outputs": [
        {
          "components": [
            {
              "internalType": "uint256",
              "name": "tokenId",
              "type": "uint256"
            },
            {
              "internalType": "address payable",
              "name": "owner",
              "type": "address"
            },
            {
              "internalType": "address payable",
              "name": "seller",
              "type": "address"
            },
            {
              "internalType": "uint256",
              "name": "price",
              "type": "uint256"
            },
            {
              "internalType": "bool",
              "name": "currentlyListed",
              "type": "bool"
            }
          ],
          "internalType": "struct Wibu_NFTMarketplace.ListedToken",
          "name": "",
          "type": "tuple"
        }
      ],
      "stateMutability": "view",
      "type": "function"
    },
    {
      "inputs": [],
      "name": "getMyNFTs",
      "outputs": [
        {
          "components": [
            {
              "internalType": "uint256",
              "name": "tokenId",
              "type": "uint256"
            },
            {
              "internalType": "address payable",
              "name": "owner",
              "type": "address"
            },
            {
              "internalType": "address payable",
              "name": "seller",
              "type": "address"
            },
            {
              "internalType": "uint256",
              "name": "price",
              "type": "uint256"
            },
            {
              "internalType": "bool",
              "name": "currentlyListed",
              "type": "bool"
            }
          ],
          "internalType": "struct Wibu_NFTMarketplace.ListedToken[]",
          "name": "",
          "type": "tuple[]"
        }
      ],
      "stateMutability": "view",
      "type": "function"
    },
    {
      "inputs": [],
      "name": "get_owner",
      "outputs": [
        {
          "internalType": "address",
          "name": "",
          "type": "address"
        }
      ],
      "stateMutability": "view",
      "type": "function"
    },
    {
      "inputs": [
        {
          "internalType": "address",
          "name": "owner",
          "type": "address"
        },
        {
          "internalType": "address",
          "name": "operator",
          "type": "address"
        }
      ],
      "name": "isApprovedForAll",
      "outputs": [
        {
          "internalType": "bool",
          "name": "",
          "type": "bool"
        }
      ],
      "stateMutability": "view",
      "type": "function"
    },
    {
      "inputs": [],
      "name": "name",
      "outputs": [
        {
          "internalType": "string",
          "name": "",
          "type": "string"
        }
      ],
      "stateMutability": "view",
      "type": "function"
    },
    {
      "inputs": [
        {
          "internalType": "uint256",
          "name": "tokenId",
          "type": "uint256"
        }
      ],
      "name": "ownerOf",
      "outputs": [
        {
          "internalType": "address",
          "name": "",
          "type": "address"
        }
      ],
      "stateMutability": "view",
      "type": "function"
    },
    {
      "inputs": [
        {
          "internalType": "address",
          "name": "from",
          "type": "address"
        },
        {
          "internalType": "address",
          "name": "to",
          "type": "address"
        },
        {
          "internalType": "uint256",
          "name": "tokenId",
          "type": "uint256"
        }
      ],
      "name": "safeTransferFrom",
      "outputs": [],
      "stateMutability": "nonpayable",
      "type": "function"
    },
    {
      "inputs": [
        {
          "internalType": "address",
          "name": "from",
          "type": "address"
        },
        {
          "internalType": "address",
          "name": "to",
          "type": "address"
        },
        {
          "internalType": "uint256",
          "name": "tokenId",
          "type": "uint256"
        },
        {
          "internalType": "bytes",
          "name": "data",
          "type": "bytes"
        }
      ],
      "name": "safeTransferFrom",
      "outputs": [],
      "stateMutability": "nonpayable",
      "type": "function"
    },
    {
      "inputs": [
        {
          "internalType": "address",
          "name": "operator",
          "type": "address"
        },
        {
          "internalType": "bool",
          "name": "approved",
          "type": "bool"
        }
      ],
      "name": "setApprovalForAll",
      "outputs": [],
      "stateMutability": "nonpayable",
      "type": "function"
    },
    {
      "inputs": [
        {
          "internalType": "bytes4",
          "name": "interfaceId",
          "type": "bytes4"
        }
      ],
      "name": "supportsInterface",
      "outputs": [
        {
          "internalType": "bool",
          "name": "",
          "type": "bool"
        }
      ],
      "stateMutability": "view",
      "type": "function"
    },
    {
      "inputs": [],
      "name": "symbol",
      "outputs": [
        {
          "internalType": "string",
          "name": "",
          "type": "string"
        }
      ],
      "stateMutability": "view",
      "type": "function"
    },
    {
      "inputs": [
        {
          "internalType": "uint256",
          "name": "tokenId",
          "type": "uint256"
        }
      ],
      "name": "tokenURI",
      "outputs": [
        {
          "internalType": "string",
          "name": "",
          "type": "string"
        }
      ],
      "stateMutability": "view",
      "type": "function"
    },
    {
      "inputs": [
        {
          "internalType": "address",
          "name": "_from",
          "type": "address"
        },
        {
          "internalType": "address",
          "name": "_to",
          "type": "address"
        },
        {
          "internalType": "uint256",
          "name": "token_id",
          "type": "uint256"
        }
      ],
      "name": "transction_nft",
      "outputs": [],
      "stateMutability": "nonpayable",
      "type": "function"
    },
    {
      "inputs": [
        {
          "internalType": "address",
          "name": "from",
          "type": "address"
        },
        {
          "internalType": "address",
          "name": "to",
          "type": "address"
        },
        {
          "internalType": "uint256",
          "name": "tokenId",
          "type": "uint256"
        }
      ],
      "name": "transferFrom",
      "outputs": [],
      "stateMutability": "nonpayable",
      "type": "function"
    },
    {
      "inputs": [
        {
          "internalType": "uint256",
          "name": "_listPrice",
          "type": "uint256"
        }
      ],
      "name": "updateListPrice",
      "outputs": [],
      "stateMutability": "payable",
      "type": "function"
    }
  ],
  "bytecode": "0x6080604052662386f26fc10000600a553480156200001c57600080fd5b5060405162004876380380620048768339818101604052810190620000429190620001c7565b6040518060400160405280600e81526020017f4e46544d61726b6574706c6163650000000000000000000000000000000000008152506040518060400160405280600481526020017f4e46544d000000000000000000000000000000000000000000000000000000008152508160009081620000bf919062000473565b508060019081620000d1919062000473565b50505033600960006101000a81548173ffffffffffffffffffffffffffffffffffffffff021916908373ffffffffffffffffffffffffffffffffffffffff16021790555080600b60006101000a81548173ffffffffffffffffffffffffffffffffffffffff021916908373ffffffffffffffffffffffffffffffffffffffff160217905550506200055a565b600080fd5b600073ffffffffffffffffffffffffffffffffffffffff82169050919050565b60006200018f8262000162565b9050919050565b620001a18162000182565b8114620001ad57600080fd5b50565b600081519050620001c18162000196565b92915050565b600060208284031215620001e057620001df6200015d565b5b6000620001f084828501620001b0565b91505092915050565b600081519050919050565b7f4e487b7100000000000000000000000000000000000000000000000000000000600052604160045260246000fd5b7f4e487b7100000000000000000000000000000000000000000000000000000000600052602260045260246000fd5b600060028204905060018216806200027b57607f821691505b60208210810362000291576200029062000233565b5b50919050565b60008190508160005260206000209050919050565b60006020601f8301049050919050565b600082821b905092915050565b600060088302620002fb7fffffffffffffffffffffffffffffffffffffffffffffffffffffffffffffffff82620002bc565b620003078683620002bc565b95508019841693508086168417925050509392505050565b6000819050919050565b6000819050919050565b6000620003546200034e62000348846200031f565b62000329565b6200031f565b9050919050565b6000819050919050565b620003708362000333565b620003886200037f826200035b565b848454620002c9565b825550505050565b600090565b6200039f62000390565b620003ac81848462000365565b505050565b5b81811015620003d457620003c860008262000395565b600181019050620003b2565b5050565b601f8211156200042357620003ed8162000297565b620003f884620002ac565b8101602085101562000408578190505b620004206200041785620002ac565b830182620003b1565b50505b505050565b600082821c905092915050565b6000620004486000198460080262000428565b1980831691505092915050565b600062000463838362000435565b9150826002028217905092915050565b6200047e82620001f9565b67ffffffffffffffff8111156200049a576200049962000204565b5b620004a6825462000262565b620004b3828285620003d8565b600060209050601f831160018114620004eb5760008415620004d6578287015190505b620004e2858262000455565b86555062000552565b601f198416620004fb8662000297565b60005b828110156200052557848901518255600182019150602085019450602081019050620004fe565b8683101562000545578489015162000541601f89168262000435565b8355505b6001600288020188555050505b505050505050565b61430c806200056a6000396000f3fe60806040526004361061014b5760003560e01c80638e264590116100b6578063c322579c1161006f578063c322579c14610486578063c87b56dd146104a2578063d1a88ae5146104df578063e0391b091461050a578063e985e9c514610535578063ef2d1746146105725761014b565b80638e2645901461039457806395d89b41146103d15780639b1225c4146103fc578063a1ffea8414610418578063a22cb46514610434578063b88d4fde1461045d5761014b565b806342842e0e1161010857806342842e0e14610272578063629cb2e41461029b5780636352211e146102c657806368f1945f1461030357806370a082311461032e57806385d02f9c1461036b5761014b565b806301ffc9a71461015057806306fdde031461018d578063081812fc146101b8578063095ea7b3146101f55780630ac298dc1461021e57806323b872dd14610249575b600080fd5b34801561015c57600080fd5b5061017760048036038101906101729190612c41565b61059d565b6040516101849190612c89565b60405180910390f35b34801561019957600080fd5b506101a26105fe565b6040516101af9190612d34565b60405180910390f35b3480156101c457600080fd5b506101df60048036038101906101da9190612d8c565b610690565b6040516101ec9190612dfa565b60405180910390f35b34801561020157600080fd5b5061021c60048036038101906102179190612e41565b6106d6565b005b34801561022a57600080fd5b506102336107ed565b6040516102409190612dfa565b60405180910390f35b34801561025557600080fd5b50610270600480360381019061026b9190612e81565b610817565b005b34801561027e57600080fd5b5061029960048036038101906102949190612e81565b610877565b005b3480156102a757600080fd5b506102b0610897565b6040516102bd919061302a565b60405180910390f35b3480156102d257600080fd5b506102ed60048036038101906102e89190612d8c565b610c78565b6040516102fa9190612dfa565b60405180910390f35b34801561030f57600080fd5b50610318610cfe565b604051610325919061305b565b60405180910390f35b34801561033a57600080fd5b5061035560048036038101906103509190613076565b610d08565b604051610362919061305b565b60405180910390f35b34801561037757600080fd5b50610392600480360381019061038d9190612e81565b610dbf565b005b3480156103a057600080fd5b506103bb60048036038101906103b69190612d8c565b610e53565b6040516103c8919061310b565b60405180910390f35b3480156103dd57600080fd5b506103e6610f5b565b6040516103f39190612d34565b60405180910390f35b61041660048036038101906104119190612d8c565b610fed565b005b610432600480360381019061042d919061325b565b61127c565b005b34801561044057600080fd5b5061045b600480360381019061045691906132f6565b61132e565b005b34801561046957600080fd5b50610484600480360381019061047f91906133d7565b611344565b005b6104a0600480360381019061049b9190612d8c565b6113a6565b005b3480156104ae57600080fd5b506104c960048036038101906104c49190612d8c565b611440565b6040516104d69190612d34565b60405180910390f35b3480156104eb57600080fd5b506104f4611552565b604051610501919061310b565b60405180910390f35b34801561051657600080fd5b5061051f611667565b60405161052c919061302a565b60405180910390f35b34801561054157600080fd5b5061055c6004803603810190610557919061345a565b611839565b6040516105699190612c89565b60405180910390f35b34801561057e57600080fd5b506105876118cd565b604051610594919061305b565b60405180910390f35b6000634906490660e01b7bffffffffffffffffffffffffffffffffffffffffffffffffffffffff1916827bffffffffffffffffffffffffffffffffffffffffffffffffffffffff191614806105f757506105f6826118de565b5b9050919050565b60606000805461060d906134c9565b80601f0160208091040260200160405190810160405280929190818152602001828054610639906134c9565b80156106865780601f1061065b57610100808354040283529160200191610686565b820191906000526020600020905b81548152906001019060200180831161066957829003601f168201915b5050505050905090565b600061069b826119c0565b6004600083815260200190815260200160002060009054906101000a900473ffffffffffffffffffffffffffffffffffffffff169050919050565b60006106e182610c78565b90508073ffffffffffffffffffffffffffffffffffffffff168373ffffffffffffffffffffffffffffffffffffffff1603610751576040517f08c379a00000000000000000000000000000000000000000000000000000000081526004016107489061356c565b60405180910390fd5b8073ffffffffffffffffffffffffffffffffffffffff16610770611a0b565b73ffffffffffffffffffffffffffffffffffffffff16148061079f575061079e81610799611a0b565b611839565b5b6107de576040517f08c379a00000000000000000000000000000000000000000000000000000000081526004016107d5906135fe565b60405180910390fd5b6107e88383611a13565b505050565b6000600960009054906101000a900473ffffffffffffffffffffffffffffffffffffffff16905090565b610828610822611a0b565b82611acc565b610867576040517f08c379a000000000000000000000000000000000000000000000000000000000815260040161085e90613690565b60405180910390fd5b610872838383611b61565b505050565b61089283838360405180602001604052806000815250611344565b505050565b606060006108a56007611e5a565b9050600080600080600090505b848110156109cb573373ffffffffffffffffffffffffffffffffffffffff16600c60006001846108e291906136df565b815260200190815260200160002060010160009054906101000a900473ffffffffffffffffffffffffffffffffffffffff1673ffffffffffffffffffffffffffffffffffffffff1614806109a357503373ffffffffffffffffffffffffffffffffffffffff16600c600060018461095991906136df565b815260200190815260200160002060020160009054906101000a900473ffffffffffffffffffffffffffffffffffffffff1673ffffffffffffffffffffffffffffffffffffffff16145b156109b8576001846109b591906136df565b93505b80806109c390613713565b9150506108b2565b5060008367ffffffffffffffff8111156109e8576109e7613130565b5b604051908082528060200260200182016040528015610a2157816020015b610a0e612b78565b815260200190600190039081610a065790505b50905060005b85811015610c6c573373ffffffffffffffffffffffffffffffffffffffff16600c6000600184610a5791906136df565b815260200190815260200160002060010160009054906101000a900473ffffffffffffffffffffffffffffffffffffffff1673ffffffffffffffffffffffffffffffffffffffff161480610b1857503373ffffffffffffffffffffffffffffffffffffffff16600c6000600184610ace91906136df565b815260200190815260200160002060020160009054906101000a900473ffffffffffffffffffffffffffffffffffffffff1673ffffffffffffffffffffffffffffffffffffffff16145b15610c5957600181610b2a91906136df565b92506000600c60008581526020019081526020016000209050806040518060a0016040529081600082015481526020016001820160009054906101000a900473ffffffffffffffffffffffffffffffffffffffff1673ffffffffffffffffffffffffffffffffffffffff1673ffffffffffffffffffffffffffffffffffffffff1681526020016002820160009054906101000a900473ffffffffffffffffffffffffffffffffffffffff1673ffffffffffffffffffffffffffffffffffffffff1673ffffffffffffffffffffffffffffffffffffffff168152602001600382015481526020016004820160009054906101000a900460ff161515151581525050838681518110610c3d57610c3c61375b565b5b6020026020010181905250600185610c5591906136df565b9450505b8080610c6490613713565b915050610a27565b50809550505050505090565b600080610c8483611e68565b9050600073ffffffffffffffffffffffffffffffffffffffff168173ffffffffffffffffffffffffffffffffffffffff1603610cf5576040517f08c379a0000000000000000000000000000000000000000000000000000000008152600401610cec906137d6565b60405180910390fd5b80915050919050565b6000600a54905090565b60008073ffffffffffffffffffffffffffffffffffffffff168273ffffffffffffffffffffffffffffffffffffffff1603610d78576040517f08c379a0000000000000000000000000000000000000000000000000000000008152600401610d6f90613868565b60405180910390fd5b600360008373ffffffffffffffffffffffffffffffffffffffff1673ffffffffffffffffffffffffffffffffffffffff168152602001908152602001600020549050919050565b610dca838383611b61565b6001600c600083815260200190815260200160002060040160006101000a81548160ff02191690831515021790555081600c600083815260200190815260200160002060020160006101000a81548173ffffffffffffffffffffffffffffffffffffffff021916908373ffffffffffffffffffffffffffffffffffffffff160217905550505050565b610e5b612b78565b600c60008381526020019081526020016000206040518060a0016040529081600082015481526020016001820160009054906101000a900473ffffffffffffffffffffffffffffffffffffffff1673ffffffffffffffffffffffffffffffffffffffff1673ffffffffffffffffffffffffffffffffffffffff1681526020016002820160009054906101000a900473ffffffffffffffffffffffffffffffffffffffff1673ffffffffffffffffffffffffffffffffffffffff1673ffffffffffffffffffffffffffffffffffffffff168152602001600382015481526020016004820160009054906101000a900460ff1615151515815250509050919050565b606060018054610f6a906134c9565b80601f0160208091040260200160405190810160405280929190818152602001828054610f96906134c9565b8015610fe35780601f10610fb857610100808354040283529160200191610fe3565b820191906000526020600020905b815481529060010190602001808311610fc657829003601f168201915b5050505050905090565b6000600c60008381526020019081526020016000206003015490506000600c600084815260200190815260200160002060020160009054906101000a900473ffffffffffffffffffffffffffffffffffffffff169050600b60009054906101000a900473ffffffffffffffffffffffffffffffffffffffff1673ffffffffffffffffffffffffffffffffffffffff1663a9059cbb82846040518363ffffffff1660e01b81526004016110a0929190613888565b6020604051808303816000875af11580156110bf573d6000803e3d6000fd5b505050506040513d601f19601f820116820180604052508101906110e391906138c6565b611122576040517f08c379a00000000000000000000000000000000000000000000000000000000081526004016111199061393f565b60405180910390fd5b6001600c600085815260200190815260200160002060040160006101000a81548160ff02191690831515021790555033600c600085815260200190815260200160002060020160006101000a81548173ffffffffffffffffffffffffffffffffffffffff021916908373ffffffffffffffffffffffffffffffffffffffff1602179055506111b06008611ea5565b6111bb303385611b61565b6111c533846106d6565b600960009054906101000a900473ffffffffffffffffffffffffffffffffffffffff1673ffffffffffffffffffffffffffffffffffffffff166108fc600a549081150290604051600060405180830381858888f1935050505015801561122f573d6000803e3d6000fd5b508073ffffffffffffffffffffffffffffffffffffffff166108fc839081150290604051600060405180830381858888f19350505050158015611276573d6000803e3d6000fd5b50505050565b3373ffffffffffffffffffffffffffffffffffffffff168373ffffffffffffffffffffffffffffffffffffffff16146112b457600080fd5b6112f26040518060400160405280600b81526020017f637265617465546f6b656e000000000000000000000000000000000000000000815250611ebb565b60006112fe6007611e5a565b905061130a6007611ea5565b6113143382611f54565b61131e8184611f72565b6113288183612016565b50505050565b611340611339611a0b565b838361220e565b5050565b61135561134f611a0b565b83611acc565b611394576040517f08c379a000000000000000000000000000000000000000000000000000000000815260040161138b90613690565b60405180910390fd5b6113a08484848461237a565b50505050565b3373ffffffffffffffffffffffffffffffffffffffff16600960009054906101000a900473ffffffffffffffffffffffffffffffffffffffff1673ffffffffffffffffffffffffffffffffffffffff1614611436576040517f08c379a000000000000000000000000000000000000000000000000000000000815260040161142d906139d1565b60405180910390fd5b80600a8190555050565b606061144b826119c0565b600060066000848152602001908152602001600020805461146b906134c9565b80601f0160208091040260200160405190810160405280929190818152602001828054611497906134c9565b80156114e45780601f106114b9576101008083540402835291602001916114e4565b820191906000526020600020905b8154815290600101906020018083116114c757829003601f168201915b5050505050905060006114f56123d6565b9050600081510361150a57819250505061154d565b60008251111561153f578082604051602001611527929190613a2d565b6040516020818303038152906040529250505061154d565b611548846123ed565b925050505b919050565b61155a612b78565b60006115666007611e5a565b9050600c60008281526020019081526020016000206040518060a0016040529081600082015481526020016001820160009054906101000a900473ffffffffffffffffffffffffffffffffffffffff1673ffffffffffffffffffffffffffffffffffffffff1673ffffffffffffffffffffffffffffffffffffffff1681526020016002820160009054906101000a900473ffffffffffffffffffffffffffffffffffffffff1673ffffffffffffffffffffffffffffffffffffffff1673ffffffffffffffffffffffffffffffffffffffff168152602001600382015481526020016004820160009054906101000a900460ff16151515158152505091505090565b606060006116756007611e5a565b905060008167ffffffffffffffff81111561169357611692613130565b5b6040519080825280602002602001820160405280156116cc57816020015b6116b9612b78565b8152602001906001900390816116b15790505b50905060008080600090505b8481101561182e576001816116ed91906136df565b91506000600c60008481526020019081526020016000209050806040518060a0016040529081600082015481526020016001820160009054906101000a900473ffffffffffffffffffffffffffffffffffffffff1673ffffffffffffffffffffffffffffffffffffffff1673ffffffffffffffffffffffffffffffffffffffff1681526020016002820160009054906101000a900473ffffffffffffffffffffffffffffffffffffffff1673ffffffffffffffffffffffffffffffffffffffff1673ffffffffffffffffffffffffffffffffffffffff168152602001600382015481526020016004820160009054906101000a900460ff161515151581525050858581518110611800576117ff61375b565b5b602002602001018190525060018461181891906136df565b935050808061182690613713565b9150506116d8565b508294505050505090565b6000600560008473ffffffffffffffffffffffffffffffffffffffff1673ffffffffffffffffffffffffffffffffffffffff16815260200190815260200160002060008373ffffffffffffffffffffffffffffffffffffffff1673ffffffffffffffffffffffffffffffffffffffff16815260200190815260200160002060009054906101000a900460ff16905092915050565b60006118d96007611e5a565b905090565b60007f80ac58cd000000000000000000000000000000000000000000000000000000007bffffffffffffffffffffffffffffffffffffffffffffffffffffffff1916827bffffffffffffffffffffffffffffffffffffffffffffffffffffffff191614806119a957507f5b5e139f000000000000000000000000000000000000000000000000000000007bffffffffffffffffffffffffffffffffffffffffffffffffffffffff1916827bffffffffffffffffffffffffffffffffffffffffffffffffffffffff1916145b806119b957506119b882612455565b5b9050919050565b6119c9816124bf565b611a08576040517f08c379a00000000000000000000000000000000000000000000000000000000081526004016119ff906137d6565b60405180910390fd5b50565b600033905090565b816004600083815260200190815260200160002060006101000a81548173ffffffffffffffffffffffffffffffffffffffff021916908373ffffffffffffffffffffffffffffffffffffffff160217905550808273ffffffffffffffffffffffffffffffffffffffff16611a8683610c78565b73ffffffffffffffffffffffffffffffffffffffff167f8c5be1e5ebec7d5bd14f71427d1e84f3dd0314c0f7b2291e5b200ac8c7c3b92560405160405180910390a45050565b600080611ad883610c78565b90508073ffffffffffffffffffffffffffffffffffffffff168473ffffffffffffffffffffffffffffffffffffffff161480611b1a5750611b198185611839565b5b80611b5857508373ffffffffffffffffffffffffffffffffffffffff16611b4084610690565b73ffffffffffffffffffffffffffffffffffffffff16145b91505092915050565b8273ffffffffffffffffffffffffffffffffffffffff16611b8182610c78565b73ffffffffffffffffffffffffffffffffffffffff1614611bd7576040517f08c379a0000000000000000000000000000000000000000000000000000000008152600401611bce90613ac3565b60405180910390fd5b600073ffffffffffffffffffffffffffffffffffffffff168273ffffffffffffffffffffffffffffffffffffffff1603611c46576040517f08c379a0000000000000000000000000000000000000000000000000000000008152600401611c3d90613b55565b60405180910390fd5b611c538383836001612500565b8273ffffffffffffffffffffffffffffffffffffffff16611c7382610c78565b73ffffffffffffffffffffffffffffffffffffffff1614611cc9576040517f08c379a0000000000000000000000000000000000000000000000000000000008152600401611cc090613ac3565b60405180910390fd5b6004600082815260200190815260200160002060006101000a81549073ffffffffffffffffffffffffffffffffffffffff02191690556001600360008573ffffffffffffffffffffffffffffffffffffffff1673ffffffffffffffffffffffffffffffffffffffff168152602001908152602001600020600082825403925050819055506001600360008473ffffffffffffffffffffffffffffffffffffffff1673ffffffffffffffffffffffffffffffffffffffff16815260200190815260200160002060008282540192505081905550816002600083815260200190815260200160002060006101000a81548173ffffffffffffffffffffffffffffffffffffffff021916908373ffffffffffffffffffffffffffffffffffffffff160217905550808273ffffffffffffffffffffffffffffffffffffffff168473ffffffffffffffffffffffffffffffffffffffff167fddf252ad1be2c89b69c2b068fc378daa952ba7f163c4a11628f55a4df523b3ef60405160405180910390a4611e558383836001612506565b505050565b600081600001549050919050565b60006002600083815260200190815260200160002060009054906101000a900473ffffffffffffffffffffffffffffffffffffffff169050919050565b6001816000016000828254019250508190555050565b611f5181604051602401611ecf9190612d34565b6040516020818303038152906040527f41304fac000000000000000000000000000000000000000000000000000000007bffffffffffffffffffffffffffffffffffffffffffffffffffffffff19166020820180517bffffffffffffffffffffffffffffffffffffffffffffffffffffffff838183161783525050505061250c565b50565b611f6e828260405180602001604052806000815250612535565b5050565b611f7b826124bf565b611fba576040517f08c379a0000000000000000000000000000000000000000000000000000000008152600401611fb190613be7565b60405180910390fd5b80600660008481526020019081526020016000209081611fda9190613db3565b507ff8e1a15aba9398e019f0b49df1a4fde98ee17ae345cb5f6b5e2c27f5033e8ce78260405161200a919061305b565b60405180910390a15050565b600a54341461205a576040517f08c379a000000000000000000000000000000000000000000000000000000000815260040161205190613ef7565b60405180910390fd5b6000811161209d576040517f08c379a000000000000000000000000000000000000000000000000000000000815260040161209490613f89565b60405180910390fd5b6040518060a001604052808381526020013073ffffffffffffffffffffffffffffffffffffffff1681526020013373ffffffffffffffffffffffffffffffffffffffff16815260200182815260200160011515815250600c60008481526020019081526020016000206000820151816000015560208201518160010160006101000a81548173ffffffffffffffffffffffffffffffffffffffff021916908373ffffffffffffffffffffffffffffffffffffffff16021790555060408201518160020160006101000a81548173ffffffffffffffffffffffffffffffffffffffff021916908373ffffffffffffffffffffffffffffffffffffffff1602179055506060820151816003015560808201518160040160006101000a81548160ff021916908315150217905550905050817f9339409317fd01fabff48b703019016f49159bacc801ae872d2ca637d226e4c030338460016040516122029493929190613fa9565b60405180910390a25050565b8173ffffffffffffffffffffffffffffffffffffffff168373ffffffffffffffffffffffffffffffffffffffff160361227c576040517f08c379a00000000000000000000000000000000000000000000000000000000081526004016122739061403a565b60405180910390fd5b80600560008573ffffffffffffffffffffffffffffffffffffffff1673ffffffffffffffffffffffffffffffffffffffff16815260200190815260200160002060008473ffffffffffffffffffffffffffffffffffffffff1673ffffffffffffffffffffffffffffffffffffffff16815260200190815260200160002060006101000a81548160ff0219169083151502179055508173ffffffffffffffffffffffffffffffffffffffff168373ffffffffffffffffffffffffffffffffffffffff167f17307eab39ab6107e8899845ad3d59bd9653f200f220920489ca2b5937696c318360405161236d9190612c89565b60405180910390a3505050565b612385848484611b61565b61239184848484612590565b6123d0576040517f08c379a00000000000000000000000000000000000000000000000000000000081526004016123c7906140cc565b60405180910390fd5b50505050565b606060405180602001604052806000815250905090565b60606123f8826119c0565b60006124026123d6565b90506000815111612422576040518060200160405280600081525061244d565b8061242c84612717565b60405160200161243d929190613a2d565b6040516020818303038152906040525b915050919050565b60007f01ffc9a7000000000000000000000000000000000000000000000000000000007bffffffffffffffffffffffffffffffffffffffffffffffffffffffff1916827bffffffffffffffffffffffffffffffffffffffffffffffffffffffff1916149050919050565b60008073ffffffffffffffffffffffffffffffffffffffff166124e183611e68565b73ffffffffffffffffffffffffffffffffffffffff1614159050919050565b50505050565b50505050565b60008151905060006a636f6e736f6c652e6c6f679050602083016000808483855afa5050505050565b61253f83836127e5565b61254c6000848484612590565b61258b576040517f08c379a0000000000000000000000000000000000000000000000000000000008152600401612582906140cc565b60405180910390fd5b505050565b60006125b18473ffffffffffffffffffffffffffffffffffffffff16612a02565b1561270a578373ffffffffffffffffffffffffffffffffffffffff1663150b7a026125da611a0b565b8786866040518563ffffffff1660e01b81526004016125fc9493929190614141565b6020604051808303816000875af192505050801561263857506040513d601f19601f8201168201806040525081019061263591906141a2565b60015b6126ba573d8060008114612668576040519150601f19603f3d011682016040523d82523d6000602084013e61266d565b606091505b5060008151036126b2576040517f08c379a00000000000000000000000000000000000000000000000000000000081526004016126a9906140cc565b60405180910390fd5b805181602001fd5b63150b7a0260e01b7bffffffffffffffffffffffffffffffffffffffffffffffffffffffff1916817bffffffffffffffffffffffffffffffffffffffffffffffffffffffff19161491505061270f565b600190505b949350505050565b60606000600161272684612a25565b01905060008167ffffffffffffffff81111561274557612744613130565b5b6040519080825280601f01601f1916602001820160405280156127775781602001600182028036833780820191505090505b509050600082602001820190505b6001156127da578080600190039150507f3031323334353637383961626364656600000000000000000000000000000000600a86061a8153600a85816127ce576127cd6141cf565b5b04945060008503612785575b819350505050919050565b600073ffffffffffffffffffffffffffffffffffffffff168273ffffffffffffffffffffffffffffffffffffffff1603612854576040517f08c379a000000000000000000000000000000000000000000000000000000000815260040161284b9061424a565b60405180910390fd5b61285d816124bf565b1561289d576040517f08c379a0000000000000000000000000000000000000000000000000000000008152600401612894906142b6565b60405180910390fd5b6128ab600083836001612500565b6128b4816124bf565b156128f4576040517f08c379a00000000000000000000000000000000000000000000000000000000081526004016128eb906142b6565b60405180910390fd5b6001600360008473ffffffffffffffffffffffffffffffffffffffff1673ffffffffffffffffffffffffffffffffffffffff16815260200190815260200160002060008282540192505081905550816002600083815260200190815260200160002060006101000a81548173ffffffffffffffffffffffffffffffffffffffff021916908373ffffffffffffffffffffffffffffffffffffffff160217905550808273ffffffffffffffffffffffffffffffffffffffff16600073ffffffffffffffffffffffffffffffffffffffff167fddf252ad1be2c89b69c2b068fc378daa952ba7f163c4a11628f55a4df523b3ef60405160405180910390a46129fe600083836001612506565b5050565b6000808273ffffffffffffffffffffffffffffffffffffffff163b119050919050565b600080600090507a184f03e93ff9f4daa797ed6e38ed64bf6a1f0100000000000000008310612a83577a184f03e93ff9f4daa797ed6e38ed64bf6a1f0100000000000000008381612a7957612a786141cf565b5b0492506040810190505b6d04ee2d6d415b85acef81000000008310612ac0576d04ee2d6d415b85acef81000000008381612ab657612ab56141cf565b5b0492506020810190505b662386f26fc100008310612aef57662386f26fc100008381612ae557612ae46141cf565b5b0492506010810190505b6305f5e1008310612b18576305f5e1008381612b0e57612b0d6141cf565b5b0492506008810190505b6127108310612b3d576127108381612b3357612b326141cf565b5b0492506004810190505b60648310612b605760648381612b5657612b556141cf565b5b0492506002810190505b600a8310612b6f576001810190505b80915050919050565b6040518060a0016040528060008152602001600073ffffffffffffffffffffffffffffffffffffffff168152602001600073ffffffffffffffffffffffffffffffffffffffff168152602001600081526020016000151581525090565b6000604051905090565b600080fd5b600080fd5b60007fffffffff0000000000000000000000000000000000000000000000000000000082169050919050565b612c1e81612be9565b8114612c2957600080fd5b50565b600081359050612c3b81612c15565b92915050565b600060208284031215612c5757612c56612bdf565b5b6000612c6584828501612c2c565b91505092915050565b60008115159050919050565b612c8381612c6e565b82525050565b6000602082019050612c9e6000830184612c7a565b92915050565b600081519050919050565b600082825260208201905092915050565b60005b83811015612cde578082015181840152602081019050612cc3565b60008484015250505050565b6000601f19601f8301169050919050565b6000612d0682612ca4565b612d108185612caf565b9350612d20818560208601612cc0565b612d2981612cea565b840191505092915050565b60006020820190508181036000830152612d4e8184612cfb565b905092915050565b6000819050919050565b612d6981612d56565b8114612d7457600080fd5b50565b600081359050612d8681612d60565b92915050565b600060208284031215612da257612da1612bdf565b5b6000612db084828501612d77565b91505092915050565b600073ffffffffffffffffffffffffffffffffffffffff82169050919050565b6000612de482612db9565b9050919050565b612df481612dd9565b82525050565b6000602082019050612e0f6000830184612deb565b92915050565b612e1e81612dd9565b8114612e2957600080fd5b50565b600081359050612e3b81612e15565b92915050565b60008060408385031215612e5857612e57612bdf565b5b6000612e6685828601612e2c565b9250506020612e7785828601612d77565b9150509250929050565b600080600060608486031215612e9a57612e99612bdf565b5b6000612ea886828701612e2c565b9350506020612eb986828701612e2c565b9250506040612eca86828701612d77565b9150509250925092565b600081519050919050565b600082825260208201905092915050565b6000819050602082019050919050565b612f0981612d56565b82525050565b6000612f1a82612db9565b9050919050565b612f2a81612f0f565b82525050565b612f3981612c6e565b82525050565b60a082016000820151612f556000850182612f00565b506020820151612f686020850182612f21565b506040820151612f7b6040850182612f21565b506060820151612f8e6060850182612f00565b506080820151612fa16080850182612f30565b50505050565b6000612fb38383612f3f565b60a08301905092915050565b6000602082019050919050565b6000612fd782612ed4565b612fe18185612edf565b9350612fec83612ef0565b8060005b8381101561301d5781516130048882612fa7565b975061300f83612fbf565b925050600181019050612ff0565b5085935050505092915050565b600060208201905081810360008301526130448184612fcc565b905092915050565b61305581612d56565b82525050565b6000602082019050613070600083018461304c565b92915050565b60006020828403121561308c5761308b612bdf565b5b600061309a84828501612e2c565b91505092915050565b60a0820160008201516130b96000850182612f00565b5060208201516130cc6020850182612f21565b5060408201516130df6040850182612f21565b5060608201516130f26060850182612f00565b5060808201516131056080850182612f30565b50505050565b600060a08201905061312060008301846130a3565b92915050565b600080fd5b600080fd5b7f4e487b7100000000000000000000000000000000000000000000000000000000600052604160045260246000fd5b61316882612cea565b810181811067ffffffffffffffff8211171561318757613186613130565b5b80604052505050565b600061319a612bd5565b90506131a6828261315f565b919050565b600067ffffffffffffffff8211156131c6576131c5613130565b5b6131cf82612cea565b9050602081019050919050565b82818337600083830152505050565b60006131fe6131f9846131ab565b613190565b90508281526020810184848401111561321a5761321961312b565b5b6132258482856131dc565b509392505050565b600082601f83011261324257613241613126565b5b81356132528482602086016131eb565b91505092915050565b60008060006060848603121561327457613273612bdf565b5b600061328286828701612e2c565b935050602084013567ffffffffffffffff8111156132a3576132a2612be4565b5b6132af8682870161322d565b92505060406132c086828701612d77565b9150509250925092565b6132d381612c6e565b81146132de57600080fd5b50565b6000813590506132f0816132ca565b92915050565b6000806040838503121561330d5761330c612bdf565b5b600061331b85828601612e2c565b925050602061332c858286016132e1565b9150509250929050565b600067ffffffffffffffff82111561335157613350613130565b5b61335a82612cea565b9050602081019050919050565b600061337a61337584613336565b613190565b9050828152602081018484840111156133965761339561312b565b5b6133a18482856131dc565b509392505050565b600082601f8301126133be576133bd613126565b5b81356133ce848260208601613367565b91505092915050565b600080600080608085870312156133f1576133f0612bdf565b5b60006133ff87828801612e2c565b945050602061341087828801612e2c565b935050604061342187828801612d77565b925050606085013567ffffffffffffffff81111561344257613441612be4565b5b61344e878288016133a9565b91505092959194509250565b6000806040838503121561347157613470612bdf565b5b600061347f85828601612e2c565b925050602061349085828601612e2c565b9150509250929050565b7f4e487b7100000000000000000000000000000000000000000000000000000000600052602260045260246000fd5b600060028204905060018216806134e157607f821691505b6020821081036134f4576134f361349a565b5b50919050565b7f4552433732313a20617070726f76616c20746f2063757272656e74206f776e6560008201527f7200000000000000000000000000000000000000000000000000000000000000602082015250565b6000613556602183612caf565b9150613561826134fa565b604082019050919050565b6000602082019050818103600083015261358581613549565b9050919050565b7f4552433732313a20617070726f76652063616c6c6572206973206e6f7420746f60008201527f6b656e206f776e6572206f7220617070726f76656420666f7220616c6c000000602082015250565b60006135e8603d83612caf565b91506135f38261358c565b604082019050919050565b60006020820190508181036000830152613617816135db565b9050919050565b7f4552433732313a2063616c6c6572206973206e6f7420746f6b656e206f776e6560008201527f72206f7220617070726f76656400000000000000000000000000000000000000602082015250565b600061367a602d83612caf565b91506136858261361e565b604082019050919050565b600060208201905081810360008301526136a98161366d565b9050919050565b7f4e487b7100000000000000000000000000000000000000000000000000000000600052601160045260246000fd5b60006136ea82612d56565b91506136f583612d56565b925082820190508082111561370d5761370c6136b0565b5b92915050565b600061371e82612d56565b91507fffffffffffffffffffffffffffffffffffffffffffffffffffffffffffffffff82036137505761374f6136b0565b5b600182019050919050565b7f4e487b7100000000000000000000000000000000000000000000000000000000600052603260045260246000fd5b7f4552433732313a20696e76616c696420746f6b656e2049440000000000000000600082015250565b60006137c0601883612caf565b91506137cb8261378a565b602082019050919050565b600060208201905081810360008301526137ef816137b3565b9050919050565b7f4552433732313a2061646472657373207a65726f206973206e6f74206120766160008201527f6c6964206f776e65720000000000000000000000000000000000000000000000602082015250565b6000613852602983612caf565b915061385d826137f6565b604082019050919050565b6000602082019050818103600083015261388181613845565b9050919050565b600060408201905061389d6000830185612deb565b6138aa602083018461304c565b9392505050565b6000815190506138c0816132ca565b92915050565b6000602082840312156138dc576138db612bdf565b5b60006138ea848285016138b1565b91505092915050565b7f546f6b656e207472616e73666572206661696c65640000000000000000000000600082015250565b6000613929601583612caf565b9150613934826138f3565b602082019050919050565b600060208201905081810360008301526139588161391c565b9050919050565b7f4f6e6c79206f776e65722063616e20757064617465206c697374696e6720707260008201527f6963650000000000000000000000000000000000000000000000000000000000602082015250565b60006139bb602383612caf565b91506139c68261395f565b604082019050919050565b600060208201905081810360008301526139ea816139ae565b9050919050565b600081905092915050565b6000613a0782612ca4565b613a1181856139f1565b9350613a21818560208601612cc0565b80840191505092915050565b6000613a3982856139fc565b9150613a4582846139fc565b91508190509392505050565b7f4552433732313a207472616e736665722066726f6d20696e636f72726563742060008201527f6f776e6572000000000000000000000000000000000000000000000000000000602082015250565b6000613aad602583612caf565b9150613ab882613a51565b604082019050919050565b60006020820190508181036000830152613adc81613aa0565b9050919050565b7f4552433732313a207472616e7366657220746f20746865207a65726f2061646460008201527f7265737300000000000000000000000000000000000000000000000000000000602082015250565b6000613b3f602483612caf565b9150613b4a82613ae3565b604082019050919050565b60006020820190508181036000830152613b6e81613b32565b9050919050565b7f45524337323155524953746f726167653a2055524920736574206f66206e6f6e60008201527f6578697374656e7420746f6b656e000000000000000000000000000000000000602082015250565b6000613bd1602e83612caf565b9150613bdc82613b75565b604082019050919050565b60006020820190508181036000830152613c0081613bc4565b9050919050565b60008190508160005260206000209050919050565b60006020601f8301049050919050565b600082821b905092915050565b600060088302613c697fffffffffffffffffffffffffffffffffffffffffffffffffffffffffffffffff82613c2c565b613c738683613c2c565b95508019841693508086168417925050509392505050565b6000819050919050565b6000613cb0613cab613ca684612d56565b613c8b565b612d56565b9050919050565b6000819050919050565b613cca83613c95565b613cde613cd682613cb7565b848454613c39565b825550505050565b600090565b613cf3613ce6565b613cfe818484613cc1565b505050565b5b81811015613d2257613d17600082613ceb565b600181019050613d04565b5050565b601f821115613d6757613d3881613c07565b613d4184613c1c565b81016020851015613d50578190505b613d64613d5c85613c1c565b830182613d03565b50505b505050565b600082821c905092915050565b6000613d8a60001984600802613d6c565b1980831691505092915050565b6000613da38383613d79565b9150826002028217905092915050565b613dbc82612ca4565b67ffffffffffffffff811115613dd557613dd4613130565b5b613ddf82546134c9565b613dea828285613d26565b600060209050601f831160018114613e1d5760008415613e0b578287015190505b613e158582613d97565b865550613e7d565b601f198416613e2b86613c07565b60005b82811015613e5357848901518255600182019150602085019450602081019050613e2e565b86831015613e705784890151613e6c601f891682613d79565b8355505b6001600288020188555050505b505050505050565b7f506c656173652073656e642074686520636f7272656374206c697374696e672060008201527f6665650000000000000000000000000000000000000000000000000000000000602082015250565b6000613ee1602383612caf565b9150613eec82613e85565b604082019050919050565b60006020820190508181036000830152613f1081613ed4565b9050919050565b7f4d616b652073757265207468652070726963652069736e2774206e656761746960008201527f7665000000000000000000000000000000000000000000000000000000000000602082015250565b6000613f73602283612caf565b9150613f7e82613f17565b604082019050919050565b60006020820190508181036000830152613fa281613f66565b9050919050565b6000608082019050613fbe6000830187612deb565b613fcb6020830186612deb565b613fd8604083018561304c565b613fe56060830184612c7a565b95945050505050565b7f4552433732313a20617070726f766520746f2063616c6c657200000000000000600082015250565b6000614024601983612caf565b915061402f82613fee565b602082019050919050565b6000602082019050818103600083015261405381614017565b9050919050565b7f4552433732313a207472616e7366657220746f206e6f6e20455243373231526560008201527f63656976657220696d706c656d656e7465720000000000000000000000000000602082015250565b60006140b6603283612caf565b91506140c18261405a565b604082019050919050565b600060208201905081810360008301526140e5816140a9565b9050919050565b600081519050919050565b600082825260208201905092915050565b6000614113826140ec565b61411d81856140f7565b935061412d818560208601612cc0565b61413681612cea565b840191505092915050565b60006080820190506141566000830187612deb565b6141636020830186612deb565b614170604083018561304c565b81810360608301526141828184614108565b905095945050505050565b60008151905061419c81612c15565b92915050565b6000602082840312156141b8576141b7612bdf565b5b60006141c68482850161418d565b91505092915050565b7f4e487b7100000000000000000000000000000000000000000000000000000000600052601260045260246000fd5b7f4552433732313a206d696e7420746f20746865207a65726f2061646472657373600082015250565b6000614234602083612caf565b915061423f826141fe565b602082019050919050565b6000602082019050818103600083015261426381614227565b9050919050565b7f4552433732313a20746f6b656e20616c7265616479206d696e74656400000000600082015250565b60006142a0601c83612caf565b91506142ab8261426a565b602082019050919050565b600060208201905081810360008301526142cf81614293565b905091905056fea2646970667358221220c4bc926e78a1d5bce02116297930ce1e631e06779f1d39fedd09d080719169e064736f6c63430008120033",
  "linkReferences": {},
  "deployedLinkReferences": {}
}