{
  "_format": "hh-sol-artifact-1",
  "contractName": "NFT_marketPlace",
  "sourceName": "contracts/NFT_marketPlace.sol",
  "abi": [
    {
      "inputs": [
        {
          "internalType": "address",
          "name": "_wibuNFTAddress",
          "type": "address"
        },
        {
          "internalType": "address",
          "name": "_wibuTokenAddress",
          "type": "address"
        }
      ],
      "stateMutability": "nonpayable",
      "type": "constructor"
    },
    {
      "anonymous": false,
      "inputs": [
        {
          "indexed": true,
          "internalType": "uint256",
          "name": "tokenId",
          "type": "uint256"
        },
        {
          "indexed": false,
          "internalType": "address",
          "name": "owner",
          "type": "address"
        },
        {
          "indexed": false,
          "internalType": "address",
          "name": "seller",
          "type": "address"
        },
        {
          "indexed": false,
          "internalType": "uint256",
          "name": "price",
          "type": "uint256"
        },
        {
          "indexed": false,
          "internalType": "bool",
          "name": "currentlyListed",
          "type": "bool"
        }
      ],
      "name": "TokenListedSuccess",
      "type": "event"
    },
    {
      "inputs": [
        {
          "internalType": "uint256",
          "name": "_tokenId",
          "type": "uint256"
        }
      ],
      "name": "approveNft",
      "outputs": [],
      "stateMutability": "nonpayable",
      "type": "function"
    },
    {
      "inputs": [
        {
          "internalType": "uint256",
          "name": "_tokenId",
          "type": "uint256"
        }
      ],
      "name": "buyNft",
      "outputs": [],
      "stateMutability": "payable",
      "type": "function"
    },
    {
      "inputs": [
        {
          "internalType": "string",
          "name": "_NFT_url",
          "type": "string"
        },
        {
          "internalType": "uint256",
          "name": "_price",
          "type": "uint256"
        }
      ],
      "name": "createNft",
      "outputs": [
        {
          "internalType": "uint256",
          "name": "",
          "type": "uint256"
        }
      ],
      "stateMutability": "nonpayable",
      "type": "function"
    },
    {
      "inputs": [],
      "name": "getAllListedTokens",
      "outputs": [
        {
          "components": [
            {
              "internalType": "uint256",
              "name": "tokenId",
              "type": "uint256"
            },
            {
              "internalType": "address payable",
              "name": "owner",
              "type": "address"
            },
            {
              "internalType": "address payable",
              "name": "seller",
              "type": "address"
            },
            {
              "internalType": "uint256",
              "name": "price",
              "type": "uint256"
            },
            {
              "internalType": "bool",
              "name": "currentlyListed",
              "type": "bool"
            }
          ],
          "internalType": "struct NFT_marketPlace.ListedToken[]",
          "name": "",
          "type": "tuple[]"
        }
      ],
      "stateMutability": "view",
      "type": "function"
    },
    {
      "inputs": [
        {
          "internalType": "uint256",
          "name": "_tokenId",
          "type": "uint256"
        }
      ],
      "name": "getListedTokenForId",
      "outputs": [
        {
          "components": [
            {
              "internalType": "uint256",
              "name": "tokenId",
              "type": "uint256"
            },
            {
              "internalType": "address payable",
              "name": "owner",
              "type": "address"
            },
            {
              "internalType": "address payable",
              "name": "seller",
              "type": "address"
            },
            {
              "internalType": "uint256",
              "name": "price",
              "type": "uint256"
            },
            {
              "internalType": "bool",
              "name": "currentlyListed",
              "type": "bool"
            }
          ],
          "internalType": "struct NFT_marketPlace.ListedToken",
          "name": "",
          "type": "tuple"
        }
      ],
      "stateMutability": "view",
      "type": "function"
    },
    {
      "inputs": [],
      "name": "get_owner",
      "outputs": [
        {
          "internalType": "address",
          "name": "",
          "type": "address"
        }
      ],
      "stateMutability": "view",
      "type": "function"
    },
    {
      "inputs": [],
      "name": "get_wibuNFT",
      "outputs": [
        {
          "internalType": "address",
          "name": "",
          "type": "address"
        }
      ],
      "stateMutability": "view",
      "type": "function"
    },
    {
      "inputs": [],
      "name": "get_wibuToken",
      "outputs": [
        {
          "internalType": "address",
          "name": "",
          "type": "address"
        }
      ],
      "stateMutability": "view",
      "type": "function"
    },
    {
      "inputs": [
        {
          "internalType": "uint256",
          "name": "",
          "type": "uint256"
        }
      ],
      "name": "idToListedToken",
      "outputs": [
        {
          "internalType": "uint256",
          "name": "tokenId",
          "type": "uint256"
        },
        {
          "internalType": "address payable",
          "name": "owner",
          "type": "address"
        },
        {
          "internalType": "address payable",
          "name": "seller",
          "type": "address"
        },
        {
          "internalType": "uint256",
          "name": "price",
          "type": "uint256"
        },
        {
          "internalType": "bool",
          "name": "currentlyListed",
          "type": "bool"
        }
      ],
      "stateMutability": "view",
      "type": "function"
    },
    {
      "inputs": [],
      "name": "owner",
      "outputs": [
        {
          "internalType": "address",
          "name": "",
          "type": "address"
        }
      ],
      "stateMutability": "view",
      "type": "function"
    },
    {
      "inputs": [],
      "name": "totalNFTs",
      "outputs": [
        {
          "internalType": "uint256",
          "name": "",
          "type": "uint256"
        }
      ],
      "stateMutability": "view",
      "type": "function"
    },
    {
      "inputs": [
        {
          "internalType": "address",
          "name": "_to",
          "type": "address"
        },
        {
          "internalType": "uint256",
          "name": "_tokenId",
          "type": "uint256"
        }
      ],
      "name": "transctionNft",
      "outputs": [],
      "stateMutability": "nonpayable",
      "type": "function"
    },
    {
      "inputs": [],
      "name": "wibuNFT",
      "outputs": [
        {
          "internalType": "contract WibuNFT",
          "name": "",
          "type": "address"
        }
      ],
      "stateMutability": "view",
      "type": "function"
    },
    {
      "inputs": [],
      "name": "wibuToken",
      "outputs": [
        {
          "internalType": "contract WibuToken",
          "name": "",
          "type": "address"
        }
      ],
      "stateMutability": "view",
      "type": "function"
    }
  ],
  "bytecode": "0x60806040523480156200001157600080fd5b5060405162001c5038038062001c5083398181016040528101906200003791906200016b565b336000806101000a81548173ffffffffffffffffffffffffffffffffffffffff021916908373ffffffffffffffffffffffffffffffffffffffff16021790555081600260006101000a81548173ffffffffffffffffffffffffffffffffffffffff021916908373ffffffffffffffffffffffffffffffffffffffff16021790555080600360006101000a81548173ffffffffffffffffffffffffffffffffffffffff021916908373ffffffffffffffffffffffffffffffffffffffff1602179055505050620001b2565b600080fd5b600073ffffffffffffffffffffffffffffffffffffffff82169050919050565b6000620001338262000106565b9050919050565b620001458162000126565b81146200015157600080fd5b50565b60008151905062000165816200013a565b92915050565b6000806040838503121562000185576200018462000101565b5b6000620001958582860162000154565b9250506020620001a88582860162000154565b9150509250929050565b611a8e80620001c26000396000f3fe6080604052600436106100dd5760003560e01c80638da5cb5b1161007f578063a9e00ba411610059578063a9e00ba4146102a3578063b101b6e2146102ce578063e57a497a146102f9578063f13f73dc1461033a576100dd565b80638da5cb5b146102105780638e2645901461023b578063a50d998314610278576100dd565b8063243adbdd116100bb578063243adbdd146101615780633e73720c1461017d57806354596af9146101ba5780637be3251b146101e5576100dd565b80630ac298dc146100e25780630b3369771461010d5780630d0e96da14610136575b600080fd5b3480156100ee57600080fd5b506100f7610363565b604051610104919061116d565b60405180910390f35b34801561011957600080fd5b50610134600480360381019061012f91906111d2565b61038c565b005b34801561014257600080fd5b5061014b61043e565b604051610158919061120e565b60405180910390f35b61017b600480360381019061017691906111d2565b610444565b005b34801561018957600080fd5b506101a4600480360381019061019f919061136f565b610825565b6040516101b1919061120e565b60405180910390f35b3480156101c657600080fd5b506101cf610c13565b6040516101dc919061142a565b60405180910390f35b3480156101f157600080fd5b506101fa610c39565b6040516102079190611466565b60405180910390f35b34801561021c57600080fd5b50610225610c5f565b604051610232919061116d565b60405180910390f35b34801561024757600080fd5b50610262600480360381019061025d91906111d2565b610c83565b60405161026f9190611534565b60405180910390f35b34801561028457600080fd5b5061028d610d8b565b60405161029a9190611666565b60405180910390f35b3480156102af57600080fd5b506102b8610f63565b6040516102c5919061116d565b60405180910390f35b3480156102da57600080fd5b506102e3610f8d565b6040516102f0919061116d565b60405180910390f35b34801561030557600080fd5b50610320600480360381019061031b91906111d2565b610fb7565b6040516103319594939291906116a6565b60405180910390f35b34801561034657600080fd5b50610361600480360381019061035c9190611725565b61103a565b005b60008060009054906101000a900473ffffffffffffffffffffffffffffffffffffffff16905090565b600260009054906101000a900473ffffffffffffffffffffffffffffffffffffffff1673ffffffffffffffffffffffffffffffffffffffff1663095ea7b360008054906101000a900473ffffffffffffffffffffffffffffffffffffffff16836040518363ffffffff1660e01b8152600401610409929190611765565b600060405180830381600087803b15801561042357600080fd5b505af1158015610437573d6000803e3d6000fd5b5050505050565b60015481565b6000600460008381526020019081526020016000206040518060a0016040529081600082015481526020016001820160009054906101000a900473ffffffffffffffffffffffffffffffffffffffff1673ffffffffffffffffffffffffffffffffffffffff1673ffffffffffffffffffffffffffffffffffffffff1681526020016002820160009054906101000a900473ffffffffffffffffffffffffffffffffffffffff1673ffffffffffffffffffffffffffffffffffffffff1673ffffffffffffffffffffffffffffffffffffffff168152602001600382015481526020016004820160009054906101000a900460ff1615151515815250509050600081604001519050600082606001519050600360009054906101000a900473ffffffffffffffffffffffffffffffffffffffff1673ffffffffffffffffffffffffffffffffffffffff166323b872dd3384846040518463ffffffff1660e01b81526004016105b29392919061178e565b6020604051808303816000875af11580156105d1573d6000803e3d6000fd5b505050506040513d601f19601f820116820180604052508101906105f591906117f1565b610634576040517f08c379a000000000000000000000000000000000000000000000000000000000815260040161062b9061187b565b60405180910390fd5b600260009054906101000a900473ffffffffffffffffffffffffffffffffffffffff1673ffffffffffffffffffffffffffffffffffffffff166323b872dd8333876040518463ffffffff1660e01b81526004016106939392919061178e565b600060405180830381600087803b1580156106ad57600080fd5b505af11580156106c1573d6000803e3d6000fd5b5050505033836020019073ffffffffffffffffffffffffffffffffffffffff16908173ffffffffffffffffffffffffffffffffffffffff168152505033836040019073ffffffffffffffffffffffffffffffffffffffff16908173ffffffffffffffffffffffffffffffffffffffff1681525050600083608001901515908115158152505082600460008681526020019081526020016000206000820151816000015560208201518160010160006101000a81548173ffffffffffffffffffffffffffffffffffffffff021916908373ffffffffffffffffffffffffffffffffffffffff16021790555060408201518160020160006101000a81548173ffffffffffffffffffffffffffffffffffffffff021916908373ffffffffffffffffffffffffffffffffffffffff1602179055506060820151816003015560808201518160040160006101000a81548160ff02191690831515021790555090505050505050565b600080600260009054906101000a900473ffffffffffffffffffffffffffffffffffffffff1673ffffffffffffffffffffffffffffffffffffffff1663da2ed03e856040518263ffffffff1660e01b81526004016108839190611909565b6020604051808303816000875af11580156108a2573d6000803e3d6000fd5b505050506040513d601f19601f820116820180604052508101906108c69190611940565b9050600160008154809291906108db9061199c565b9190505550600260009054906101000a900473ffffffffffffffffffffffffffffffffffffffff1673ffffffffffffffffffffffffffffffffffffffff1663ad6ed71d826040518263ffffffff1660e01b815260040161093b919061120e565b600060405180830381600087803b15801561095557600080fd5b505af1158015610969573d6000803e3d6000fd5b50505050600260009054906101000a900473ffffffffffffffffffffffffffffffffffffffff1673ffffffffffffffffffffffffffffffffffffffff166394ab67fe60008054906101000a900473ffffffffffffffffffffffffffffffffffffffff16836040518363ffffffff1660e01b81526004016109ea929190611765565b600060405180830381600087803b158015610a0457600080fd5b505af1158015610a18573d6000803e3d6000fd5b505050506040518060a0016040528082815260200160008054906101000a900473ffffffffffffffffffffffffffffffffffffffff1673ffffffffffffffffffffffffffffffffffffffff16815260200160008054906101000a900473ffffffffffffffffffffffffffffffffffffffff1673ffffffffffffffffffffffffffffffffffffffff16815260200184815260200160011515815250600460008381526020019081526020016000206000820151816000015560208201518160010160006101000a81548173ffffffffffffffffffffffffffffffffffffffff021916908373ffffffffffffffffffffffffffffffffffffffff16021790555060408201518160020160006101000a81548173ffffffffffffffffffffffffffffffffffffffff021916908373ffffffffffffffffffffffffffffffffffffffff1602179055506060820151816003015560808201518160040160006101000a81548160ff021916908315150217905550905050807f9339409317fd01fabff48b703019016f49159bacc801ae872d2ca637d226e4c060008054906101000a900473ffffffffffffffffffffffffffffffffffffffff1660008054906101000a900473ffffffffffffffffffffffffffffffffffffffff16866001604051610c0194939291906119e4565b60405180910390a28091505092915050565b600260009054906101000a900473ffffffffffffffffffffffffffffffffffffffff1681565b600360009054906101000a900473ffffffffffffffffffffffffffffffffffffffff1681565b60008054906101000a900473ffffffffffffffffffffffffffffffffffffffff1681565b610c8b6110cf565b600460008381526020019081526020016000206040518060a0016040529081600082015481526020016001820160009054906101000a900473ffffffffffffffffffffffffffffffffffffffff1673ffffffffffffffffffffffffffffffffffffffff1673ffffffffffffffffffffffffffffffffffffffff1681526020016002820160009054906101000a900473ffffffffffffffffffffffffffffffffffffffff1673ffffffffffffffffffffffffffffffffffffffff1673ffffffffffffffffffffffffffffffffffffffff168152602001600382015481526020016004820160009054906101000a900460ff1615151515815250509050919050565b6060600060015467ffffffffffffffff811115610dab57610daa611244565b5b604051908082528060200260200182016040528015610de457816020015b610dd16110cf565b815260200190600190039081610dc95790505b509050600080600190505b6001548111610f5a576004600082815260200190815260200160002060040160009054906101000a900460ff1615610f4757600460008281526020019081526020016000206040518060a0016040529081600082015481526020016001820160009054906101000a900473ffffffffffffffffffffffffffffffffffffffff1673ffffffffffffffffffffffffffffffffffffffff1673ffffffffffffffffffffffffffffffffffffffff1681526020016002820160009054906101000a900473ffffffffffffffffffffffffffffffffffffffff1673ffffffffffffffffffffffffffffffffffffffff1673ffffffffffffffffffffffffffffffffffffffff168152602001600382015481526020016004820160009054906101000a900460ff161515151581525050838381518110610f2d57610f2c611a29565b5b60200260200101819052508180610f439061199c565b9250505b8080610f529061199c565b915050610def565b50819250505090565b6000600260009054906101000a900473ffffffffffffffffffffffffffffffffffffffff16905090565b6000600360009054906101000a900473ffffffffffffffffffffffffffffffffffffffff16905090565b60046020528060005260406000206000915090508060000154908060010160009054906101000a900473ffffffffffffffffffffffffffffffffffffffff16908060020160009054906101000a900473ffffffffffffffffffffffffffffffffffffffff16908060030154908060040160009054906101000a900460ff16905085565b600260009054906101000a900473ffffffffffffffffffffffffffffffffffffffff1673ffffffffffffffffffffffffffffffffffffffff166323b872dd3384846040518463ffffffff1660e01b81526004016110999392919061178e565b600060405180830381600087803b1580156110b357600080fd5b505af11580156110c7573d6000803e3d6000fd5b505050505050565b6040518060a0016040528060008152602001600073ffffffffffffffffffffffffffffffffffffffff168152602001600073ffffffffffffffffffffffffffffffffffffffff168152602001600081526020016000151581525090565b600073ffffffffffffffffffffffffffffffffffffffff82169050919050565b60006111578261112c565b9050919050565b6111678161114c565b82525050565b6000602082019050611182600083018461115e565b92915050565b6000604051905090565b600080fd5b600080fd5b6000819050919050565b6111af8161119c565b81146111ba57600080fd5b50565b6000813590506111cc816111a6565b92915050565b6000602082840312156111e8576111e7611192565b5b60006111f6848285016111bd565b91505092915050565b6112088161119c565b82525050565b600060208201905061122360008301846111ff565b92915050565b600080fd5b600080fd5b6000601f19601f8301169050919050565b7f4e487b7100000000000000000000000000000000000000000000000000000000600052604160045260246000fd5b61127c82611233565b810181811067ffffffffffffffff8211171561129b5761129a611244565b5b80604052505050565b60006112ae611188565b90506112ba8282611273565b919050565b600067ffffffffffffffff8211156112da576112d9611244565b5b6112e382611233565b9050602081019050919050565b82818337600083830152505050565b600061131261130d846112bf565b6112a4565b90508281526020810184848401111561132e5761132d61122e565b5b6113398482856112f0565b509392505050565b600082601f83011261135657611355611229565b5b81356113668482602086016112ff565b91505092915050565b6000806040838503121561138657611385611192565b5b600083013567ffffffffffffffff8111156113a4576113a3611197565b5b6113b085828601611341565b92505060206113c1858286016111bd565b9150509250929050565b6000819050919050565b60006113f06113eb6113e68461112c565b6113cb565b61112c565b9050919050565b6000611402826113d5565b9050919050565b6000611414826113f7565b9050919050565b61142481611409565b82525050565b600060208201905061143f600083018461141b565b92915050565b6000611450826113f7565b9050919050565b61146081611445565b82525050565b600060208201905061147b6000830184611457565b92915050565b61148a8161119c565b82525050565b600061149b8261112c565b9050919050565b6114ab81611490565b82525050565b60008115159050919050565b6114c6816114b1565b82525050565b60a0820160008201516114e26000850182611481565b5060208201516114f560208501826114a2565b50604082015161150860408501826114a2565b50606082015161151b6060850182611481565b50608082015161152e60808501826114bd565b50505050565b600060a08201905061154960008301846114cc565b92915050565b600081519050919050565b600082825260208201905092915050565b6000819050602082019050919050565b60a0820160008201516115916000850182611481565b5060208201516115a460208501826114a2565b5060408201516115b760408501826114a2565b5060608201516115ca6060850182611481565b5060808201516115dd60808501826114bd565b50505050565b60006115ef838361157b565b60a08301905092915050565b6000602082019050919050565b60006116138261154f565b61161d818561155a565b93506116288361156b565b8060005b8381101561165957815161164088826115e3565b975061164b836115fb565b92505060018101905061162c565b5085935050505092915050565b600060208201905081810360008301526116808184611608565b905092915050565b61169181611490565b82525050565b6116a0816114b1565b82525050565b600060a0820190506116bb60008301886111ff565b6116c86020830187611688565b6116d56040830186611688565b6116e260608301856111ff565b6116ef6080830184611697565b9695505050505050565b6117028161114c565b811461170d57600080fd5b50565b60008135905061171f816116f9565b92915050565b6000806040838503121561173c5761173b611192565b5b600061174a85828601611710565b925050602061175b858286016111bd565b9150509250929050565b600060408201905061177a600083018561115e565b61178760208301846111ff565b9392505050565b60006060820190506117a3600083018661115e565b6117b0602083018561115e565b6117bd60408301846111ff565b949350505050565b6117ce816114b1565b81146117d957600080fd5b50565b6000815190506117eb816117c5565b92915050565b60006020828403121561180757611806611192565b5b6000611815848285016117dc565b91505092915050565b600082825260208201905092915050565b7f546f6b656e207472616e73666572206661696c65640000000000000000000000600082015250565b600061186560158361181e565b91506118708261182f565b602082019050919050565b6000602082019050818103600083015261189481611858565b9050919050565b600081519050919050565b60005b838110156118c45780820151818401526020810190506118a9565b60008484015250505050565b60006118db8261189b565b6118e5818561181e565b93506118f58185602086016118a6565b6118fe81611233565b840191505092915050565b6000602082019050818103600083015261192381846118d0565b905092915050565b60008151905061193a816111a6565b92915050565b60006020828403121561195657611955611192565b5b60006119648482850161192b565b91505092915050565b7f4e487b7100000000000000000000000000000000000000000000000000000000600052601160045260246000fd5b60006119a78261119c565b91507fffffffffffffffffffffffffffffffffffffffffffffffffffffffffffffffff82036119d9576119d861196d565b5b600182019050919050565b60006080820190506119f9600083018761115e565b611a06602083018661115e565b611a1360408301856111ff565b611a206060830184611697565b95945050505050565b7f4e487b7100000000000000000000000000000000000000000000000000000000600052603260045260246000fdfea264697066735822122087c1cb45fe9ebe0b8717a70daabef6491e488ba9b7e943b444e2058ece836f0964736f6c63430008120033",
  "linkReferences": {},
  "deployedLinkReferences": {}
}