{
  "_format": "hh-sol-artifact-1",
  "contractName": "NFT_marketPlace",
  "sourceName": "contracts/NFT_marketPlace.sol",
  "abi": [
    {
      "inputs": [
        {
          "internalType": "address",
          "name": "_wibuNFTAddress",
          "type": "address"
        },
        {
          "internalType": "address",
          "name": "_wibuTokenAddress",
          "type": "address"
        }
      ],
      "stateMutability": "nonpayable",
      "type": "constructor"
    },
    {
      "anonymous": false,
      "inputs": [
        {
          "indexed": true,
          "internalType": "uint256",
          "name": "tokenId",
          "type": "uint256"
        },
        {
          "indexed": false,
          "internalType": "address",
          "name": "owner",
          "type": "address"
        },
        {
          "indexed": false,
          "internalType": "address",
          "name": "seller",
          "type": "address"
        },
        {
          "indexed": false,
          "internalType": "uint256",
          "name": "price",
          "type": "uint256"
        },
        {
          "indexed": false,
          "internalType": "bool",
          "name": "currentlyListed",
          "type": "bool"
        }
      ],
      "name": "TokenListedSuccess",
      "type": "event"
    },
    {
      "inputs": [
        {
          "internalType": "uint256",
          "name": "_tokenId",
          "type": "uint256"
        },
        {
          "internalType": "uint256",
          "name": "_price",
          "type": "uint256"
        }
      ],
      "name": "ListedNFT",
      "outputs": [
        {
          "components": [
            {
              "internalType": "uint256",
              "name": "tokenId",
              "type": "uint256"
            },
            {
              "internalType": "address payable",
              "name": "owner",
              "type": "address"
            },
            {
              "internalType": "address payable",
              "name": "seller",
              "type": "address"
            },
            {
              "internalType": "uint256",
              "name": "price",
              "type": "uint256"
            },
            {
              "internalType": "bool",
              "name": "currentlyListed",
              "type": "bool"
            }
          ],
          "internalType": "struct NFT_marketPlace.ListedToken",
          "name": "",
          "type": "tuple"
        }
      ],
      "stateMutability": "nonpayable",
      "type": "function"
    },
    {
      "inputs": [
        {
          "internalType": "uint256",
          "name": "_tokenId",
          "type": "uint256"
        }
      ],
      "name": "approveNft",
      "outputs": [],
      "stateMutability": "nonpayable",
      "type": "function"
    },
    {
      "inputs": [
        {
          "internalType": "uint256",
          "name": "_tokenId",
          "type": "uint256"
        }
      ],
      "name": "buyNft",
      "outputs": [],
      "stateMutability": "payable",
      "type": "function"
    },
    {
      "inputs": [
        {
          "internalType": "uint256[]",
          "name": "_listTokenId",
          "type": "uint256[]"
        }
      ],
      "name": "currentlyListedMyNFT",
      "outputs": [
        {
          "components": [
            {
              "internalType": "uint256",
              "name": "tokenId",
              "type": "uint256"
            },
            {
              "internalType": "address payable",
              "name": "owner",
              "type": "address"
            },
            {
              "internalType": "address payable",
              "name": "seller",
              "type": "address"
            },
            {
              "internalType": "uint256",
              "name": "price",
              "type": "uint256"
            },
            {
              "internalType": "bool",
              "name": "currentlyListed",
              "type": "bool"
            }
          ],
          "internalType": "struct NFT_marketPlace.ListedToken[]",
          "name": "",
          "type": "tuple[]"
        }
      ],
      "stateMutability": "nonpayable",
      "type": "function"
    },
    {
      "inputs": [
        {
          "internalType": "uint256[]",
          "name": "_listTokenId",
          "type": "uint256[]"
        }
      ],
      "name": "currentlyUnlistedMyNFT",
      "outputs": [
        {
          "components": [
            {
              "internalType": "uint256",
              "name": "tokenId",
              "type": "uint256"
            },
            {
              "internalType": "address payable",
              "name": "owner",
              "type": "address"
            },
            {
              "internalType": "address payable",
              "name": "seller",
              "type": "address"
            },
            {
              "internalType": "uint256",
              "name": "price",
              "type": "uint256"
            },
            {
              "internalType": "bool",
              "name": "currentlyListed",
              "type": "bool"
            }
          ],
          "internalType": "struct NFT_marketPlace.ListedToken[]",
          "name": "",
          "type": "tuple[]"
        }
      ],
      "stateMutability": "nonpayable",
      "type": "function"
    },
    {
      "inputs": [
        {
          "internalType": "uint256",
          "name": "_tokenId",
          "type": "uint256"
        },
        {
          "internalType": "uint256",
          "name": "_price",
          "type": "uint256"
        }
      ],
      "name": "editPriceNft",
      "outputs": [],
      "stateMutability": "nonpayable",
      "type": "function"
    },
    {
      "inputs": [],
      "name": "getAllListedTokens",
      "outputs": [
        {
          "components": [
            {
              "internalType": "uint256",
              "name": "tokenId",
              "type": "uint256"
            },
            {
              "internalType": "address payable",
              "name": "owner",
              "type": "address"
            },
            {
              "internalType": "address payable",
              "name": "seller",
              "type": "address"
            },
            {
              "internalType": "uint256",
              "name": "price",
              "type": "uint256"
            },
            {
              "internalType": "bool",
              "name": "currentlyListed",
              "type": "bool"
            }
          ],
          "internalType": "struct NFT_marketPlace.ListedToken[]",
          "name": "",
          "type": "tuple[]"
        }
      ],
      "stateMutability": "view",
      "type": "function"
    },
    {
      "inputs": [],
      "name": "getAllNFTs",
      "outputs": [
        {
          "components": [
            {
              "internalType": "uint256",
              "name": "tokenId",
              "type": "uint256"
            },
            {
              "internalType": "address payable",
              "name": "owner",
              "type": "address"
            },
            {
              "internalType": "address payable",
              "name": "seller",
              "type": "address"
            },
            {
              "internalType": "uint256",
              "name": "price",
              "type": "uint256"
            },
            {
              "internalType": "bool",
              "name": "currentlyListed",
              "type": "bool"
            }
          ],
          "internalType": "struct NFT_marketPlace.ListedToken[]",
          "name": "",
          "type": "tuple[]"
        }
      ],
      "stateMutability": "view",
      "type": "function"
    },
    {
      "inputs": [
        {
          "internalType": "uint256",
          "name": "_tokenId",
          "type": "uint256"
        }
      ],
      "name": "getListedTokenForId",
      "outputs": [
        {
          "components": [
            {
              "internalType": "uint256",
              "name": "tokenId",
              "type": "uint256"
            },
            {
              "internalType": "address payable",
              "name": "owner",
              "type": "address"
            },
            {
              "internalType": "address payable",
              "name": "seller",
              "type": "address"
            },
            {
              "internalType": "uint256",
              "name": "price",
              "type": "uint256"
            },
            {
              "internalType": "bool",
              "name": "currentlyListed",
              "type": "bool"
            }
          ],
          "internalType": "struct NFT_marketPlace.ListedToken",
          "name": "",
          "type": "tuple"
        }
      ],
      "stateMutability": "view",
      "type": "function"
    },
    {
      "inputs": [],
      "name": "getMyNFTs",
      "outputs": [
        {
          "components": [
            {
              "internalType": "uint256",
              "name": "tokenId",
              "type": "uint256"
            },
            {
              "internalType": "address payable",
              "name": "owner",
              "type": "address"
            },
            {
              "internalType": "address payable",
              "name": "seller",
              "type": "address"
            },
            {
              "internalType": "uint256",
              "name": "price",
              "type": "uint256"
            },
            {
              "internalType": "bool",
              "name": "currentlyListed",
              "type": "bool"
            }
          ],
          "internalType": "struct NFT_marketPlace.ListedToken[]",
          "name": "",
          "type": "tuple[]"
        }
      ],
      "stateMutability": "view",
      "type": "function"
    },
    {
      "inputs": [],
      "name": "get_owner",
      "outputs": [
        {
          "internalType": "address",
          "name": "",
          "type": "address"
        }
      ],
      "stateMutability": "view",
      "type": "function"
    },
    {
      "inputs": [],
      "name": "get_wibuNFT",
      "outputs": [
        {
          "internalType": "address",
          "name": "",
          "type": "address"
        }
      ],
      "stateMutability": "view",
      "type": "function"
    },
    {
      "inputs": [],
      "name": "get_wibuToken",
      "outputs": [
        {
          "internalType": "address",
          "name": "",
          "type": "address"
        }
      ],
      "stateMutability": "view",
      "type": "function"
    },
    {
      "inputs": [
        {
          "internalType": "uint256",
          "name": "",
          "type": "uint256"
        }
      ],
      "name": "idToListedToken",
      "outputs": [
        {
          "internalType": "uint256",
          "name": "tokenId",
          "type": "uint256"
        },
        {
          "internalType": "address payable",
          "name": "owner",
          "type": "address"
        },
        {
          "internalType": "address payable",
          "name": "seller",
          "type": "address"
        },
        {
          "internalType": "uint256",
          "name": "price",
          "type": "uint256"
        },
        {
          "internalType": "bool",
          "name": "currentlyListed",
          "type": "bool"
        }
      ],
      "stateMutability": "view",
      "type": "function"
    },
    {
      "inputs": [],
      "name": "owner",
      "outputs": [
        {
          "internalType": "address",
          "name": "",
          "type": "address"
        }
      ],
      "stateMutability": "view",
      "type": "function"
    },
    {
      "inputs": [],
      "name": "totalNFTs",
      "outputs": [
        {
          "internalType": "uint256",
          "name": "",
          "type": "uint256"
        }
      ],
      "stateMutability": "view",
      "type": "function"
    },
    {
      "inputs": [
        {
          "internalType": "address",
          "name": "_to",
          "type": "address"
        },
        {
          "internalType": "uint256",
          "name": "_tokenId",
          "type": "uint256"
        }
      ],
      "name": "transctionNft",
      "outputs": [],
      "stateMutability": "nonpayable",
      "type": "function"
    },
    {
      "inputs": [],
      "name": "wibuNFT",
      "outputs": [
        {
          "internalType": "contract WibuNFT",
          "name": "",
          "type": "address"
        }
      ],
      "stateMutability": "view",
      "type": "function"
    },
    {
      "inputs": [],
      "name": "wibuToken",
      "outputs": [
        {
          "internalType": "contract WibuToken",
          "name": "",
          "type": "address"
        }
      ],
      "stateMutability": "view",
      "type": "function"
    }
  ],
  "bytecode": "0x60806040523480156200001157600080fd5b5060405162002b1238038062002b1283398181016040528101906200003791906200016b565b336000806101000a81548173ffffffffffffffffffffffffffffffffffffffff021916908373ffffffffffffffffffffffffffffffffffffffff16021790555081600260006101000a81548173ffffffffffffffffffffffffffffffffffffffff021916908373ffffffffffffffffffffffffffffffffffffffff16021790555080600360006101000a81548173ffffffffffffffffffffffffffffffffffffffff021916908373ffffffffffffffffffffffffffffffffffffffff1602179055505050620001b2565b600080fd5b600073ffffffffffffffffffffffffffffffffffffffff82169050919050565b6000620001338262000106565b9050919050565b620001458162000126565b81146200015157600080fd5b50565b60008151905062000165816200013a565b92915050565b6000806040838503121562000185576200018462000101565b5b6000620001958582860162000154565b9250506020620001a88582860162000154565b9150509250929050565b61295080620001c26000396000f3fe6080604052600436106101145760003560e01c80638da5cb5b116100a0578063b101b6e211610064578063b101b6e214610396578063ca466e56146103c1578063e0391b09146103fe578063e57a497a14610429578063f13f73dc1461046a57610114565b80638da5cb5b1461029b5780638e264590146102c6578063a50d998314610303578063a64972aa1461032e578063a9e00ba41461036b57610114565b806354596af9116100e757806354596af9146101b45780635b0153f7146101df578063629cb2e41461021c57806378b43824146102475780637be3251b1461027057610114565b80630ac298dc146101195780630b336977146101445780630d0e96da1461016d578063243adbdd14610198575b600080fd5b34801561012557600080fd5b5061012e610493565b60405161013b919061202f565b60405180910390f35b34801561015057600080fd5b5061016b60048036038101906101669190612094565b6104bc565b005b34801561017957600080fd5b5061018261056e565b60405161018f91906120d0565b60405180910390f35b6101b260048036038101906101ad9190612094565b610574565b005b3480156101c057600080fd5b506101c9610955565b6040516101d6919061214a565b60405180910390f35b3480156101eb57600080fd5b50610206600480360381019061020191906122be565b61097b565b6040516102139190612469565b60405180910390f35b34801561022857600080fd5b50610231610c89565b60405161023e9190612469565b60405180910390f35b34801561025357600080fd5b5061026e6004803603810190610269919061248b565b610ea1565b005b34801561027c57600080fd5b506102856110f8565b60405161029291906124ec565b60405180910390f35b3480156102a757600080fd5b506102b061111e565b6040516102bd919061202f565b60405180910390f35b3480156102d257600080fd5b506102ed60048036038101906102e89190612094565b611142565b6040516102fa919061256f565b60405180910390f35b34801561030f57600080fd5b5061031861124a565b6040516103259190612469565b60405180910390f35b34801561033a57600080fd5b50610355600480360381019061035091906122be565b611422565b6040516103629190612469565b60405180910390f35b34801561037757600080fd5b50610380611730565b60405161038d919061202f565b60405180910390f35b3480156103a257600080fd5b506103ab61175a565b6040516103b8919061202f565b60405180910390f35b3480156103cd57600080fd5b506103e860048036038101906103e3919061248b565b611784565b6040516103f5919061256f565b60405180910390f35b34801561040a57600080fd5b50610413611a12565b6040516104209190612469565b60405180910390f35b34801561043557600080fd5b50610450600480360381019061044b9190612094565b611bc0565b6040516104619594939291906125a8565b60405180910390f35b34801561047657600080fd5b50610491600480360381019061048c9190612627565b611c43565b005b60008060009054906101000a900473ffffffffffffffffffffffffffffffffffffffff16905090565b600260009054906101000a900473ffffffffffffffffffffffffffffffffffffffff1673ffffffffffffffffffffffffffffffffffffffff1663095ea7b360008054906101000a900473ffffffffffffffffffffffffffffffffffffffff16836040518363ffffffff1660e01b8152600401610539929190612667565b600060405180830381600087803b15801561055357600080fd5b505af1158015610567573d6000803e3d6000fd5b5050505050565b60015481565b6000600460008381526020019081526020016000206040518060a0016040529081600082015481526020016001820160009054906101000a900473ffffffffffffffffffffffffffffffffffffffff1673ffffffffffffffffffffffffffffffffffffffff1673ffffffffffffffffffffffffffffffffffffffff1681526020016002820160009054906101000a900473ffffffffffffffffffffffffffffffffffffffff1673ffffffffffffffffffffffffffffffffffffffff1673ffffffffffffffffffffffffffffffffffffffff168152602001600382015481526020016004820160009054906101000a900460ff1615151515815250509050600081604001519050600082606001519050600360009054906101000a900473ffffffffffffffffffffffffffffffffffffffff1673ffffffffffffffffffffffffffffffffffffffff166323b872dd3384846040518463ffffffff1660e01b81526004016106e293929190612690565b6020604051808303816000875af1158015610701573d6000803e3d6000fd5b505050506040513d601f19601f8201168201806040525081019061072591906126f3565b610764576040517f08c379a000000000000000000000000000000000000000000000000000000000815260040161075b9061277d565b60405180910390fd5b600260009054906101000a900473ffffffffffffffffffffffffffffffffffffffff1673ffffffffffffffffffffffffffffffffffffffff166323b872dd8333876040518463ffffffff1660e01b81526004016107c393929190612690565b600060405180830381600087803b1580156107dd57600080fd5b505af11580156107f1573d6000803e3d6000fd5b5050505033836020019073ffffffffffffffffffffffffffffffffffffffff16908173ffffffffffffffffffffffffffffffffffffffff168152505033836040019073ffffffffffffffffffffffffffffffffffffffff16908173ffffffffffffffffffffffffffffffffffffffff1681525050600083608001901515908115158152505082600460008681526020019081526020016000206000820151816000015560208201518160010160006101000a81548173ffffffffffffffffffffffffffffffffffffffff021916908373ffffffffffffffffffffffffffffffffffffffff16021790555060408201518160020160006101000a81548173ffffffffffffffffffffffffffffffffffffffff021916908373ffffffffffffffffffffffffffffffffffffffff1602179055506060820151816003015560808201518160040160006101000a81548160ff02191690831515021790555090505050505050565b600260009054906101000a900473ffffffffffffffffffffffffffffffffffffffff1681565b60606000825167ffffffffffffffff81111561099a5761099961217b565b5b6040519080825280602002602001820160405280156109d357816020015b6109c0611f91565b8152602001906001900390816109b85790505b50905060006109e0611f91565b60005b8551811015610c7d5760046000878381518110610a0357610a0261279d565b5b602002602001015181526020019081526020016000206040518060a0016040529081600082015481526020016001820160009054906101000a900473ffffffffffffffffffffffffffffffffffffffff1673ffffffffffffffffffffffffffffffffffffffff1673ffffffffffffffffffffffffffffffffffffffff1681526020016002820160009054906101000a900473ffffffffffffffffffffffffffffffffffffffff1673ffffffffffffffffffffffffffffffffffffffff1673ffffffffffffffffffffffffffffffffffffffff168152602001600382015481526020016004820160009054906101000a900460ff16151515158152505091503373ffffffffffffffffffffffffffffffffffffffff16826040015173ffffffffffffffffffffffffffffffffffffffff1603610c6a57600082608001901515908115158152505081848481518110610b5d57610b5c61279d565b5b60200260200101819052508160046000888481518110610b8057610b7f61279d565b5b602002602001015181526020019081526020016000206000820151816000015560208201518160010160006101000a81548173ffffffffffffffffffffffffffffffffffffffff021916908373ffffffffffffffffffffffffffffffffffffffff16021790555060408201518160020160006101000a81548173ffffffffffffffffffffffffffffffffffffffff021916908373ffffffffffffffffffffffffffffffffffffffff1602179055506060820151816003015560808201518160040160006101000a81548160ff0219169083151502179055509050508280610c66906127fb565b9350505b8080610c75906127fb565b9150506109e3565b50829350505050919050565b6060600060015467ffffffffffffffff811115610ca957610ca861217b565b5b604051908082528060200260200182016040528015610ce257816020015b610ccf611f91565b815260200190600190039081610cc75790505b509050600080600190505b6001548111610e98573373ffffffffffffffffffffffffffffffffffffffff166004600083815260200190815260200160002060010160009054906101000a900473ffffffffffffffffffffffffffffffffffffffff1673ffffffffffffffffffffffffffffffffffffffff1603610e8557600460008281526020019081526020016000206040518060a0016040529081600082015481526020016001820160009054906101000a900473ffffffffffffffffffffffffffffffffffffffff1673ffffffffffffffffffffffffffffffffffffffff1673ffffffffffffffffffffffffffffffffffffffff1681526020016002820160009054906101000a900473ffffffffffffffffffffffffffffffffffffffff1673ffffffffffffffffffffffffffffffffffffffff1673ffffffffffffffffffffffffffffffffffffffff168152602001600382015481526020016004820160009054906101000a900460ff161515151581525050838381518110610e6b57610e6a61279d565b5b60200260200101819052508180610e81906127fb565b9250505b8080610e90906127fb565b915050610ced565b50819250505090565b6000600460008481526020019081526020016000206040518060a0016040529081600082015481526020016001820160009054906101000a900473ffffffffffffffffffffffffffffffffffffffff1673ffffffffffffffffffffffffffffffffffffffff1673ffffffffffffffffffffffffffffffffffffffff1681526020016002820160009054906101000a900473ffffffffffffffffffffffffffffffffffffffff1673ffffffffffffffffffffffffffffffffffffffff1673ffffffffffffffffffffffffffffffffffffffff168152602001600382015481526020016004820160009054906101000a900460ff16151515158152505090503373ffffffffffffffffffffffffffffffffffffffff16816020015173ffffffffffffffffffffffffffffffffffffffff1614611010576040517f08c379a0000000000000000000000000000000000000000000000000000000008152600401611007906128b5565b60405180910390fd5b8181606001818152505080600460008581526020019081526020016000206000820151816000015560208201518160010160006101000a81548173ffffffffffffffffffffffffffffffffffffffff021916908373ffffffffffffffffffffffffffffffffffffffff16021790555060408201518160020160006101000a81548173ffffffffffffffffffffffffffffffffffffffff021916908373ffffffffffffffffffffffffffffffffffffffff1602179055506060820151816003015560808201518160040160006101000a81548160ff021916908315150217905550905050505050565b600360009054906101000a900473ffffffffffffffffffffffffffffffffffffffff1681565b60008054906101000a900473ffffffffffffffffffffffffffffffffffffffff1681565b61114a611f91565b600460008381526020019081526020016000206040518060a0016040529081600082015481526020016001820160009054906101000a900473ffffffffffffffffffffffffffffffffffffffff1673ffffffffffffffffffffffffffffffffffffffff1673ffffffffffffffffffffffffffffffffffffffff1681526020016002820160009054906101000a900473ffffffffffffffffffffffffffffffffffffffff1673ffffffffffffffffffffffffffffffffffffffff1673ffffffffffffffffffffffffffffffffffffffff168152602001600382015481526020016004820160009054906101000a900460ff1615151515815250509050919050565b6060600060015467ffffffffffffffff81111561126a5761126961217b565b5b6040519080825280602002602001820160405280156112a357816020015b611290611f91565b8152602001906001900390816112885790505b509050600080600190505b6001548111611419576004600082815260200190815260200160002060040160009054906101000a900460ff161561140657600460008281526020019081526020016000206040518060a0016040529081600082015481526020016001820160009054906101000a900473ffffffffffffffffffffffffffffffffffffffff1673ffffffffffffffffffffffffffffffffffffffff1673ffffffffffffffffffffffffffffffffffffffff1681526020016002820160009054906101000a900473ffffffffffffffffffffffffffffffffffffffff1673ffffffffffffffffffffffffffffffffffffffff1673ffffffffffffffffffffffffffffffffffffffff168152602001600382015481526020016004820160009054906101000a900460ff1615151515815250508383815181106113ec576113eb61279d565b5b60200260200101819052508180611402906127fb565b9250505b8080611411906127fb565b9150506112ae565b50819250505090565b60606000825167ffffffffffffffff8111156114415761144061217b565b5b60405190808252806020026020018201604052801561147a57816020015b611467611f91565b81526020019060019003908161145f5790505b5090506000611487611f91565b60005b855181101561172457600460008783815181106114aa576114a961279d565b5b602002602001015181526020019081526020016000206040518060a0016040529081600082015481526020016001820160009054906101000a900473ffffffffffffffffffffffffffffffffffffffff1673ffffffffffffffffffffffffffffffffffffffff1673ffffffffffffffffffffffffffffffffffffffff1681526020016002820160009054906101000a900473ffffffffffffffffffffffffffffffffffffffff1673ffffffffffffffffffffffffffffffffffffffff1673ffffffffffffffffffffffffffffffffffffffff168152602001600382015481526020016004820160009054906101000a900460ff16151515158152505091503373ffffffffffffffffffffffffffffffffffffffff16826040015173ffffffffffffffffffffffffffffffffffffffff1603611711576001826080019015159081151581525050818484815181106116045761160361279d565b5b602002602001018190525081600460008884815181106116275761162661279d565b5b602002602001015181526020019081526020016000206000820151816000015560208201518160010160006101000a81548173ffffffffffffffffffffffffffffffffffffffff021916908373ffffffffffffffffffffffffffffffffffffffff16021790555060408201518160020160006101000a81548173ffffffffffffffffffffffffffffffffffffffff021916908373ffffffffffffffffffffffffffffffffffffffff1602179055506060820151816003015560808201518160040160006101000a81548160ff021916908315150217905550905050828061170d906127fb565b9350505b808061171c906127fb565b91505061148a565b50829350505050919050565b6000600260009054906101000a900473ffffffffffffffffffffffffffffffffffffffff16905090565b6000600360009054906101000a900473ffffffffffffffffffffffffffffffffffffffff16905090565b61178c611f91565b6001600081548092919061179f906127fb565b91905055506040518060a001604052808481526020013373ffffffffffffffffffffffffffffffffffffffff1681526020013373ffffffffffffffffffffffffffffffffffffffff16815260200183815260200160011515815250600460008581526020019081526020016000206000820151816000015560208201518160010160006101000a81548173ffffffffffffffffffffffffffffffffffffffff021916908373ffffffffffffffffffffffffffffffffffffffff16021790555060408201518160020160006101000a81548173ffffffffffffffffffffffffffffffffffffffff021916908373ffffffffffffffffffffffffffffffffffffffff1602179055506060820151816003015560808201518160040160006101000a81548160ff021916908315150217905550905050827f9339409317fd01fabff48b703019016f49159bacc801ae872d2ca637d226e4c0333385600160405161190994939291906128d5565b60405180910390a2600460008481526020019081526020016000206040518060a0016040529081600082015481526020016001820160009054906101000a900473ffffffffffffffffffffffffffffffffffffffff1673ffffffffffffffffffffffffffffffffffffffff1673ffffffffffffffffffffffffffffffffffffffff1681526020016002820160009054906101000a900473ffffffffffffffffffffffffffffffffffffffff1673ffffffffffffffffffffffffffffffffffffffff1673ffffffffffffffffffffffffffffffffffffffff168152602001600382015481526020016004820160009054906101000a900460ff161515151581525050905092915050565b6060600060015467ffffffffffffffff811115611a3257611a3161217b565b5b604051908082528060200260200182016040528015611a6b57816020015b611a58611f91565b815260200190600190039081611a505790505b509050600080600190505b6001548111611bb757600460008281526020019081526020016000206040518060a0016040529081600082015481526020016001820160009054906101000a900473ffffffffffffffffffffffffffffffffffffffff1673ffffffffffffffffffffffffffffffffffffffff1673ffffffffffffffffffffffffffffffffffffffff1681526020016002820160009054906101000a900473ffffffffffffffffffffffffffffffffffffffff1673ffffffffffffffffffffffffffffffffffffffff1673ffffffffffffffffffffffffffffffffffffffff168152602001600382015481526020016004820160009054906101000a900460ff161515151581525050838381518110611b8b57611b8a61279d565b5b60200260200101819052508180611ba1906127fb565b9250508080611baf906127fb565b915050611a76565b50819250505090565b60046020528060005260406000206000915090508060000154908060010160009054906101000a900473ffffffffffffffffffffffffffffffffffffffff16908060020160009054906101000a900473ffffffffffffffffffffffffffffffffffffffff16908060030154908060040160009054906101000a900460ff16905085565b6000600460008381526020019081526020016000206040518060a0016040529081600082015481526020016001820160009054906101000a900473ffffffffffffffffffffffffffffffffffffffff1673ffffffffffffffffffffffffffffffffffffffff1673ffffffffffffffffffffffffffffffffffffffff1681526020016002820160009054906101000a900473ffffffffffffffffffffffffffffffffffffffff1673ffffffffffffffffffffffffffffffffffffffff1673ffffffffffffffffffffffffffffffffffffffff168152602001600382015481526020016004820160009054906101000a900460ff16151515158152505090503373ffffffffffffffffffffffffffffffffffffffff16816020015173ffffffffffffffffffffffffffffffffffffffff1614611db2576040517f08c379a0000000000000000000000000000000000000000000000000000000008152600401611da9906128b5565b60405180910390fd5b600260009054906101000a900473ffffffffffffffffffffffffffffffffffffffff1673ffffffffffffffffffffffffffffffffffffffff166323b872dd3385856040518463ffffffff1660e01b8152600401611e1193929190612690565b600060405180830381600087803b158015611e2b57600080fd5b505af1158015611e3f573d6000803e3d6000fd5b5050505082816020019073ffffffffffffffffffffffffffffffffffffffff16908173ffffffffffffffffffffffffffffffffffffffff168152505082816040019073ffffffffffffffffffffffffffffffffffffffff16908173ffffffffffffffffffffffffffffffffffffffff168152505080600460008481526020019081526020016000206000820151816000015560208201518160010160006101000a81548173ffffffffffffffffffffffffffffffffffffffff021916908373ffffffffffffffffffffffffffffffffffffffff16021790555060408201518160020160006101000a81548173ffffffffffffffffffffffffffffffffffffffff021916908373ffffffffffffffffffffffffffffffffffffffff1602179055506060820151816003015560808201518160040160006101000a81548160ff021916908315150217905550905050505050565b6040518060a0016040528060008152602001600073ffffffffffffffffffffffffffffffffffffffff168152602001600073ffffffffffffffffffffffffffffffffffffffff168152602001600081526020016000151581525090565b600073ffffffffffffffffffffffffffffffffffffffff82169050919050565b600061201982611fee565b9050919050565b6120298161200e565b82525050565b60006020820190506120446000830184612020565b92915050565b6000604051905090565b600080fd5b600080fd5b6000819050919050565b6120718161205e565b811461207c57600080fd5b50565b60008135905061208e81612068565b92915050565b6000602082840312156120aa576120a9612054565b5b60006120b88482850161207f565b91505092915050565b6120ca8161205e565b82525050565b60006020820190506120e560008301846120c1565b92915050565b6000819050919050565b600061211061210b61210684611fee565b6120eb565b611fee565b9050919050565b6000612122826120f5565b9050919050565b600061213482612117565b9050919050565b61214481612129565b82525050565b600060208201905061215f600083018461213b565b92915050565b600080fd5b6000601f19601f8301169050919050565b7f4e487b7100000000000000000000000000000000000000000000000000000000600052604160045260246000fd5b6121b38261216a565b810181811067ffffffffffffffff821117156121d2576121d161217b565b5b80604052505050565b60006121e561204a565b90506121f182826121aa565b919050565b600067ffffffffffffffff8211156122115761221061217b565b5b602082029050602081019050919050565b600080fd5b600061223a612235846121f6565b6121db565b9050808382526020820190506020840283018581111561225d5761225c612222565b5b835b818110156122865780612272888261207f565b84526020840193505060208101905061225f565b5050509392505050565b600082601f8301126122a5576122a4612165565b5b81356122b5848260208601612227565b91505092915050565b6000602082840312156122d4576122d3612054565b5b600082013567ffffffffffffffff8111156122f2576122f1612059565b5b6122fe84828501612290565b91505092915050565b600081519050919050565b600082825260208201905092915050565b6000819050602082019050919050565b61233c8161205e565b82525050565b600061234d82611fee565b9050919050565b61235d81612342565b82525050565b60008115159050919050565b61237881612363565b82525050565b60a0820160008201516123946000850182612333565b5060208201516123a76020850182612354565b5060408201516123ba6040850182612354565b5060608201516123cd6060850182612333565b5060808201516123e0608085018261236f565b50505050565b60006123f2838361237e565b60a08301905092915050565b6000602082019050919050565b600061241682612307565b6124208185612312565b935061242b83612323565b8060005b8381101561245c57815161244388826123e6565b975061244e836123fe565b92505060018101905061242f565b5085935050505092915050565b60006020820190508181036000830152612483818461240b565b905092915050565b600080604083850312156124a2576124a1612054565b5b60006124b08582860161207f565b92505060206124c18582860161207f565b9150509250929050565b60006124d682612117565b9050919050565b6124e6816124cb565b82525050565b600060208201905061250160008301846124dd565b92915050565b60a08201600082015161251d6000850182612333565b5060208201516125306020850182612354565b5060408201516125436040850182612354565b5060608201516125566060850182612333565b506080820151612569608085018261236f565b50505050565b600060a0820190506125846000830184612507565b92915050565b61259381612342565b82525050565b6125a281612363565b82525050565b600060a0820190506125bd60008301886120c1565b6125ca602083018761258a565b6125d7604083018661258a565b6125e460608301856120c1565b6125f16080830184612599565b9695505050505050565b6126048161200e565b811461260f57600080fd5b50565b600081359050612621816125fb565b92915050565b6000806040838503121561263e5761263d612054565b5b600061264c85828601612612565b925050602061265d8582860161207f565b9150509250929050565b600060408201905061267c6000830185612020565b61268960208301846120c1565b9392505050565b60006060820190506126a56000830186612020565b6126b26020830185612020565b6126bf60408301846120c1565b949350505050565b6126d081612363565b81146126db57600080fd5b50565b6000815190506126ed816126c7565b92915050565b60006020828403121561270957612708612054565b5b6000612717848285016126de565b91505092915050565b600082825260208201905092915050565b7f546f6b656e207472616e73666572206661696c65640000000000000000000000600082015250565b6000612767601583612720565b915061277282612731565b602082019050919050565b600060208201905081810360008301526127968161275a565b9050919050565b7f4e487b7100000000000000000000000000000000000000000000000000000000600052603260045260246000fd5b7f4e487b7100000000000000000000000000000000000000000000000000000000600052601160045260246000fd5b60006128068261205e565b91507fffffffffffffffffffffffffffffffffffffffffffffffffffffffffffffffff8203612838576128376127cc565b5b600182019050919050565b7f596f7520617265206e6f7420746865206f776e6572206f662074686973204e4660008201527f5400000000000000000000000000000000000000000000000000000000000000602082015250565b600061289f602183612720565b91506128aa82612843565b604082019050919050565b600060208201905081810360008301526128ce81612892565b9050919050565b60006080820190506128ea6000830187612020565b6128f76020830186612020565b61290460408301856120c1565b6129116060830184612599565b9594505050505056fea2646970667358221220845881f6a85b4a1d3bba1762c728e60c04e35d1f9432c0564d7f52444c8fdf7a64736f6c63430008120033",
  "linkReferences": {},
  "deployedLinkReferences": {}
}