{
  "_format": "hh-sol-artifact-1",
  "contractName": "NFT_marketPlace",
  "sourceName": "contracts/NFT_marketPlace.sol",
  "abi": [
    {
      "inputs": [
        {
          "internalType": "address",
          "name": "_wibuNFTAddress",
          "type": "address"
        },
        {
          "internalType": "address",
          "name": "_wibuTokenAddress",
          "type": "address"
        }
      ],
      "stateMutability": "nonpayable",
      "type": "constructor"
    },
    {
      "anonymous": false,
      "inputs": [
        {
          "indexed": true,
          "internalType": "uint256",
          "name": "tokenId",
          "type": "uint256"
        },
        {
          "indexed": false,
          "internalType": "address",
          "name": "owner",
          "type": "address"
        },
        {
          "indexed": false,
          "internalType": "address",
          "name": "seller",
          "type": "address"
        },
        {
          "indexed": false,
          "internalType": "uint256",
          "name": "price",
          "type": "uint256"
        },
        {
          "indexed": false,
          "internalType": "bool",
          "name": "currentlyListed",
          "type": "bool"
        }
      ],
      "name": "TokenListedSuccess",
      "type": "event"
    },
    {
      "inputs": [
        {
          "internalType": "uint256",
          "name": "_tokenId",
          "type": "uint256"
        }
      ],
      "name": "approveNft",
      "outputs": [],
      "stateMutability": "nonpayable",
      "type": "function"
    },
    {
      "inputs": [
        {
          "internalType": "uint256",
          "name": "_tokenId",
          "type": "uint256"
        }
      ],
      "name": "buyNft",
      "outputs": [],
      "stateMutability": "payable",
      "type": "function"
    },
    {
      "inputs": [
        {
          "internalType": "string",
          "name": "_NFT_url",
          "type": "string"
        },
        {
          "internalType": "uint256",
          "name": "_price",
          "type": "uint256"
        }
      ],
      "name": "createNft",
      "outputs": [
        {
          "internalType": "uint256",
          "name": "",
          "type": "uint256"
        }
      ],
      "stateMutability": "nonpayable",
      "type": "function"
    },
    {
      "inputs": [
        {
          "internalType": "uint256[]",
          "name": "_listTokenId",
          "type": "uint256[]"
        }
      ],
      "name": "currentlyListedMyNFT",
      "outputs": [
        {
          "components": [
            {
              "internalType": "uint256",
              "name": "tokenId",
              "type": "uint256"
            },
            {
              "internalType": "address payable",
              "name": "owner",
              "type": "address"
            },
            {
              "internalType": "address payable",
              "name": "seller",
              "type": "address"
            },
            {
              "internalType": "uint256",
              "name": "price",
              "type": "uint256"
            },
            {
              "internalType": "bool",
              "name": "currentlyListed",
              "type": "bool"
            }
          ],
          "internalType": "struct NFT_marketPlace.ListedToken[]",
          "name": "",
          "type": "tuple[]"
        }
      ],
      "stateMutability": "nonpayable",
      "type": "function"
    },
    {
      "inputs": [
        {
          "internalType": "uint256[]",
          "name": "_listTokenId",
          "type": "uint256[]"
        }
      ],
      "name": "currentlyUnlistedMyNFT",
      "outputs": [
        {
          "components": [
            {
              "internalType": "uint256",
              "name": "tokenId",
              "type": "uint256"
            },
            {
              "internalType": "address payable",
              "name": "owner",
              "type": "address"
            },
            {
              "internalType": "address payable",
              "name": "seller",
              "type": "address"
            },
            {
              "internalType": "uint256",
              "name": "price",
              "type": "uint256"
            },
            {
              "internalType": "bool",
              "name": "currentlyListed",
              "type": "bool"
            }
          ],
          "internalType": "struct NFT_marketPlace.ListedToken[]",
          "name": "",
          "type": "tuple[]"
        }
      ],
      "stateMutability": "nonpayable",
      "type": "function"
    },
    {
      "inputs": [
        {
          "internalType": "uint256",
          "name": "_tokenId",
          "type": "uint256"
        },
        {
          "internalType": "uint256",
          "name": "_price",
          "type": "uint256"
        }
      ],
      "name": "editPriceNft",
      "outputs": [],
      "stateMutability": "nonpayable",
      "type": "function"
    },
    {
      "inputs": [],
      "name": "getAllListedTokens",
      "outputs": [
        {
          "components": [
            {
              "internalType": "uint256",
              "name": "tokenId",
              "type": "uint256"
            },
            {
              "internalType": "address payable",
              "name": "owner",
              "type": "address"
            },
            {
              "internalType": "address payable",
              "name": "seller",
              "type": "address"
            },
            {
              "internalType": "uint256",
              "name": "price",
              "type": "uint256"
            },
            {
              "internalType": "bool",
              "name": "currentlyListed",
              "type": "bool"
            }
          ],
          "internalType": "struct NFT_marketPlace.ListedToken[]",
          "name": "",
          "type": "tuple[]"
        }
      ],
      "stateMutability": "view",
      "type": "function"
    },
    {
      "inputs": [],
      "name": "getAllNFTs",
      "outputs": [
        {
          "components": [
            {
              "internalType": "uint256",
              "name": "tokenId",
              "type": "uint256"
            },
            {
              "internalType": "address payable",
              "name": "owner",
              "type": "address"
            },
            {
              "internalType": "address payable",
              "name": "seller",
              "type": "address"
            },
            {
              "internalType": "uint256",
              "name": "price",
              "type": "uint256"
            },
            {
              "internalType": "bool",
              "name": "currentlyListed",
              "type": "bool"
            }
          ],
          "internalType": "struct NFT_marketPlace.ListedToken[]",
          "name": "",
          "type": "tuple[]"
        }
      ],
      "stateMutability": "view",
      "type": "function"
    },
    {
      "inputs": [
        {
          "internalType": "uint256",
          "name": "_tokenId",
          "type": "uint256"
        }
      ],
      "name": "getListedTokenForId",
      "outputs": [
        {
          "components": [
            {
              "internalType": "uint256",
              "name": "tokenId",
              "type": "uint256"
            },
            {
              "internalType": "address payable",
              "name": "owner",
              "type": "address"
            },
            {
              "internalType": "address payable",
              "name": "seller",
              "type": "address"
            },
            {
              "internalType": "uint256",
              "name": "price",
              "type": "uint256"
            },
            {
              "internalType": "bool",
              "name": "currentlyListed",
              "type": "bool"
            }
          ],
          "internalType": "struct NFT_marketPlace.ListedToken",
          "name": "",
          "type": "tuple"
        }
      ],
      "stateMutability": "view",
      "type": "function"
    },
    {
      "inputs": [],
      "name": "getMyNFTs",
      "outputs": [
        {
          "components": [
            {
              "internalType": "uint256",
              "name": "tokenId",
              "type": "uint256"
            },
            {
              "internalType": "address payable",
              "name": "owner",
              "type": "address"
            },
            {
              "internalType": "address payable",
              "name": "seller",
              "type": "address"
            },
            {
              "internalType": "uint256",
              "name": "price",
              "type": "uint256"
            },
            {
              "internalType": "bool",
              "name": "currentlyListed",
              "type": "bool"
            }
          ],
          "internalType": "struct NFT_marketPlace.ListedToken[]",
          "name": "",
          "type": "tuple[]"
        }
      ],
      "stateMutability": "view",
      "type": "function"
    },
    {
      "inputs": [],
      "name": "get_owner",
      "outputs": [
        {
          "internalType": "address",
          "name": "",
          "type": "address"
        }
      ],
      "stateMutability": "view",
      "type": "function"
    },
    {
      "inputs": [],
      "name": "get_wibuNFT",
      "outputs": [
        {
          "internalType": "address",
          "name": "",
          "type": "address"
        }
      ],
      "stateMutability": "view",
      "type": "function"
    },
    {
      "inputs": [],
      "name": "get_wibuToken",
      "outputs": [
        {
          "internalType": "address",
          "name": "",
          "type": "address"
        }
      ],
      "stateMutability": "view",
      "type": "function"
    },
    {
      "inputs": [
        {
          "internalType": "uint256",
          "name": "",
          "type": "uint256"
        }
      ],
      "name": "idToListedToken",
      "outputs": [
        {
          "internalType": "uint256",
          "name": "tokenId",
          "type": "uint256"
        },
        {
          "internalType": "address payable",
          "name": "owner",
          "type": "address"
        },
        {
          "internalType": "address payable",
          "name": "seller",
          "type": "address"
        },
        {
          "internalType": "uint256",
          "name": "price",
          "type": "uint256"
        },
        {
          "internalType": "bool",
          "name": "currentlyListed",
          "type": "bool"
        }
      ],
      "stateMutability": "view",
      "type": "function"
    },
    {
      "inputs": [],
      "name": "owner",
      "outputs": [
        {
          "internalType": "address",
          "name": "",
          "type": "address"
        }
      ],
      "stateMutability": "view",
      "type": "function"
    },
    {
      "inputs": [],
      "name": "totalNFTs",
      "outputs": [
        {
          "internalType": "uint256",
          "name": "",
          "type": "uint256"
        }
      ],
      "stateMutability": "view",
      "type": "function"
    },
    {
      "inputs": [
        {
          "internalType": "address",
          "name": "_to",
          "type": "address"
        },
        {
          "internalType": "uint256",
          "name": "_tokenId",
          "type": "uint256"
        }
      ],
      "name": "transctionNft",
      "outputs": [],
      "stateMutability": "nonpayable",
      "type": "function"
    },
    {
      "inputs": [],
      "name": "wibuNFT",
      "outputs": [
        {
          "internalType": "contract WibuNFT",
          "name": "",
          "type": "address"
        }
      ],
      "stateMutability": "view",
      "type": "function"
    },
    {
      "inputs": [],
      "name": "wibuToken",
      "outputs": [
        {
          "internalType": "contract WibuToken",
          "name": "",
          "type": "address"
        }
      ],
      "stateMutability": "view",
      "type": "function"
    }
  ],
  "bytecode": "0x60806040523480156200001157600080fd5b5060405162002f7738038062002f7783398181016040528101906200003791906200016b565b336000806101000a81548173ffffffffffffffffffffffffffffffffffffffff021916908373ffffffffffffffffffffffffffffffffffffffff16021790555081600260006101000a81548173ffffffffffffffffffffffffffffffffffffffff021916908373ffffffffffffffffffffffffffffffffffffffff16021790555080600360006101000a81548173ffffffffffffffffffffffffffffffffffffffff021916908373ffffffffffffffffffffffffffffffffffffffff1602179055505050620001b2565b600080fd5b600073ffffffffffffffffffffffffffffffffffffffff82169050919050565b6000620001338262000106565b9050919050565b620001458162000126565b81146200015157600080fd5b50565b60008151905062000165816200013a565b92915050565b6000806040838503121562000185576200018462000101565b5b6000620001958582860162000154565b9250506020620001a88582860162000154565b9150509250929050565b612db580620001c26000396000f3fe6080604052600436106101145760003560e01c80637be3251b116100a0578063a9e00ba411610064578063a9e00ba4146103a8578063b101b6e2146103d3578063e0391b09146103fe578063e57a497a14610429578063f13f73dc1461046a57610114565b80637be3251b146102ad5780638da5cb5b146102d85780638e26459014610303578063a50d998314610340578063a64972aa1461036b57610114565b80633e73720c116100e75780633e73720c146101b457806354596af9146101f15780635b0153f71461021c578063629cb2e41461025957806378b438241461028457610114565b80630ac298dc146101195780630b336977146101445780630d0e96da1461016d578063243adbdd14610198575b600080fd5b34801561012557600080fd5b5061012e610493565b60405161013b919061221f565b60405180910390f35b34801561015057600080fd5b5061016b60048036038101906101669190612284565b6104bc565b005b34801561017957600080fd5b5061018261056e565b60405161018f91906122c0565b60405180910390f35b6101b260048036038101906101ad9190612284565b610574565b005b3480156101c057600080fd5b506101db60048036038101906101d69190612421565b610955565b6040516101e891906122c0565b60405180910390f35b3480156101fd57600080fd5b50610206610dd3565b60405161021391906124dc565b60405180910390f35b34801561022857600080fd5b50610243600480360381019061023e91906125bf565b610df9565b604051610250919061276a565b60405180910390f35b34801561026557600080fd5b5061026e611107565b60405161027b919061276a565b60405180910390f35b34801561029057600080fd5b506102ab60048036038101906102a6919061278c565b61131f565b005b3480156102b957600080fd5b506102c2611576565b6040516102cf91906127ed565b60405180910390f35b3480156102e457600080fd5b506102ed61159c565b6040516102fa919061221f565b60405180910390f35b34801561030f57600080fd5b5061032a60048036038101906103259190612284565b6115c0565b6040516103379190612870565b60405180910390f35b34801561034c57600080fd5b506103556116c8565b604051610362919061276a565b60405180910390f35b34801561037757600080fd5b50610392600480360381019061038d91906125bf565b6118a0565b60405161039f919061276a565b60405180910390f35b3480156103b457600080fd5b506103bd611bae565b6040516103ca919061221f565b60405180910390f35b3480156103df57600080fd5b506103e8611bd8565b6040516103f5919061221f565b60405180910390f35b34801561040a57600080fd5b50610413611c02565b604051610420919061276a565b60405180910390f35b34801561043557600080fd5b50610450600480360381019061044b9190612284565b611db0565b6040516104619594939291906128a9565b60405180910390f35b34801561047657600080fd5b50610491600480360381019061048c9190612928565b611e33565b005b60008060009054906101000a900473ffffffffffffffffffffffffffffffffffffffff16905090565b600260009054906101000a900473ffffffffffffffffffffffffffffffffffffffff1673ffffffffffffffffffffffffffffffffffffffff1663095ea7b360008054906101000a900473ffffffffffffffffffffffffffffffffffffffff16836040518363ffffffff1660e01b8152600401610539929190612968565b600060405180830381600087803b15801561055357600080fd5b505af1158015610567573d6000803e3d6000fd5b5050505050565b60015481565b6000600460008381526020019081526020016000206040518060a0016040529081600082015481526020016001820160009054906101000a900473ffffffffffffffffffffffffffffffffffffffff1673ffffffffffffffffffffffffffffffffffffffff1673ffffffffffffffffffffffffffffffffffffffff1681526020016002820160009054906101000a900473ffffffffffffffffffffffffffffffffffffffff1673ffffffffffffffffffffffffffffffffffffffff1673ffffffffffffffffffffffffffffffffffffffff168152602001600382015481526020016004820160009054906101000a900460ff1615151515815250509050600081604001519050600082606001519050600360009054906101000a900473ffffffffffffffffffffffffffffffffffffffff1673ffffffffffffffffffffffffffffffffffffffff166323b872dd3384846040518463ffffffff1660e01b81526004016106e293929190612991565b6020604051808303816000875af1158015610701573d6000803e3d6000fd5b505050506040513d601f19601f8201168201806040525081019061072591906129f4565b610764576040517f08c379a000000000000000000000000000000000000000000000000000000000815260040161075b90612a7e565b60405180910390fd5b600260009054906101000a900473ffffffffffffffffffffffffffffffffffffffff1673ffffffffffffffffffffffffffffffffffffffff166323b872dd8333876040518463ffffffff1660e01b81526004016107c393929190612991565b600060405180830381600087803b1580156107dd57600080fd5b505af11580156107f1573d6000803e3d6000fd5b5050505033836020019073ffffffffffffffffffffffffffffffffffffffff16908173ffffffffffffffffffffffffffffffffffffffff168152505033836040019073ffffffffffffffffffffffffffffffffffffffff16908173ffffffffffffffffffffffffffffffffffffffff1681525050600083608001901515908115158152505082600460008681526020019081526020016000206000820151816000015560208201518160010160006101000a81548173ffffffffffffffffffffffffffffffffffffffff021916908373ffffffffffffffffffffffffffffffffffffffff16021790555060408201518160020160006101000a81548173ffffffffffffffffffffffffffffffffffffffff021916908373ffffffffffffffffffffffffffffffffffffffff1602179055506060820151816003015560808201518160040160006101000a81548160ff02191690831515021790555090505050505050565b60008060009054906101000a900473ffffffffffffffffffffffffffffffffffffffff1673ffffffffffffffffffffffffffffffffffffffff163373ffffffffffffffffffffffffffffffffffffffff16146109e6576040517f08c379a00000000000000000000000000000000000000000000000000000000081526004016109dd90612b10565b60405180910390fd5b6000600260009054906101000a900473ffffffffffffffffffffffffffffffffffffffff1673ffffffffffffffffffffffffffffffffffffffff1663da2ed03e856040518263ffffffff1660e01b8152600401610a439190612b9e565b6020604051808303816000875af1158015610a62573d6000803e3d6000fd5b505050506040513d601f19601f82011682018060405250810190610a869190612bd5565b905060016000815480929190610a9b90612c31565b9190505550600260009054906101000a900473ffffffffffffffffffffffffffffffffffffffff1673ffffffffffffffffffffffffffffffffffffffff1663ad6ed71d826040518263ffffffff1660e01b8152600401610afb91906122c0565b600060405180830381600087803b158015610b1557600080fd5b505af1158015610b29573d6000803e3d6000fd5b50505050600260009054906101000a900473ffffffffffffffffffffffffffffffffffffffff1673ffffffffffffffffffffffffffffffffffffffff166394ab67fe60008054906101000a900473ffffffffffffffffffffffffffffffffffffffff16836040518363ffffffff1660e01b8152600401610baa929190612968565b600060405180830381600087803b158015610bc457600080fd5b505af1158015610bd8573d6000803e3d6000fd5b505050506040518060a0016040528082815260200160008054906101000a900473ffffffffffffffffffffffffffffffffffffffff1673ffffffffffffffffffffffffffffffffffffffff16815260200160008054906101000a900473ffffffffffffffffffffffffffffffffffffffff1673ffffffffffffffffffffffffffffffffffffffff16815260200184815260200160011515815250600460008381526020019081526020016000206000820151816000015560208201518160010160006101000a81548173ffffffffffffffffffffffffffffffffffffffff021916908373ffffffffffffffffffffffffffffffffffffffff16021790555060408201518160020160006101000a81548173ffffffffffffffffffffffffffffffffffffffff021916908373ffffffffffffffffffffffffffffffffffffffff1602179055506060820151816003015560808201518160040160006101000a81548160ff021916908315150217905550905050807f9339409317fd01fabff48b703019016f49159bacc801ae872d2ca637d226e4c060008054906101000a900473ffffffffffffffffffffffffffffffffffffffff1660008054906101000a900473ffffffffffffffffffffffffffffffffffffffff16866001604051610dc19493929190612c79565b60405180910390a28091505092915050565b600260009054906101000a900473ffffffffffffffffffffffffffffffffffffffff1681565b60606000825167ffffffffffffffff811115610e1857610e176122f6565b5b604051908082528060200260200182016040528015610e5157816020015b610e3e612181565b815260200190600190039081610e365790505b5090506000610e5e612181565b60005b85518110156110fb5760046000878381518110610e8157610e80612cbe565b5b602002602001015181526020019081526020016000206040518060a0016040529081600082015481526020016001820160009054906101000a900473ffffffffffffffffffffffffffffffffffffffff1673ffffffffffffffffffffffffffffffffffffffff1673ffffffffffffffffffffffffffffffffffffffff1681526020016002820160009054906101000a900473ffffffffffffffffffffffffffffffffffffffff1673ffffffffffffffffffffffffffffffffffffffff1673ffffffffffffffffffffffffffffffffffffffff168152602001600382015481526020016004820160009054906101000a900460ff16151515158152505091503373ffffffffffffffffffffffffffffffffffffffff16826040015173ffffffffffffffffffffffffffffffffffffffff16036110e857600082608001901515908115158152505081848481518110610fdb57610fda612cbe565b5b60200260200101819052508160046000888481518110610ffe57610ffd612cbe565b5b602002602001015181526020019081526020016000206000820151816000015560208201518160010160006101000a81548173ffffffffffffffffffffffffffffffffffffffff021916908373ffffffffffffffffffffffffffffffffffffffff16021790555060408201518160020160006101000a81548173ffffffffffffffffffffffffffffffffffffffff021916908373ffffffffffffffffffffffffffffffffffffffff1602179055506060820151816003015560808201518160040160006101000a81548160ff02191690831515021790555090505082806110e490612c31565b9350505b80806110f390612c31565b915050610e61565b50829350505050919050565b6060600060015467ffffffffffffffff811115611127576111266122f6565b5b60405190808252806020026020018201604052801561116057816020015b61114d612181565b8152602001906001900390816111455790505b509050600080600190505b6001548111611316573373ffffffffffffffffffffffffffffffffffffffff166004600083815260200190815260200160002060010160009054906101000a900473ffffffffffffffffffffffffffffffffffffffff1673ffffffffffffffffffffffffffffffffffffffff160361130357600460008281526020019081526020016000206040518060a0016040529081600082015481526020016001820160009054906101000a900473ffffffffffffffffffffffffffffffffffffffff1673ffffffffffffffffffffffffffffffffffffffff1673ffffffffffffffffffffffffffffffffffffffff1681526020016002820160009054906101000a900473ffffffffffffffffffffffffffffffffffffffff1673ffffffffffffffffffffffffffffffffffffffff1673ffffffffffffffffffffffffffffffffffffffff168152602001600382015481526020016004820160009054906101000a900460ff1615151515815250508383815181106112e9576112e8612cbe565b5b602002602001018190525081806112ff90612c31565b9250505b808061130e90612c31565b91505061116b565b50819250505090565b6000600460008481526020019081526020016000206040518060a0016040529081600082015481526020016001820160009054906101000a900473ffffffffffffffffffffffffffffffffffffffff1673ffffffffffffffffffffffffffffffffffffffff1673ffffffffffffffffffffffffffffffffffffffff1681526020016002820160009054906101000a900473ffffffffffffffffffffffffffffffffffffffff1673ffffffffffffffffffffffffffffffffffffffff1673ffffffffffffffffffffffffffffffffffffffff168152602001600382015481526020016004820160009054906101000a900460ff16151515158152505090503373ffffffffffffffffffffffffffffffffffffffff16816020015173ffffffffffffffffffffffffffffffffffffffff161461148e576040517f08c379a000000000000000000000000000000000000000000000000000000000815260040161148590612d5f565b60405180910390fd5b8181606001818152505080600460008581526020019081526020016000206000820151816000015560208201518160010160006101000a81548173ffffffffffffffffffffffffffffffffffffffff021916908373ffffffffffffffffffffffffffffffffffffffff16021790555060408201518160020160006101000a81548173ffffffffffffffffffffffffffffffffffffffff021916908373ffffffffffffffffffffffffffffffffffffffff1602179055506060820151816003015560808201518160040160006101000a81548160ff021916908315150217905550905050505050565b600360009054906101000a900473ffffffffffffffffffffffffffffffffffffffff1681565b60008054906101000a900473ffffffffffffffffffffffffffffffffffffffff1681565b6115c8612181565b600460008381526020019081526020016000206040518060a0016040529081600082015481526020016001820160009054906101000a900473ffffffffffffffffffffffffffffffffffffffff1673ffffffffffffffffffffffffffffffffffffffff1673ffffffffffffffffffffffffffffffffffffffff1681526020016002820160009054906101000a900473ffffffffffffffffffffffffffffffffffffffff1673ffffffffffffffffffffffffffffffffffffffff1673ffffffffffffffffffffffffffffffffffffffff168152602001600382015481526020016004820160009054906101000a900460ff1615151515815250509050919050565b6060600060015467ffffffffffffffff8111156116e8576116e76122f6565b5b60405190808252806020026020018201604052801561172157816020015b61170e612181565b8152602001906001900390816117065790505b509050600080600190505b6001548111611897576004600082815260200190815260200160002060040160009054906101000a900460ff161561188457600460008281526020019081526020016000206040518060a0016040529081600082015481526020016001820160009054906101000a900473ffffffffffffffffffffffffffffffffffffffff1673ffffffffffffffffffffffffffffffffffffffff1673ffffffffffffffffffffffffffffffffffffffff1681526020016002820160009054906101000a900473ffffffffffffffffffffffffffffffffffffffff1673ffffffffffffffffffffffffffffffffffffffff1673ffffffffffffffffffffffffffffffffffffffff168152602001600382015481526020016004820160009054906101000a900460ff16151515158152505083838151811061186a57611869612cbe565b5b6020026020010181905250818061188090612c31565b9250505b808061188f90612c31565b91505061172c565b50819250505090565b60606000825167ffffffffffffffff8111156118bf576118be6122f6565b5b6040519080825280602002602001820160405280156118f857816020015b6118e5612181565b8152602001906001900390816118dd5790505b5090506000611905612181565b60005b8551811015611ba2576004600087838151811061192857611927612cbe565b5b602002602001015181526020019081526020016000206040518060a0016040529081600082015481526020016001820160009054906101000a900473ffffffffffffffffffffffffffffffffffffffff1673ffffffffffffffffffffffffffffffffffffffff1673ffffffffffffffffffffffffffffffffffffffff1681526020016002820160009054906101000a900473ffffffffffffffffffffffffffffffffffffffff1673ffffffffffffffffffffffffffffffffffffffff1673ffffffffffffffffffffffffffffffffffffffff168152602001600382015481526020016004820160009054906101000a900460ff16151515158152505091503373ffffffffffffffffffffffffffffffffffffffff16826040015173ffffffffffffffffffffffffffffffffffffffff1603611b8f57600182608001901515908115158152505081848481518110611a8257611a81612cbe565b5b60200260200101819052508160046000888481518110611aa557611aa4612cbe565b5b602002602001015181526020019081526020016000206000820151816000015560208201518160010160006101000a81548173ffffffffffffffffffffffffffffffffffffffff021916908373ffffffffffffffffffffffffffffffffffffffff16021790555060408201518160020160006101000a81548173ffffffffffffffffffffffffffffffffffffffff021916908373ffffffffffffffffffffffffffffffffffffffff1602179055506060820151816003015560808201518160040160006101000a81548160ff0219169083151502179055509050508280611b8b90612c31565b9350505b8080611b9a90612c31565b915050611908565b50829350505050919050565b6000600260009054906101000a900473ffffffffffffffffffffffffffffffffffffffff16905090565b6000600360009054906101000a900473ffffffffffffffffffffffffffffffffffffffff16905090565b6060600060015467ffffffffffffffff811115611c2257611c216122f6565b5b604051908082528060200260200182016040528015611c5b57816020015b611c48612181565b815260200190600190039081611c405790505b509050600080600190505b6001548111611da757600460008281526020019081526020016000206040518060a0016040529081600082015481526020016001820160009054906101000a900473ffffffffffffffffffffffffffffffffffffffff1673ffffffffffffffffffffffffffffffffffffffff1673ffffffffffffffffffffffffffffffffffffffff1681526020016002820160009054906101000a900473ffffffffffffffffffffffffffffffffffffffff1673ffffffffffffffffffffffffffffffffffffffff1673ffffffffffffffffffffffffffffffffffffffff168152602001600382015481526020016004820160009054906101000a900460ff161515151581525050838381518110611d7b57611d7a612cbe565b5b60200260200101819052508180611d9190612c31565b9250508080611d9f90612c31565b915050611c66565b50819250505090565b60046020528060005260406000206000915090508060000154908060010160009054906101000a900473ffffffffffffffffffffffffffffffffffffffff16908060020160009054906101000a900473ffffffffffffffffffffffffffffffffffffffff16908060030154908060040160009054906101000a900460ff16905085565b6000600460008381526020019081526020016000206040518060a0016040529081600082015481526020016001820160009054906101000a900473ffffffffffffffffffffffffffffffffffffffff1673ffffffffffffffffffffffffffffffffffffffff1673ffffffffffffffffffffffffffffffffffffffff1681526020016002820160009054906101000a900473ffffffffffffffffffffffffffffffffffffffff1673ffffffffffffffffffffffffffffffffffffffff1673ffffffffffffffffffffffffffffffffffffffff168152602001600382015481526020016004820160009054906101000a900460ff16151515158152505090503373ffffffffffffffffffffffffffffffffffffffff16816020015173ffffffffffffffffffffffffffffffffffffffff1614611fa2576040517f08c379a0000000000000000000000000000000000000000000000000000000008152600401611f9990612d5f565b60405180910390fd5b600260009054906101000a900473ffffffffffffffffffffffffffffffffffffffff1673ffffffffffffffffffffffffffffffffffffffff166323b872dd3385856040518463ffffffff1660e01b815260040161200193929190612991565b600060405180830381600087803b15801561201b57600080fd5b505af115801561202f573d6000803e3d6000fd5b5050505082816020019073ffffffffffffffffffffffffffffffffffffffff16908173ffffffffffffffffffffffffffffffffffffffff168152505082816040019073ffffffffffffffffffffffffffffffffffffffff16908173ffffffffffffffffffffffffffffffffffffffff168152505080600460008481526020019081526020016000206000820151816000015560208201518160010160006101000a81548173ffffffffffffffffffffffffffffffffffffffff021916908373ffffffffffffffffffffffffffffffffffffffff16021790555060408201518160020160006101000a81548173ffffffffffffffffffffffffffffffffffffffff021916908373ffffffffffffffffffffffffffffffffffffffff1602179055506060820151816003015560808201518160040160006101000a81548160ff021916908315150217905550905050505050565b6040518060a0016040528060008152602001600073ffffffffffffffffffffffffffffffffffffffff168152602001600073ffffffffffffffffffffffffffffffffffffffff168152602001600081526020016000151581525090565b600073ffffffffffffffffffffffffffffffffffffffff82169050919050565b6000612209826121de565b9050919050565b612219816121fe565b82525050565b60006020820190506122346000830184612210565b92915050565b6000604051905090565b600080fd5b600080fd5b6000819050919050565b6122618161224e565b811461226c57600080fd5b50565b60008135905061227e81612258565b92915050565b60006020828403121561229a57612299612244565b5b60006122a88482850161226f565b91505092915050565b6122ba8161224e565b82525050565b60006020820190506122d560008301846122b1565b92915050565b600080fd5b600080fd5b6000601f19601f8301169050919050565b7f4e487b7100000000000000000000000000000000000000000000000000000000600052604160045260246000fd5b61232e826122e5565b810181811067ffffffffffffffff8211171561234d5761234c6122f6565b5b80604052505050565b600061236061223a565b905061236c8282612325565b919050565b600067ffffffffffffffff82111561238c5761238b6122f6565b5b612395826122e5565b9050602081019050919050565b82818337600083830152505050565b60006123c46123bf84612371565b612356565b9050828152602081018484840111156123e0576123df6122e0565b5b6123eb8482856123a2565b509392505050565b600082601f830112612408576124076122db565b5b81356124188482602086016123b1565b91505092915050565b6000806040838503121561243857612437612244565b5b600083013567ffffffffffffffff81111561245657612455612249565b5b612462858286016123f3565b92505060206124738582860161226f565b9150509250929050565b6000819050919050565b60006124a261249d612498846121de565b61247d565b6121de565b9050919050565b60006124b482612487565b9050919050565b60006124c6826124a9565b9050919050565b6124d6816124bb565b82525050565b60006020820190506124f160008301846124cd565b92915050565b600067ffffffffffffffff821115612512576125116122f6565b5b602082029050602081019050919050565b600080fd5b600061253b612536846124f7565b612356565b9050808382526020820190506020840283018581111561255e5761255d612523565b5b835b818110156125875780612573888261226f565b845260208401935050602081019050612560565b5050509392505050565b600082601f8301126125a6576125a56122db565b5b81356125b6848260208601612528565b91505092915050565b6000602082840312156125d5576125d4612244565b5b600082013567ffffffffffffffff8111156125f3576125f2612249565b5b6125ff84828501612591565b91505092915050565b600081519050919050565b600082825260208201905092915050565b6000819050602082019050919050565b61263d8161224e565b82525050565b600061264e826121de565b9050919050565b61265e81612643565b82525050565b60008115159050919050565b61267981612664565b82525050565b60a0820160008201516126956000850182612634565b5060208201516126a86020850182612655565b5060408201516126bb6040850182612655565b5060608201516126ce6060850182612634565b5060808201516126e16080850182612670565b50505050565b60006126f3838361267f565b60a08301905092915050565b6000602082019050919050565b600061271782612608565b6127218185612613565b935061272c83612624565b8060005b8381101561275d57815161274488826126e7565b975061274f836126ff565b925050600181019050612730565b5085935050505092915050565b60006020820190508181036000830152612784818461270c565b905092915050565b600080604083850312156127a3576127a2612244565b5b60006127b18582860161226f565b92505060206127c28582860161226f565b9150509250929050565b60006127d7826124a9565b9050919050565b6127e7816127cc565b82525050565b600060208201905061280260008301846127de565b92915050565b60a08201600082015161281e6000850182612634565b5060208201516128316020850182612655565b5060408201516128446040850182612655565b5060608201516128576060850182612634565b50608082015161286a6080850182612670565b50505050565b600060a0820190506128856000830184612808565b92915050565b61289481612643565b82525050565b6128a381612664565b82525050565b600060a0820190506128be60008301886122b1565b6128cb602083018761288b565b6128d8604083018661288b565b6128e560608301856122b1565b6128f2608083018461289a565b9695505050505050565b612905816121fe565b811461291057600080fd5b50565b600081359050612922816128fc565b92915050565b6000806040838503121561293f5761293e612244565b5b600061294d85828601612913565b925050602061295e8582860161226f565b9150509250929050565b600060408201905061297d6000830185612210565b61298a60208301846122b1565b9392505050565b60006060820190506129a66000830186612210565b6129b36020830185612210565b6129c060408301846122b1565b949350505050565b6129d181612664565b81146129dc57600080fd5b50565b6000815190506129ee816129c8565b92915050565b600060208284031215612a0a57612a09612244565b5b6000612a18848285016129df565b91505092915050565b600082825260208201905092915050565b7f546f6b656e207472616e73666572206661696c65640000000000000000000000600082015250565b6000612a68601583612a21565b9150612a7382612a32565b602082019050919050565b60006020820190508181036000830152612a9781612a5b565b9050919050565b7f596f7520617265206e6f7420746865206f776e6572206f66207468697320636f60008201527f6e74726163740000000000000000000000000000000000000000000000000000602082015250565b6000612afa602683612a21565b9150612b0582612a9e565b604082019050919050565b60006020820190508181036000830152612b2981612aed565b9050919050565b600081519050919050565b60005b83811015612b59578082015181840152602081019050612b3e565b60008484015250505050565b6000612b7082612b30565b612b7a8185612a21565b9350612b8a818560208601612b3b565b612b93816122e5565b840191505092915050565b60006020820190508181036000830152612bb88184612b65565b905092915050565b600081519050612bcf81612258565b92915050565b600060208284031215612beb57612bea612244565b5b6000612bf984828501612bc0565b91505092915050565b7f4e487b7100000000000000000000000000000000000000000000000000000000600052601160045260246000fd5b6000612c3c8261224e565b91507fffffffffffffffffffffffffffffffffffffffffffffffffffffffffffffffff8203612c6e57612c6d612c02565b5b600182019050919050565b6000608082019050612c8e6000830187612210565b612c9b6020830186612210565b612ca860408301856122b1565b612cb5606083018461289a565b95945050505050565b7f4e487b7100000000000000000000000000000000000000000000000000000000600052603260045260246000fd5b7f596f7520617265206e6f7420746865206f776e6572206f662074686973204e4660008201527f5400000000000000000000000000000000000000000000000000000000000000602082015250565b6000612d49602183612a21565b9150612d5482612ced565b604082019050919050565b60006020820190508181036000830152612d7881612d3c565b905091905056fea2646970667358221220bc576cc67994307aa58b35a95d0933228c1d444ba7372b5b41489fc20288536264736f6c63430008120033",
  "linkReferences": {},
  "deployedLinkReferences": {}
}